:020000040202F6
:10A00000000000001DA00202DFF80CD000F01AF8DA
:10A01000004800472DA002022C5A002002B5EFF3A1
:10A02000088181F3098805480047000004488047FB
:10A03000EFF3098181F3088802BD000045A0020208
:10A0400065D00202064C074D06E0E06840F00103CF
:10A0500094E8070098471034AC42F6D3FFF7D8FFD6
:10A060003CFF02025CFF02022DE9F05F0546002082
:10A0700092469B4688460646814640241BE0284679
:10A0800041464746224600F069F853465A46C01AF0
:10A09000914110D311461846224600F050F82D1A6F
:10A0A00067EB01084F4622460120002100F047F8E7
:10A0B00017EB00094E41201EA4F10104DFDC4846E5
:10A0C00031462A464346BDE8F09F40EA01039B071C
:10A0D00003D009E008C9121F08C0042AFAD203E01D
:10A0E00011F8013B00F8013B521EF9D27047D2B281
:10A0F00001E000F8012B491EFBD270470022F6E771
:10A1000010B513460A4604461946FFF7F0FF2046ED
:10A1100010BD30B504460020034600E05B1C9342AE
:10A1200003D2E05CCD5C401BF8D030BD034611F893
:10A13000012B00F8012B002AF9D118467047202A7C
:10A1400004DB203A00FA02F1002070479140C2F18E
:10A15000200320FA03F3194390407047202A04DBC0
:10A16000203A21FA02F00021704721FA02F3D04090
:10A17000C2F12002914008431946704783B013464C
:10A180008C4602908DF807108DF806209DF8070088
:10A19000012101FA00F000900298006800998843BC
:10A1A0009DF806109DF80720914008430299086029
:10A1B00003B0704780B586B00A4603468DF8170095
:10A1C0008DF816109DF8170045F20001C4F2010148
:10A1D0001428C4BF46F20001C4F2010104919DF8A5
:10A1E0001700152805DBFFE79DF8170015380290CA
:10A1F00003E09DF817000290FFE7029803909DF896
:10A200001600032819D0FFE7049828309DF80C1099
:10A210009DF81620002A18BF0122FFF7AFFF04980F
:10A2200000F134009DF80C109DF81620B2FA82F26D
:10A230004FEA5212FFF7A2FF0FE0049828309DF872
:10A240000C1000220192FFF799FF049834309DF81A
:10A250000C10019AFFF792FFFFE706B080BD0000E7
:10A2600084B00A4603468DF80F008DF80E109DF855
:10A270000F0045F20001C4F201011428C4BF46F2E8
:10A280000001C4F2010102919DF80F00152805DBC1
:10A29000FFE79DF80F001538009003E09DF80F00D0
:10A2A0000090FFE7009801909DF80E00002809D06B
:10A2B000FFE70198012101FA00F002990A6B1043AF
:10A2C000086308E00198012101FA00F00299CA6AC6
:10A2D0001043C862FFE704B07047000080B58AB041
:10A2E00009904FF040200021012200F08DFE45F240
:10A2F000D050C2F20000007800280CD0FFE70920FF
:10A3000000210891FFF7ACFF45F2D050C2F20000E7
:10A31000089901700BE0092001210791FFF7A0FFC8
:10A3200045F2D050C2F2000007990170FFE74FF0EC
:10A33000402000210691069A00F044FE02F0E2FE61
:10A3400001460028059108D0FFE70598012815D09F
:10A35000FFE70598022822D026E04FF04020002198
:10A3600044F24022C0F20F020490039100F0A6FED6
:10A3700001220498039900F025FE21E04FF04020CF
:10A3800000214CF2C062C0F22D020290019100F057
:10A3900095FE01220298019900F014FE10E00920B8
:10A3A0000121FFF75DFF0BE002F0ACFE4FF64E41DE
:10A3B000C0F20221009008460099F6F767F8FFE71F
:10A3C00000200AB080BD000080B588B001468DF83D
:10A3D0001F009DF81F00002203911146029200F019
:10A3E000C5F89DF81F1001900846029900F038F852
:10A3F00015218DF81E109DF81F109DF81E2045F2A6
:10A400000003C4F201039142A4BF46F20003C4F268
:10A41000010306939DF81F109DF81E20914207DB53
:10A42000FFE79DF81F009DF81E10401A009003E002
:10A430009DF81F000090FFE7009805900598012106
:10A4400001FA00F0C0430490049806998A6A10400B
:10A450008862049806994A6B1040486308B080BD32
:10A4600086B00A4603468DF817008DF816109DF841
:10A4700017000490049800211F28C8BF01210391F0
:10A48000049800F01F004FF0010101FA00F0029063
:10A49000039846F28001C4F2000101EB80000190B4
:10A4A000039846F28801C4F2000101EB800000909D
:10A4B0009DF81600002807D1FFE7029801990A6865
:10A4C00022EA0000086017E09DF81600012806D176
:10A4D000FFE7029800990A681043086006E00298B6
:10A4E00000990A6822EA00000860FFE702980199D3
:10A4F0000A6810430860FFE7002006B070470000BC
:10A5000080B584B00A4603468DF80B008DF80A101A
:10A510009DF80B00102805D1FFE79DF80A001128CF
:10A5200004D0FFE74FF0FF3003901BE046F26400D9
:10A53000C4F200000121032301900091009A04F06D
:10A5400003FC042301980099009A04F0FDFB9DF898
:10A550000B00FFF739FF9DF80A00FFF735FF0020D9
:10A560000390FFE7039804B080BD000080B586B07B
:10A570000A4603468DF813008DF812109DF813005B
:10A580009DF812100292019304F0A4FD0390039829
:10A59000B0F1FF3F03DCFFE703980590BEE09DF8B4
:10A5A0001300112816DCFFE79DF8130046F20001A6
:10A5B000C4F20001014321F00301039A00F00300FB
:10A5C000C0EBC0030720009008461146009A04F033
:10A5D000BBFBA0E09DF81300142810DCFFE70399F3
:10A5E0009DF813006FF0150202EB4000C3B246F273
:10A5F0001000C4F20000022204F0A6FB8AE09DF8DD
:10A60000130015280AD1FFE7039946F21000C4F29F
:10A6100000000722142304F097FB7AE09DF8130052
:10A6200016280AD1FFE7039946F21400C4F200008D
:10A630000722002304F088FB6AE09DF813001E281F
:10A6400010DCFFE703999DF813006FF0260202EB80
:10A650004000C3B246F21400C4F20000022204F02B
:10A6600073FB54E09DF813001F280AD1FFE70399FC
:10A6700046F21400C4F200000722172304F064FB22
:10A6800044E09DF8130020280AD1FFE7039946F221
:10A690001400C4F2000002221E2304F055FB34E033
:10A6A0009DF8130021280AD1FFE7039946F218000C
:10A6B000C4F200000222002304F046FB24E09DF8CF
:10A6C000130023280FDCFFE703999DF81300C0EB6C
:10A6D000C000EC38C3B246F21800C4F200000722F2
:10A6E00004F032FB0FE003999DF813006FF037027E
:10A6F00002EB4000C3B246F21800C4F2000002228E
:10A7000004F022FBFFE7FFE7FFE7FFE7FFE7FFE7D4
:10A71000FFE7FFE7FFE700200590FFE7059806B099
:10A7200080BD000080B582B00190019800EB400030
:10A7300045F21461C2F2000101EBC000183002F0D2
:10A74000D1FA02B080BD000080B502F079FA80BD78
:10A7500080B586B0059004910392FFE745F214603E
:10A76000C2F200000078002803D1FFE702F068FA87
:10A77000FFE7FFE7EFF311804FF0200181F311882D
:10A78000019005980499039A00F008F80290019846
:10A7900080F31188029806B080BD000080B58AB0B1
:10A7A00009900891079208980490099800EB4000DE
:10A7B00045F21461C2F2000101EBC00018300390B1
:10A7C000039840690028029008D0FFE7029801280A
:10A7D00019D0FFE7029802282CD032E0039802F04B
:10A7E00081FA059005980799884203D2FFE7002077
:10A7F000069007E00798069003980499079A02F0DC
:10A8000001FBFFE720E0039802F06CFA0590059841
:10A810000799884203D2FFE70598019002E0079864
:10A820000190FFE70198069003980499069A02F0B8
:10A83000E9FA09E003980499079A02F073FA06907E
:10A8400002E000200690FFE706980AB080BD0000F5
:10A8500080B584B013468C4603908DF80B108DF8AC
:10A860000A209DF80B00002806D0FFE7039800217E
:10A87000012204F04DFAFFE79DF80B109DF80A3015
:10A880002820C4F20000012204F084FA9DF80B0095
:10A8900000280CD1FFE703980421C8F2000181656C
:10A8A000039801210191019A04F032FAFFE704B004
:10A8B00080BD000080B582B001468DF807009DF88C
:10A8C000070001220091114600F024F802B080BD7B
:10A8D00080B582B0019000208DF80300FFE79DF85D
:10A8E0000300182814DCFFE701989DF80310C84006
:10A8F000C007002805D0FFE79DF80300FFF7DAFF47
:10A90000FFE7FFE79DF8030001308DF80300E6E75D
:10A9100002B080BD80B586B00A4603468DF81700A8
:10A920008DF816109DF8170001461828049100F2C2
:10A93000B3810499DFE811F019002A003B004C00B4
:10A940005D006E007F009000A100B200CA00E3002D
:10A95000F4000D011E012F014001510162016B0144
:10A9600074017D0186019701A7019DF816100C2046
:10A97000C4F20000152204F0CBF99DF81610142043
:10A98000C4F20000122204F0C3F986E19DF816100B
:10A990000C20C4F20000162204F0BAF99DF816103B
:10A9A0001420C4F20000122204F0B2F975E19DF8FF
:10A9B00016100C20C4F20000022204F0A9F99DF840
:10A9C00016101420C4F20000002204F0A1F964E182
:10A9D0009DF816100C20C4F20000032204F098F930
:10A9E0009DF816101420C4F20000012204F090F922
:10A9F00053E19DF816100C20C4F20000042204F06C
:10AA000087F99DF816101420C4F20000022204F009
:10AA10007FF942E19DF816100C20C4F200000122DB
:10AA200004F076F99DF816101420C4F200001122EB
:10AA300004F06EF931E19DF816100C20C4F200000C
:10AA4000052204F065F99DF816101420C4F20000E8
:10AA50000A2204F05DF920E19DF816100C20C4F2E2
:10AA60000000082204F054F99DF816101420C4F2D6
:10AA70000000092204F04CF90FE19DF816100C209B
:10AA8000C4F20000092204F043F99DF81610542086
:10AA9000C4F200000C2204F03BF9FEE09DF8161011
:10AAA0000C20C4F200000A2204F032F99DF81610BE
:10AAB0001420C4F200001322039004F029F99DF839
:10AAC00016101422039804F023F9E6E09DF81610FE
:10AAD0000C20C4F200000B22029204F019F99DF838
:10AAE00016101420C4F200000190029A04F010F92C
:10AAF0009DF816101022019804F00AF9CDE09DF897
:10AB000016100C20C4F200000C2204F001F99DF88C
:10AB100016100820C4F20000002204F0F9F8BCE08E
:10AB20009DF816100820C4F200000C2204F0F0F882
:10AB30009DF816100C20C4F200000D2204F0E8F875
:10AB40009DF816101420C4F20000062204F0E0F86C
:10AB5000A3E09DF816100C20C4F200000E2204F0B1
:10AB6000D7F89DF816101420C4F20000072204F054
:10AB7000CFF892E09DF816100C20C4F200000F22CE
:10AB800004F0C6F89DF816101420C4F200000C2240
:10AB900004F0BEF881E09DF816100C20C4F200000D
:10ABA000102204F0B5F89DF816101420C4F200002D
:10ABB000082204F0ADF870E09DF816100C20C4F2E5
:10ABC0000000112204F0A4F89DF816101420C4F21D
:10ABD0000000042204F09CF85FE09DF816100C20A1
:10ABE000C4F20000122204F093F89DF8161014200D
:10ABF000C4F20000052204F08BF84EE09DF8161018
:10AC00000C20C4F20000132204F082F845E09DF805
:10AC100016100C20C4F20000142204F079F83CE075
:10AC20009DF816100C20C4F20000002204F070F809
:10AC300033E09DF816100C20C4F20000062204F048
:10AC400067F82AE09DF816100C20C4F200001722C5
:10AC500004F05EF89DF816101420C4F200000E22D5
:10AC600004F056F819E09DF816108020C4F2000098
:10AC70000522009004F04CF89DF816100722009869
:10AC800004F046F809E09DF816100C20C4F200000C
:10AC9000192204F03DF800E0FFE706B080BD000097
:10ACA00080B584B040F2A810C4F210000068C00261
:10ACB00000281AD5FFE74020C4F200000168C1F364
:10ACC00045010268C2F3C53251430291019000F080
:10ACD00013F801990A68C2F3C712A0FB0201029A95
:10ACE0000023FFF7C1F9039002E000200390FFE783
:10ACF000039804B080BD000083B042F21000C4F29B
:10AD000010000068C0F300208DF807009DF80700D0
:10AD1000002806D0FFE743F20060C0F26E100290F8
:10AD200039E040F27C10C4F210000068C0F3043037
:10AD300001460F28009128D80099DFE801F0080E9D
:10AD400026142626261A262626262626262041F2E0
:10AD50000020C0F27A0002901DE042F20040C0F2F2
:10AD6000F400029017E043F20060C0F26E1002900F
:10AD700011E044F60000C0F2E81002900BE046F645
:10AD80000040C0F2DC20029005E049F20000C0F271
:10AD9000D0300290FFE7029803B0704780B584B0CE
:10ADA00001468DF80F009DF80F000022C4F2140236
:10ADB000012302901046029A019111461A46FFF7AC
:10ADC00047FD04B080BD000080B584B003F0ECFB0B
:10ADD00001900198002803D1FFE7012003905FE074
:10ADE0000198017842F20800C4F2100007220423FF
:10ADF00003F0D0FF1C20C4F2000040F2EE210C2230
:10AE0000142303F0C7FF00200290FFE702980F28E9
:10AE100019D8FFE70198029900EB4100808840F2C1
:10AE2000A64188420ADBFFE7029942F20000C4F221
:10AE3000100004221C2303F0ADFF04E0FFE702989A
:10AE400001300290E2E70298102803D3FFE70220C6
:10AE5000039025E001200290FFE702980F2815D803
:10AE6000FFE70198029900EB4100808C40F29D4180
:10AE7000884206DBFFE702980138C0B200F064F8B0
:10AE800004E0FFE7029801300290E6E702981028FC
:10AE900003D3FFE70320039002E000200390FFE7C5
:10AEA000039804B080BD000080B586B00146ADF8BF
:10AEB0001600BDF816008022C4F2000204234FF0F1
:10AEC000000C04901046DDF810E0039171460292E8
:10AED0001A460193634603F05DFF01210298019A2F
:10AEE00003F016FF06B080BD80B582B001468DF834
:10AEF00007009DF80700002200911146FFF70AFDA8
:10AF000002B080BD80B582B0019000208DF80300B2
:10AF1000FFE79DF80300182814DCFFE701989DF86F
:10AF20000310C840C007002805D0FFE79DF80300C4
:10AF3000FFF7DAFFFFE7FFE79DF8030001308DF828
:10AF40000300E6E702B080BD80B584B001468DF80D
:10AF50000F009DF80F0000F00F0042F20002C4F253
:10AF6000100204234FF0010C02901046029A019146
:10AF700011461A46634603F00DFF04B080BD000081
:10AF800081B00A4603468DF803008DF802109DF843
:10AF9000030000280DD0FFE79DF80200012101FA0F
:10AFA00000F040F0410040F27411C4F2100108605A
:10AFB00006E040F27410C4F2100000210160FFE7C7
:10AFC00001B0704782B013468C4601908DF8031093
:10AFD0008DF802209DF8030080000F2101FA00F097
:10AFE0000199CA6922EA0000C8619DF8020000F0D8
:10AFF0000F009DF80310890088400199CA69104329
:10B00000C86102B07047000082B013468C460190C0
:10B010008DF803108DF802209DF8020000F00F005B
:10B020009DF80310890088400199886102B070473B
:10B0300082B013468C4601908DF803108DF80220E3
:10B040009DF8030080000F2101FA00F001994A6980
:10B0500022EA000048619DF8020000F00F009DF810
:10B0600003108900884001994A691043486102B081
:10B0700070470000B0B582B0DDF818C09E46144697
:10B080000D4601908DF803108DF802208DF80130E7
:10B090008DF800C09DF8020000F007009DF8011037
:10B0A00040EAC1009DF8001040EA011001999DF8A6
:10B0B000032001EB0211086202B0B0BD83B00B4661
:10B0C00002908DF807100092009802999DF80720D1
:10B0D00001EB0211486203B07047000082B00A46DB
:10B0E00001908DF803109DF803000199086002B0EB
:10B0F0007047000081B001468DF803009DF8030001
:10B1000000F07F008DF802009DF803000006002883
:10B110001CD5FFE79DF80200000145F60411C2F2BC
:10B12000000104314FF0FF320A509DF8020001EB9C
:10B130000010002242609DF8020001EB00108260C6
:10B140009DF8020001EB0010C2601BE09DF80200B8
:10B15000000145F60411C2F2000164314FF0FF32E4
:10B160000A509DF8020001EB0010002242609DF899
:10B17000020001EB001082609DF8020001EB00105C
:10B18000C260FFE701B0704784B001468DF80F0040
:10B190000020029000909DF80F0000F07F008DF8D5
:10B1A0000E009DF80F000006002825D5FFE79DF84A
:10B1B0000E0045F60411C2F2000101EB001004304C
:10B1C00001909DF80E00002809D1FFE740F610100D
:10B1D000C4F21800006800F07F0002900BE09DF8B8
:10B1E0000E00400140F61011C4F2180108586FF328
:10B1F000DF400290FFE724E09DF80E0045F60411C1
:10B20000C2F2000101EB0010643001909DF80E00C5
:10B21000002809D1FFE740F61030C4F2180000689A
:10B2200000F07F0002900BE09DF80E00400140F618
:10B230001031C4F2180108586FF3DF400290FFE7A5
:10B24000FFE70198007B800700280FD5FFE70198F2
:10B250008168029A891A416001984FF0FF310160BC
:10B2600001980021816001200090FFE7009804B060
:10B270007047000080B500F015F801F0E5FA1820DD
:10B28000C4F218000021016040F61C00C4F218004E
:10B29000016045F60410C2F20000C0F80411C0F8C5
:10B2A000F41080BD80B584B045F60410C2F20000F1
:10B2B0000021017041708020029101F0A3FB0298EF
:10B2C0008DF80F00FFE79DF80F00042818DCFFE75A
:10B2D0009DF80F00013040F08000C0B2002101F065
:10B2E00091FB9DF80F00013040F08000C0B200F0EB
:10B2F000C5F9FFE79DF80F0001308DF80F00E2E778
:10B3000000200190019901F07DFB01988DF80F005C
:10B31000FFE79DF80F00042816DCFFE79DF80F00FB
:10B32000013000F07F00002101F06CFB9DF80F0060
:10B33000013000F07F0000F0A1F9FFE79DF80F0059
:10B3400001308DF80F00E4E704B080BD80B584B013
:10B35000039002208DF80A000398807800F07F00A7
:10B360008DF80B0003989DF80B1045F60412C2F2FD
:10B370000002C43202EBC1014078B1F8013000F0A4
:10B38000030023F00C0343EA8000A1F801000398B6
:10B3900080889DF80B1002EBC101B1F801306FF30A
:10B3A000DF2048F20F0C03EA0C0343EA0010A1F877
:10B3B0000100039880789DF80B1002EBC101B1F8F1
:10B3C000013023F0010343EAD010A1F801000398F3
:10B3D0008178C078019008460199009200F066FAE1
:10B3E0009DF80B00009901EBC000B0F8012042F07D
:10B3F0000202A0F801209DF80A0004B080BD000000
:10B4000080B586B001468DF81600002002909DF8A8
:10B41000160000F07F008DF815009DF8160000065C
:10B42000002825D5FFE79DF8150045F60411C2F266
:10B43000000101EB0010043004909DF81500002875
:10B4400009D1FFE740F61010C4F21800006800F0C0
:10B450007F0002900BE09DF81500400140F61011AE
:10B46000C4F2180108586FF3DF400290FFE724E0B0
:10B470009DF8150045F60411C2F2000101EB001021
:10B48000643004909DF81500002809D1FFE740F6CC
:10B490001030C4F21800006800F07F0002900BE04A
:10B4A0009DF81500400140F61031C4F2180108580B
:10B4B0006FF3DF400290FFE7FFE704980068013078
:10B4C000002804D1FFE701208DF8170030E0049830
:10B4D00080680299401A0390039804990A68101A28
:10B4E0000860039804994A6810444860049800680A
:10B4F000002808DCFFE704984FF0FF3101600120CD
:10B500008DF8170014E09DF8160069460DF106024B
:10B5100000F064FB0098049988609DF8160000997B
:10B52000BDF8062000F0FCFF00208DF81700FFE7B3
:10B530009DF8170006B080BD80B5FFE71020C4F26B
:10B5400018000068C00F002801D1FFE7F6E71020BF
:10B55000C4F21800016841F001010160642003F0A9
:10B5600031FAFFE71020C4F218000068C007002875
:10B5700001D0FFE7F6E780BD1820C4F2180001688B
:10B5800048F238029143016040F60001C4F218010C
:10B590000A680323C0F200131A430A600A6822F4FF
:10B5A000FE620A600A6822F400020A600A6822F059
:10B5B00004020A6040F60401C4F218010A6822F08D
:10B5C00002020A6045F60411C2F20001D1F8F4103B
:10B5D0000268114341F440510160704745F6041080
:10B5E000C2F20000B0F8F800002817D0FFE740F6DC
:10B5F0003000C4F2180001686FF35941016045F64C
:10B600000411C2F20001B1F8FE106FF35F2102686D
:10B6100042EA414141F480310160FFE745F6041000
:10B62000C2F20000B0F8FA00002809D1FFE745F6A1
:10B630000410C2F20000B0F8FC0000281DD0FFE7A3
:10B6400040F63000C4F21800016840F2FC729143E9
:10B65000016045F60411C2F20001B1F8FA20B1F818
:10B66000FC301A435200B1F800116FF35F2142EA37
:10B670008101026811430160FFE7704780B582B025
:10B6800001468DF807009DF8070000F07F008DF857
:10B6900006009DF807000006002868D5FFE79DF822
:10B6A0000600002827D1FFE740F60010C4F218007A
:10B6B000016841F0006101600068C00F002809D0F6
:10B6C000FFE740F60010C4F21800016841F0804125
:10B6D0000160FFE740F60810C4F218000168026834
:10B6E0001143016040F61C00C4F21800016821F00B
:10B6F000010101603AE09DF80600400140F60011AA
:10B70000C4F218010A5842F000620A509DF806007F
:10B7100040010858C00F00280CD0FFE79DF8060034
:10B72000400140F60011C4F218010A5842F080426C
:10B730000A50FFE79DF80600400140F60811C4F2E8
:10B74000180108589DF8062052018B58184388505C
:10B750009DF80600012101FA00F040F61C01C4F238
:10B7600018010A6822EA00000860FFE768E09DF817
:10B770000600002827D1FFE740F60030C4F2180089
:10B78000016841F0006101600068C00F002809D025
:10B79000FFE740F60030C4F21800016841F0804134
:10B7A0000160FFE740F60830C4F218000168026843
:10B7B0001143016040F61C00C4F21800016821F436
:10B7C000803101603BE09DF80600400140F6003109
:10B7D000C4F218010A5842F000620A509DF80600AF
:10B7E00040010858C00F00280CD0FFE79DF8060064
:10B7F000400140F60031C4F218010A5842F090426C
:10B800000A50FFE79DF80600400140F60831C4F2F7
:10B81000180108589DF8062052018B58184388508B
:10B820009DF806001030012101FA00F040F61C01DD
:10B83000C4F218010A6822EA00000860FFE7FFE787
:10B840009DF8060000F040F99DF80700FFF752FC54
:10B8500002B080BD80B582B045F60410C2F200008F
:10B860000421417045F68401C2F2000100200190DC
:10B87000019A019B01F042F8009000F095F902B0A6
:10B8800080BD000080B582B045F60410C2F2000011
:10B890000521417045F6C401C2F20001002001906B
:10B8A000019A019B00F022FF02B080BD81B00A46E0
:10B8B00003468DF803008DF802109DF8030000F098
:10B8C0007F008DF801009DF80300000600286BD56D
:10B8D000FFE79DF80100002827D1FFE79DF802004F
:10B8E00000F0030080049DF8011001F00F0140EA10
:10B8F000815040EAC12040F60011C4F218010A68E4
:10B90000104340F40040086040F60810C4F21800EC
:10B91000016802681143016040F61C00C4F218007F
:10B92000016841F0010101603DE09DF8010045F62C
:10B930000411C2F2000101EBC001B1F8C510C1F35E
:10B940000A119DF8022002F0030241EA824100F050
:10B950000F0241EA8251400140F60012C4F218027F
:10B960001358194348F20003C1F200031943115060
:10B970009DF80100400140F60811C4F21801085872
:10B980009DF8012052018B58184388509DF8010002
:10B99000012101FA00F040F61C01C4F218010A6806
:10B9A00010430860FFE75FE09DF8010000281FD109
:10B9B000FFE79DF8020000F0030040F60031C4F2FA
:10B9C00018010A6842EA804040F40040086040F6EE
:10B9D0000830C4F21800016802681143016040F6A3
:10B9E0001C00C4F21800016841F4803101603AE0A3
:10B9F0009DF8010045F60411C2F2000101EBC001FF
:10BA0000B1F8C510C1F30A119DF8022002F003023B
:10BA100041EA8241400140F60032C4F21802135854
:10BA2000194348F20003C1F20003194311509DF875
:10BA30000100400140F60831C4F2180108589DF891
:10BA4000012052018B58184388509DF80100103096
:10BA5000012101FA00F040F61C01C4F218010A6845
:10BA600010430860FFE7FFE701B0704740F60400AD
:10BA7000C4F21800016841F400710160FFE740F66C
:10BA80000400C4F2180000680007002801D4FFE792
:10BA9000F5E71020C4F21800016841F010010160C0
:10BAA000FFE71020C4F218000068C006002801D586
:10BAB000FFE7F6E740F60400C4F21800016841F41D
:10BAC000806101607047000081B001468DF803007D
:10BAD0001420C4F2180000684006002809D4FFE7CB
:10BAE00040F60400C4F21800016841F080010160D2
:10BAF000FFE7FFE71420C4F21800006840060028A2
:10BB000001D4FFE7F6E7FFE71020C4F21800006851
:10BB1000C00F002801D1FFE7F6E7FFE71020C4F2CD
:10BB2000180000688006002801D5FFE7F6E79DF8B9
:10BB3000030000F01F00800120301021C4F2180122
:10BB40000860FFE71020C4F2180000688006002893
:10BB500001D5FFE7F6E740F60400C4F218000168DB
:10BB600041F48071016001B07047000045F6C400E7
:10BB7000C2F20000704700004C20C4F218000068B8
:10BB8000C0F302100430012101FA00F080B27047C6
:10BB90004C20C4F21800006800F00F000B300121A7
:10BBA00001FA00F07047000040F61030C4F21800AF
:10BBB0001821C6F20801016045F6C400C2F2000077
:10BBC00040F61431C4F21801086040F60030C4F2A7
:10BBD0001800016841F004410160704780B592B0DF
:10BBE00003468DF8470010910F929DF8470000F032
:10BBF0007F008DF83B009DF83B0045F60411C2F232
:10BC0000000101EBC000B0F8C500C0F30A100A90B3
:10BC10009DF84700000600285FD5FFE79DF83B0030
:10BC200045F60411C2F2000101EB001004300D9042
:10BC30009DF83B00002814D1FFE70D9800680B9099
:10BC40000B980A99884203D2FFE70B98099002E00B
:10BC50000A980990FFE709980B900120ADF832008F
:10BC60003AE00D9800680B900B980890FFF790FF52
:10BC70000899814203D2FFE70B98079003E0FFF792
:10BC800087FF0790FFE707980B900B980A99884267
:10BC900003D8FFE70120069007E00B980A990844B3
:10BCA0000138B0FBF1F00690FFE70698ADF83200DE
:10BCB000BDF832000590FFF75FFF059981420ADD6C
:10BCC000FFE7FFF759FFADF83200BDF832000A99DF
:10BCD00048430B90FFE7FFE756E09DF83B0045F631
:10BCE0000411C2F2000101EB001064300D909DF8C8
:10BCF0003B00002806D1FFE70A980B900120ADF821
:10BD0000320040E00D9800680B900B980490FFF70C
:10BD10003FFF0499814203D2FFE70B98039003E0B1
:10BD2000FFF736FF0390FFE703980B900B980A99F3
:10BD3000884203D8FFE70120029007E00B980A9998
:10BD400008440138B0FBF1F00290FFE70298ADF82B
:10BD50003200BDF832000190FFF70EFF01998142D9
:10BD600004DAFFE7BDF83200009003E0FFF704FFBC
:10BD70000090FFE70098ADF83200BDF832000A9954
:10BD800048430B90FFE7FFE70B9810990860BDF858
:10BD900032000F99088012B080BD000080B58EB0CF
:10BDA00045F6C400C2F200000D9045F60410C2F240
:10BDB00000004078013801460428089100F2D18043
:10BDC0000899DFE801F0037D9CBCC5000D98007860
:10BDD000C00600282ED1FFE70D98407801460528BF
:10BDE000079104D0FFE70798092819D021E040F611
:10BDF0000000C4F21800016821F4FE6101600D9991
:10BE0000498801F07F01026842EA0111016045F6AC
:10BE10000410C2F20000017841F01001017008E046
:10BE200045F60410C2F20000017841F020010170D3
:10BE3000FFE7FFE700208DF8280045F60410C2F266
:10BE40000000D0F804010AA9069008460699884720
:10BE500009900998102807D1FFE70D98007800F0A5
:10BE6000800000F0B7FDFFE70998022827D1FFE71F
:10BE70000D98C088002803D1FFE7FFF7EBFC1DE019
:10BE80000D98007800210322B1EBD01F18BF0222C9
:10BE900045F60410C2F200004270407803280CD12D
:10BEA000FFE70D98C28845F6C401C2F200010020E8
:10BEB0000590059B00F01AFCFFE7FFE7FFE751E064
:10BEC0008020FFF79DFA002818D0FFE701208DF8A9
:10BED000280000218DF82C100C918DF82D0045F6CE
:10BEE0000410C2F20000D0F804010AA90490084628
:10BEF000049988470390FFF7C5FCFFE732E0002074
:10BF0000FFF77EFA002819D0FFE701208DF82800FE
:10BF100000208DF82C0045F60411C2F200018A6E53
:10BF20000C928DF82D00D1F804010AA90290084660
:10BF3000029988470190FFF78DFCFFE712E045F674
:10BF40000410C2F2000001214170FFF72DFE09E04C
:10BF500045F60410C2F2000001214170FFF724FEF3
:10BF600000E0FFE70EB080BD80B584B002900220F3
:10BF70008DF807000298002804D1FFE704208DF80F
:10BF80000F001FE045F60410C2F20000002101700E
:10BF9000417002990A684B68D1F808C0D1F80CE0EA
:10BFA0000969C0F80411C0F800E1C0F8FCC0C0F88D
:10BFB000F830C0F8F42000F005FC9DF807008DF87B
:10BFC0000F00FFE79DF80F0004B080BD80B592B070
:10BFD00011901420C4F218000168109100210E91F4
:10BFE0000D9110990268114301609DF84100C0064F
:10BFF000002859D5FFE740F60030C4F21800016868
:10C0000041F00061016000200F90FFE70F980428C5
:10C010000FD8FFE70F98400140F62031C4F2180115
:10C020000A5842F000620A50FFE70F9801300F9063
:10C03000ECE700F04FFB40F61C00C4F2180001686A
:10C0400041F00111016040F61000C4F218000168CF
:10C0500041F00D01016040F61400C4F218000168BF
:10C0600041F22D121143016040F60000C4F21800A5
:10C07000016821F4FE6101601820C4F21800016813
:10C0800041F44021016002208DF8280045F604109B
:10C09000C2F20000D0F804110AAA0790104688479F
:10C0A0000621079A1170FFE79DF8410080060028DD
:10C0B0002ED5FFE745F60410C2F2000001214170C1
:10C0C00040F60011C4F218010A6822F003020A6067
:10C0D00040F60031C4F218010A6842F000420A60DA
:10C0E0000690FFF761FD0698B0F8C51041F0020117
:10C0F000A0F8C510B0F8C51048F20F02114001F5C4
:10C100008061A0F8C510017841F008010170FFE7D7
:10C110009DF842004007002840F19780FFE745F670
:10C120000410C2F2000000780007002840F18D8062
:10C13000FFE740F61800C4F21800006840F61C0142
:10C14000C4F21801096808400D9000200990BDF85C
:10C1500034100D910990FFE70998052874D8FFE77E
:10C160000D980999C840C007002868D0FFE70998D2
:10C17000002830D1FFE740F60810C4F2180000682C
:10C180000E909DF83800C00700281DD0FFE745F647
:10C190000410C2F200004078012814D0FFE745F6F1
:10C1A0000410C2F200004078022809D1FFE79DF890
:10C1B000240040F08000FFF723F9002803D0FFE7B8
:10C1C000FFF7ECFDFFE7FFE70E9840F60811C4F219
:10C1D0001801086032E00998400140F60811C4F2E5
:10C1E000180108580E900E98099A520188509DF82F
:10C1F0003800C007002820D0FFE79DF8240040F059
:10C200008000FFF7FDF8002816D0FFE701208DF829
:10C21000280009998DF82C1000210C918DF82D0023
:10C2200045F60410C2F20000D0F804010AA90590F6
:10C23000084605998847FFE7FFE7FFE7FFE7FFE7C5
:10C2400009980130099087E7FFE79DF84200000751
:10C25000002840F19D80FFE745F60410C2F200007F
:10C2600000780007002840F19380FFE740F61800AF
:10C27000C4F21800006840F61C01C4F218010968F5
:10C2800008400D9000200890BDF836100D910890E0
:10C29000FFE7089805287AD8FFE70D980899C84065
:10C2A000C00700286ED0FFE7089800282BD1FFE7D1
:10C2B00040F60830C4F2180001680E910E99016032
:10C2C0009DF838000007002809D5FFE745F604105F
:10C2D000C2F2000001214170FFF760FD12E09DF8FD
:10C2E0003800C00700280CD0FFE745F60410C2F262
:10C2F00000004078012803D0FFE7FFF74FFDFFE77C
:10C30000FFE7FFE73DE00898400140F60831C4F23E
:10C31000180108580E900E98089A520188509DF8FE
:10C320003800C00700282BD0FFE7089800F07F00F6
:10C33000FEF72AFF002808D1FFE7089800F07F00E9
:10C34000FFF75EF800281AD0FFE701208DF82800DB
:10C3500008988DF82C00089845F60411C2F20001E7
:10C3600001EB0010806E0C9000208DF82D00D1F8AC
:10C3700004010AA90490084604998847FFE7FFE7EB
:10C38000FFE7FFE7FFE708980130089081E7FFE744
:10C390009DF840000007002822D5FFE745F604106D
:10C3A000C2F2000090F8F4000007002818D5FFE75B
:10C3B00045F60410C2F200000078000700280FD5EF
:10C3C000FFE703208DF8280045F60410C2F20000B4
:10C3D000D0F804010AA90390084603998847FFE7AB
:10C3E0009DF84100000700281FD5FFE745F604101F
:10C3F000C2F2000000780007002816D5FFE745F6D6
:10C400000410C2F20000017841F006010170012120
:10C410000290084600F03CF904208DF828000298AC
:10C42000D0F804110AA88847FFE79DF843000006EA
:10C4300000281FD5FFE745F60410C2F2000000787F
:10C440000007002816D5FFE745F60410C2F20000E9
:10C45000017801F0F901017000210190084600F017
:10C4600017F905208DF828000198D0F804110AA8C2
:10C470008847FFE7002012B080BD000083B001466E
:10C480008DF80A009DF80A0000F07F008DF8090081
:10C490009DF8090000280BD1FFE740F60010C4F218
:10C4A0001800019040F60030C4F21800009012E02D
:10C4B0009DF8090040F60011C4F2180101EB40108C
:10C4C00001909DF8090040F60031C4F2180101EB1B
:10C4D00040100090FFE79DF80A00000600280BD5E9
:10C4E000FFE7019800688002002804D5FFE70120DB
:10C4F0008DF80B000FE00AE0009800688002002829
:10C5000004D5FFE701208DF80B0004E0FFE70020D1
:10C510008DF80B00FFE79DF80B0003B0704700009B
:10C5200083B0134684468DF80B000191ADF80220CC
:10C530009DF80B0000F07F008DF801009DF80B00C6
:10C540000006002865D5FFE79DF80100002817D1F7
:10C55000FFE7019800F07F00BDF8021001F0030131
:10C5600040EAC14040F61011C4F21801086040F6DC
:10C570000010C4F21800016841F00441016047E076
:10C5800001986FF3DF40BDF802106FF39F2140EA7E
:10C59000C14000F100509DF80110490140F6101211
:10C5A000C4F2180250509DF80100400140F60011FD
:10C5B000C4F218010858C0F3814001281BD1FFE7DD
:10C5C00040F60800C4F218000068C0054FF00051A2
:10C5D000002848BF4FF080519DF801004FEA4010FD
:10C5E00040F60012C4F21802135841EA030141F068
:10C5F000044111500BE09DF80100400140F600118C
:10C60000C4F218010A5842F004420A50FFE7FFE75B
:10C610003CE09DF8010000281AD1FFE7019800F0E6
:10C620007F0000F50021BDF80220002A18BF08464F
:10C6300000F1C04040F61031C4F21801086040F625
:10C640000030C4F21800016841F0044101601CE0B0
:10C6500001986FF3DF40BDF802106FF39F2140EAAD
:10C66000C1409DF80110490140F61032C4F2180291
:10C6700050509DF80100400140F60031C4F218010D
:10C680000A5842F004420A50FFE7FFE703B0704740
:10C6900080B582B001468DF807009DF8070001289B
:10C6A00009D1FFE740F60060C4F21800016841F0CC
:10C6B0000101016008E040F60400C4F218000168BE
:10C6C00021F001010160FFE7142002F07BF902B0C4
:10C6D00080BD000080B51020FFF7F6F9FFF7C6F91E
:10C6E000FEF7E0FD00F0B0F880BD000080B588B036
:10C6F000944686468DF81E000691ADF816200493E8
:10C7000002208DF807009DF81E0000F07F008DF8D4
:10C710000F009DF80F00052806DCFFE79DF81800C4
:10C720008007002804D0FFE704208DF81F0044E0B4
:10C730009DF80F00002809D1FFE740F60030C4F251
:10C740001800006800F4004002900BE09DF80F0014
:10C75000400140F60031C4F21801085800F40040CE
:10C760000290FFE70298002804D1FFE708208DF827
:10C770001F0022E04C20F3F79FFE40B200F086FB42
:10C7800000901A200021F3F7F3FD9DF81E0000F041
:10C790007F000699BDF81620049B00F0D1F900999E
:10C7A000002905D0FFE71A200121F3F7E1FDFFE79B
:10C7B0009DF807008DF81F00FFE79DF81F0008B0E7
:10C7C00080BD000080B582B00C20C4F21800016862
:10C7D00041F0400101600190FEF7AEFE0820C4F276
:10C7E0001800016841F0270101600198016843F6D3
:10C7F000084291430268114342F20842114301602A
:10C800001821C4F218010A6842F006020A6000F01A
:10C810006DF91020FFF758F9FFF728F9FEF7ACFE85
:10C820001420C4F21800016802681143016004205A
:10C83000C4F21800016802681143016000F004F8B6
:10C84000FEF7CCFE02B080BD81B000208DF8030061
:10C85000FFE79DF80300052822DCFFE79DF80300B1
:10C86000000145F60411C2F2000104314FF0FF321D
:10C870000A509DF8030001EB0010002242609DF871
:10C88000030001EB001082609DF8030001EB001033
:10C89000C260FFE79DF8030001308DF80300D8E780
:10C8A00000208DF80300FFE79DF80300052822DC37
:10C8B000FFE79DF80300000145F60411C2F20001F4
:10C8C00064314FF0FF320A509DF8030001EB001075
:10C8D000002242609DF8030001EB001082609DF889
:10C8E000030001EB0010C260FFE79DF80300013078
:10C8F0008DF80300D8E701B07047000080B588B01C
:10C90000944686468DF81E000691ADF816200493D5
:10C9100002208DF807009DF81E0000F07F008DF8C2
:10C920000F009DF80F00052806DCFFE79DF81800B2
:10C930008007002804D0FFE704208DF81F0044E0A2
:10C940009DF80F00002809D1FFE740F60010C4F25F
:10C950001800006800F4004002900BE09DF80F0002
:10C96000400140F60011C4F21801085800F40040DC
:10C970000290FFE70298002804D1FFE708208DF815
:10C980001F0022E04C20F3F797FD40B200F07EFA42
:10C9900000901A200021F3F7EBFC9DF81E0040F0F8
:10C9A00080000699BDF81620049B00F0C9F8009994
:10C9B000002905D0FFE71A200121F3F7D9FCFFE792
:10C9C0009DF807008DF81F00FFE79DF81F0008B0D5
:10C9D00080BD000080B584B001468DF80F009DF841
:10C9E0000F00012202911146019200F00BF845F66A
:10C9F0000410C2F2000001994170FFF7D5F804B0AD
:10CA000080BD000080B584B00A4603468DF80F0053
:10CA10008DF80E109DF80F0000F07F008DF80D00CE
:10CA20009DF80D0000280BD1FFE740F60010C4F27E
:10CA30001800029040F60030C4F21800019012E095
:10CA40009DF80D0040F60011C4F2180101EB4010F2
:10CA500002909DF80D0040F60031C4F2180101EB80
:10CA600040100190FFE79DF80F000006002829D52F
:10CA7000FFE79DF80E00012818D1FFE70298006833
:10CA8000C00F002808D0FFE7029801680022C4F216
:10CA900020021143016005E00298016841F4001191
:10CAA0000160FFE71020FFF70FF80AE00298016825
:10CAB00021F4001101600298016841F08051016089
:10CAC000FFE711E09DF80E00012806D1FFE701986D
:10CAD000016841F40011016005E00198016821F44A
:10CAE00000110160FFE7FFE704B080BD82B02420A1
:10CAF000C4F21800402101600191019840F4001037
:10CB00002821C4F21801086000200090FFE7009877
:10CB1000042812D8FFE7019820300190019840F4D2
:10CB20000010009940F20412C4F2180242F82100E9
:10CB3000FFE7009801300090E9E702B0704700007D
:10CB400080B58AB0944686468DF827000891ADF8E6
:10CB50001E2006939DF8270000F07F008DF8170037
:10CB60009DF827000006002821D5FFE79DF8170053
:10CB700045F60411C2F2000101EB001004300490EC
:10CB80009DF81700002807D1FFE7089840F6141118
:10CB9000C4F21801086009E008989DF817104901CF
:10CBA00040F61412C4F218025050FFE720E09DF83E
:10CBB000170045F60411C2F2000101EB00106430C9
:10CBC00004909DF81700002807D1FFE7089840F669
:10CBD0001431C4F21801086009E008989DF8171094
:10CBE000490140F61432C4F218025050FFE7FFE743
:10CBF000049800680130002801D0FFE7FFE7BDF886
:10CC00001E00049908600498002141600698049A67
:10CC1000D0609DF8270002AA0DF10E030191114684
:10CC20001A46FEF7DBFF0298049988609DF82700FA
:10CC30000299BDF80E20FFF773FC01980AB080BD81
:10CC400080B582B045F21460C2F2000001900198F4
:10CC5000012101610198416101984FF68C61C0F298
:10CC600002218161019845F26C62C2F20002C26148
:10CC700001984FF4FA7202620198002282620198D0
:10CC800042620198C26201980163019845F25C61B9
:10CC9000C2F200014163019810218163019802648E
:10CCA0000198C26301984264019807304FF6886189
:10CCB000C0F20221FDF73AFABFF35F8F01994FF6F8
:10CCC0008162C0F20222009008461146FDF72EFA5A
:10CCD000BFF35F8F019920228A71BFF35F8F02B08B
:10CCE00080BD000084B0039003980069029003980F
:10CCF000C068019002980199884209D8FFE703981B
:10CD000080680199401A029908440138009005E0B2
:10CD100002980199C94308440090FFE7009804B0C5
:10CD20007047000080B58AB00990089107920020F2
:10CD300005900998C0680390FFE70998006904907E
:10CD400004980399884206D9FFE704980399C943D8
:10CD50000844069008E0099880680399049A891AA3
:10CD6000C94308440690FFE7069809998968039A21
:10CD7000891A884203D2FFE70698029005E00998D5
:10CD800080680399401A0290FFE70298069006987F
:10CD90000799884203D2FFE70698019002E00798BE
:10CDA0000190FFE7019806900998406803990844AC
:10CDB0000899069AFDF789F90699059A1144059193
:10CDC0000699089A114408910699079A511A0791F1
:10CDD0000699039A114403910399099A9268914222
:10CDE00003D1FFE700200390FFE7BFF35F8F0398B5
:10CDF0000999C860FFE7079800289ED1FFE70598CA
:10CE00000AB080BD80B588B007900691059207985A
:10CE1000C0680390079880680399401A02900298AE
:10CE20000599884210D9FFE707984068039908449C
:10CE30000699059AFDF749F9BFF35F8F0399059AA3
:10CE40001144079AD1601FE0029804900798406847
:10CE5000039908440699049AFDF737F90599029A4F
:10CE6000891A049107994968069A029B1A44049BFF
:10CE70000190084611461A46FDF727F9BFF35F8F68
:10CE80000499079AD160FFE708B080BD82B00146DF
:10CE90008DF803009DF90300002812D4FFE79DF9E7
:10CEA000030040094EF20011CEF2000151F82000BB
:10CEB0009DF8031001F01F01C84000F0010001902F
:10CEC00002E000200190FFE7019802B070470000E7
:10CED00080B582B002468DF8060000919DF80600EC
:10CEE0000A2804DCFFE700208DF8070012E0009913
:10CEF00045F2E740C2F200000B22FDF70AF90028D4
:10CF000004D1FFE701208DF8070003E000208DF831
:10CF10000700FFE79DF8070002B080BD87B00590CD
:10CF2000049103920498C0000399B0FBF1F00290C1
:10CF30000298C009019001980299A1EBC0100290DB
:10CF40000298013040080090019805994862BDF8A8
:10CF50000600002804D1FFE70198002804D1FFE76C
:10CF60004FF0FF30069018E001984FF6FF718842AD
:10CF700004D1FFE705980021816207E0019802993A
:10CF8000081A0290009805998862FFE70598C06A20
:10CF90000599C86200200690FFE7069807B0704721
:10CFA00081B0009000988069C0F3401001B07047D4
:10CFB00080B586B004900391029204980021016329
:10CFC0000498416404988163049841600498416224
:10CFD000049881620498C16204980399CA68096937
:10CFE00001911146019AFFF799FF002804D0FFE74D
:10CFF0004FF0FF30059032E0039801784278837853
:10D00000C0784FF0800C0CEA421C4CEA411141EA16
:10D01000031141EAC00002F0030140EA4100049913
:10D02000C8620398B0F80900000400BA0499486384
:10D03000029804998863039801794279837990F87A
:10D0400007C0490241EA0221194441EACC31007A81
:10D0500041EA80300499086300200590FFE70598B5
:10D0600006B080BD80B582B0FDF7AEFE4FF6080178
:10D07000C0F2022101900846F3F7A6FA01F0ACFED7
:10D0800045F61D20C2F2000002F078F802200021CF
:10D090000091F3F7C5F8009802B080BD10B586B0D6
:10D0A0009C468E4604468DF81700ADF81410049285
:10D0B000ADF80E3004980078A72820D1FFE7049837
:10D0C000BDF80E100DF1060201F0F2FB029002987D
:10D0D000811CBDF8062045F2D450C2F20000FCF7D6
:10D0E000F4FF009000F03AFD002807D0FFE74FF66C
:10D0F0004F60C0F20220F3F7C9F9FFE7FFE706B07F
:10D1000010BD000045F20850C2F2000000787047E0
:10D1100080B582B04FF400000190FDF7D9FBFEF717
:10D12000A9F80198FDF7EEFE002000900099FDF7A8
:10D1300027FF02B080BD000080B5B6B03590022058
:10D14000339035980078014605282D9100F2E4844B
:10D150002D99DFE811F04C00AD03060024002600F5
:10D1600039004FF21860C0F20220407945F2106198
:10D17000C2F20001087045F61420C2F2000000223D
:10D18000027042708270086840F4807008604FF648
:10D19000E560C0F20220F3F779F900F0BEBC00F0C0
:10D1A000BCBC45F20C50C2F200000021417045F2B7
:10D1B0000C60C2F2000041704FF60F70C0F2022006
:10D1C000F3F764F900F0A9BC45F20C50C2F200007C
:10D1D0000021417045F20C60C2F2000041704FF630
:10D1E000D660C0F20220F3F751F900F096BCFEF7CA
:10D1F000BDFC32903298007800F01F0001460028F4
:10D200002C910AD0FFE72C98012800F04F81FFE70E
:10D210002C98022800F000833DE3329840780146C4
:10D2200009282B9100F23E812B99DFE811F00D01C6
:10D230000D003B0121003B010A0076003B01270164
:10D2400035000220339030E13298408845F2106179
:10D25000C2F200010A6822F48072000702F58073AE
:10D26000002818BF13460B604FF0020033901CE1FA
:10D270003298408845F21061C2F200010A6822F437
:10D280008072000702F58073002818BF1A460A60F2
:10D290004FF00200339008E1329840888DF8C700C3
:10D2A0009DF8C70045F21061C2F2000108704FF20C
:10D2B0001860C0F2022040799DF8C71088422AD138
:10D2C000FFE74FF21860C0F2022000F11B012A9024
:10D2D0000846FEF73BF83399084333902A983430D8
:10D2E000FEF734F83399084333902A983B30FEF721
:10D2F0002DF83399084333902A985430FEF726F8D6
:10D300003399084333902A985B30FEF71FF833991E
:10D310000843339000E0FFE7C7E032984088010AF5
:10D320000122B2EB102F299108D0FFE7299802289B
:10D3300024D0FFE72998032840D081E012203490C0
:10D340003298C0883499884204D2FFE73298C08866
:10D35000289002E034982890FFE728983490BDF890
:10D36000D0204FF27C61C0F2022100202790279B41
:10D37000FFF7C4FA33990843339064E06220349095
:10D380003298C0883499884204D2FFE73298C08826
:10D39000269002E034982690FFE726983490BDF856
:10D3A000D0204FF21861C0F2022100202590259B69
:10D3B000FFF7A4FA33990843339044E03298807819
:10D3C00001460028249108D0FFE7249801280CD0BA
:10D3D000FFE72498022810D017E0042034904FF281
:10D3E000CC70C0F2022030900FE0122034904FF247
:10D3F000D070C0F20220309007E0182034904FF235
:10D40000E470C0F202203090FFE73298C08834996F
:10D41000884204D2FFE73298C088239002E0349813
:10D420002390FFE7239834903099BDF8D020002056
:10D430002290229BFFF762FA33990843339002E06F
:10D4400010203390FFE730E045F21060C2F2000098
:10D450000068022101EAD01045F29052C2F20002A7
:10D46000107000205070219020911146209A219B2D
:10D47000FFF744FA33990843339016E045F2106001
:10D48000C2F20000006845F29051C2F2000108703B
:10D49000012200201F901F9BFFF730FA33990843A9
:10D4A000339002E010203390FFE7F7E132980078E4
:10D4B000C0F34110014600281E9105D0FFE71E98D9
:10D4C000012800F03181A3E1329840780146062816
:10D4D0001D910AD0FFE71D980A2800F0A780FFE7FA
:10D4E0001D980B2800F0F1801AE13298C0782228AC
:10D4F00040F09880FFE732988088014600281C9110
:10D5000008D0FFE71C9801282AD0FFE71C980228C2
:10D5100055D083E0442034903298C08834998842B2
:10D5200004D2FFE73298C0881B9002E034981B9029
:10D53000FFE71B983490BDF8D0204FF26471C0F221
:10D54000022100201A901A9BFFF7D8F9339908435B
:10D55000339045F2D450C2F200001A99017260E093
:10D56000222034903298C0883499884204D2FFE750
:10D570003298C088199002E034981990FFE7199802
:10D580003490BDF8D0204FF2A871C0F202210020E3
:10D590001890189BFFF7B2F933990843339045F27E
:10D5A0000C60C2F200000121017032988188349A27
:10D5B0004FF6F060C0F20220F2F768FF31E0D320AE
:10D5C00034903298C0883499884204D2FFE7329868
:10D5D000C088179002E034981790FFE717983490AE
:10D5E000BDF8D0204FF29061C0F2022100201690C9
:10D5F000169BFFF783F933990843339045F20C509B
:10D60000C2F200000121017032988188349A4FF6ED
:10D61000F060C0F20220F2F739FF02E010203390F0
:10D62000FFE702E010203390FFE77CE0329880882B
:10D6300001460028159108D0FFE71598012818D059
:10D64000FFE71598022828D03BE045F61420C2F2E7
:10D650000000007845F29051C2F2000108700122EA
:10D6600000201490149BFFF749F933990843339035
:10D670002AE045F61420C2F20000407845F29051AD
:10D68000C2F200010870012200201390139BFFF7E3
:10D6900035F933990843339016E045F61420C2F269
:10D6A0000000807845F29051C2F20001087001221A
:10D6B00000201290129BFFF721F933990843339011
:10D6C00002E010203390FFE72DE032988088014679
:10D6D0000028119108D0FFE7119801280CD0FFE72E
:10D6E0001198022810D017E03298807845F614215E
:10D6F000C2F20001087012E03298807845F61421D9
:10D70000C2F2000148700AE03298807845F6142190
:10D71000C2F20001887002E010203390FFE702E0BF
:10D7200010203390FFE776E03298407801460128D8
:10D73000109108D0FFE71098092821D0FFE7109832
:10D740000A284BD060E03298C078012814D1FFE756
:10D750003298808800280BD1FFE745F2D451C2F2FD
:10D760000001082200200F900F9BFFF7C7F802E08E
:10D7700010203390FFE702E010203390FFE746E0EF
:10D7800032984088010A0222B2EB102F0E9104D089
:10D79000FFE70E98032816D01CE0329880880028F6
:10D7A0000DD1FFE73298C088012807D1FFE745F285
:10D7B000D450C2F2000001218172FFE702E0102084
:10D7C0003390FFE709E04FF61870C0F20220F2F73D
:10D7D0005DFE02E010203390FFE718E03298808869
:10D7E000014600280D9108D0FFE70D98012805D0CB
:10D7F000FFE70D98022802D002E004E003E002E017
:10D8000010203390FFE702E010203390FFE702E0A2
:10D8100010203390FFE741E032984078014600281D
:10D820000C9108D0FFE70C9801281CD0FFE70C985A
:10D83000032822D02BE0329880888DF8BF009DF815
:10D84000BF00FEF71BFE45F29051C2F200010870C6
:10D850000020487002220B900B9BFFF74FF8339982
:10D860000843339016E0329880888DF8BE009DF80A
:10D87000BE000021FFF7C6F80CE0329880888DF8D2
:10D88000BD009DF8BD000121FFF7BCF802E01020AB
:10D890003390FFE702E010203390FFE7339802282F
:10D8A00005D0FFE73398102801D0FFE7FFE734E108
:10D8B00035984079014600280A9105D0FFE70A987B
:10D8C000012800F0B88025E13598007900281CD1A6
:10D8D000FFE7FEF74BF92E9045F2D450C2F200005C
:10D8E000807A002810D0FFE745F2D450C2F2000041
:10D8F000002181722E990978417245F20C50C2F2D2
:10D90000000001214170FFE7FFE735980079052805
:10D9100078D1FFE745F20C50C2F2000001214170BE
:10D9200045F21050C2F20000007801460228099129
:10D930003ED0FFE70998032828D0FFE7099804287C
:10D940002DD0FFE70998062817D0FFE709983F2850
:10D9500004D0FFE70998AA2833D045E035988068BD
:10D96000013845F21051C2F20001013180B2089035
:10D970000846089900F0D4F840E03598816845F2EF
:10D980001050C2F20000F2F753FF37E0359881687B
:10D9900045F21050C2F20000F2F74AFF2EE035982F
:10D9A000816845F21050C2F20000F2F741FF25E015
:10D9B0003598816845F21050C2F20000F2F738FF46
:10D9C0001CE04FF21860C0F2022090F85610B0F838
:10D9D000582045F21050C2F200000023079008467C
:10D9E0000799FEF78BFF09E035988068411E4FF6D6
:10D9F0002570C0F20220F2F749FDFFE7022000F097
:10DA0000B1F917E035980079032812D1FFE745F204
:10DA10000C60C2F20000012141703598018945F285
:10DA20001050C2F2000000F045F9022000F004FAA4
:10DA3000FFE7FFE76FE035980079002820D1FFE786
:10DA400045F20C50C2F200000078012818D1FFE71F
:10DA500045F20C50C2F20000002101700121069035
:10DA60000846059100F07EF90599069A51704FF627
:10DA7000BF63C0F2022304901846F2F707FDFFE7E8
:10DA800035980079002820D1FFE745F20C60C2F2FA
:10DA900000000078012818D1FFE745F20C60C2F2BF
:10DAA000000000210170012103900846029100F05E
:10DAB000C3F90299039A51704FF6A863C0F202238A
:10DAC00001901846F2F7E2FCFFE73598007901462D
:10DAD0000128009108D0FFE7009802280BD0FFE74B
:10DAE000009804280ED014E045F2D450C2F2000091
:10DAF000002101720DE045F20C60C2F2000000212D
:10DB0000817006E045F20C50C2F2000000218170E5
:10DB1000FFE700E0FFE700E0FFE7339836B080BDA5
:10DB200080B584B00A460390ADF80A1045F620206F
:10DB3000C2F20000006800280ED0FFE745F6202062
:10DB4000C2F2000000680399BDF80A20019008465F
:10DB50001146019A9047FFE704B080BD80B582B0BE
:10DB600045F2D450C2F20000007A012804D1FFE748
:10DB700002208DF807001FE045F2D450C2F20000E9
:10DB8000012101724FF21861C0F20221497F08227F
:10DB90000023009008460099FEF7B0FE022807D047
:10DBA000FFE745F2D450C2F2000000210172FFE706
:10DBB00000208DF80700FFE79DF8070002B080BD48
:10DBC00080B584B0134684468DF80E000291ADF8FE
:10DBD000062045F20C50C2F200004078002804D123
:10DBE000FFE701208DF80F005FE045F20C50C2F214
:10DBF00000008078002804D0FFE702208DF80F0095
:10DC000053E0029800280AD0FFE7BDF8060000287C
:10DC100005D0FFE7BDF80600402804DBFFE703203E
:10DC20008DF80F0041E000208DF8050045F20C5002
:10DC3000C2F20000012181709DF80E000299BDF82A
:10DC4000062000F0ADF88DF804009DF804000146B0
:10DC50000228009108D0FFE70098042808D0FFE7C9
:10DC60000098082808D00BE000208DF805000BE094
:10DC700005208DF8050007E004208DF8050003E07D
:10DC800006208DF80500FFE79DF80500002807D065
:10DC9000FFE745F20C50C2F2000000218170FFE75F
:10DCA0009DF805008DF80F00FFE79DF80F0004B008
:10DCB00080BD000080B584B00A460390ADF80A101C
:10DCC00045F62420C2F20000006800280ED0FFE7CD
:10DCD00045F62420C2F2000000680399BDF80A202E
:10DCE000019008461146019A9047FFE704B080BDB5
:10DCF00080B588B04FF40000FCF7EAFDFCF7D0FFD8
:10DD000049F68171C1F25E61A0FB0101890D0290AB
:10DD10000846FDF7C9F84BF6CD71C0F202211A2072
:10DD200000220192F2F756FC10201121FCF7E8FBCB
:10DD3000012100900846FDF723F90198079006900D
:10DD400005900490039040F60001C8F20001039191
:10DD50004DF23911C0F20221079103A8FEF704F930
:10DD600008B080BD80B584B001468DF80F0045F243
:10DD70001050C2F200004022029001911146FCF7BF
:10DD8000BDF94FF21860C0F2022090F85D10B0F8B3
:10DD90005F20022308460299FEF7A8FC04B080BD6C
:10DDA00080B588B0134684468DF81F000691ADF803
:10DDB00016209DF81F0045F25051C2F2000101F8F3
:10DDC000010B0698BDF816200490084604990393A9
:10DDD000CDF808C0FCF779F9BDF8161001318DF8BF
:10DDE00015109DF815104FF21862C0F20222B2F819
:10DDF0005820914204DCFFE79DF81500019007E0F0
:10DE00004FF21860C0F20220B0F858000190FFE70E
:10DE100001988DF815004FF21860C0F2022090F8BA
:10DE200056009DF8152045F25051C2F20001002322
:10DE3000FEF764FD08B080BD80B584B001468DF862
:10DE40000F0045F21050C2F20000402202900191F2
:10DE50001146FCF753F94FF21860C0F2022090F817
:10DE60003D10B0F83F20002308460299FEF73EFC23
:10DE700004B080BD10B584B09C468E4604468DF833
:10DE80000F00ADF80C100292ADF806300298007841
:10DE9000A0280FD1FFE7029800F01AFD8078002833
:10DEA00001D0FFE706E04FF67C60C0F20220F2F7F7
:10DEB000EDFAFFE704B010BD81B0009000988078C3
:10DEC00001B0704783B00290019100200090FFE7FD
:10DED0000198411E0191002808D0FFE70298011D1A
:10DEE00002910068009908440090F1E7009803B09F
:10DEF0007047000080B541F20000C0F2002092217E
:10DF0000FFF7E0FF80BD000080B582B00190009176
:10DF10000198016842684FF66740C0F20220F2F7AC
:10DF2000B5FAFFE7FEE7000070B588B007900691EC
:10DF3000079881694269C369D0F800C0D0F804E04D
:10DF40008468C56800696E463061F560B460C6F8E3
:10DF500004E0C6F800C04FF6D630C0F20220F2F757
:10DF600095FAFFE7FEE7000080B582B001900091CE
:10DF700001994FF64240C0F20220F2F787FAFFE71C
:10DF8000FEE7000080B582B001900091FFE741F20A
:10DF90000000C4F20100FFF703F8012801D1FFE7F8
:10DFA000F5E70198017841F20000C4F20100FDF7A5
:10DFB00095F8002002B080BD80B588B0079006912A
:10DFC0004EF60450CEF2000000686FF35F20B0FA06
:10DFD00080F040098DF813009DF81300002805D04B
:10DFE000FFE7F2F7F1F9406B8047FFE70020FCF70D
:10DFF00099FB059007980189408908440599884252
:10E0000013DAFFE707980168028900200390FCF704
:10E010009FFB07994A684989039B02901846019122
:10E020001146019AFCF794FBFFE79DF813000028C6
:10E0300005D0FFE7F2F7C8F9806B8047FFE70020C3
:10E0400008B080BD10B58AB09C468E4604468DF857
:10E050002700ADF824100892ADF81E30089800781B
:10E060000146A028049130D0FFE70498A22869D186
:10E07000FFE7089800F016FC069006980088ADF8B7
:10E080001C00242001F092FA0590BDF81C0045F612
:10E090006401C2F2000151F82000006A8069059A0B
:10E0A00010600598BDF81C2051F82210096A88619B
:10E0B0000598002101620598C16105980430069910
:10E0C00002311822FCF701F83CE0089800F006FC49
:10E0D0000088ADF81C00089800F000FC807800284B
:10E0E00020D0FFE7BDF81C0045F66401C2F2000134
:10E0F00051F820004268836AC06ADDF820C00390AE
:10E10000604602910192009300F0E8FB827801984A
:10E110000399009B9847BDF81C000021029A42F821
:10E1200020100FE0BDF81C0045F66401C2F20001AA
:10E1300051F82000016A89694162BDF81C0000F0B5
:10E140004BF9FFE70AB010BD80B588B00790069183
:10E1500003208DF8040000208DF8050001218DF8C2
:10E1600006108DF807008DF808108DF809108DF84D
:10E170000A108DF80B008DF80C008DF80D108DF83D
:10E180000E10079904910699059141F20001C4F21D
:10E19000010101AA009008461146009AFEF708FF07
:10E1A00008B080BD80B596B0159014911392FFE72A
:10E1B0001398012832DBFFE700200290FFE7139855
:10E1C00000210128019107DBFFE7029800211028B8
:10E1D00038BF01210191FFE70198C007002811D045
:10E1E000FFE7149800F024FC029903AA42F82100EA
:10E1F000029801300290139801381390149804305B
:10E200001490DCE7159802998A0003A901F022F91D
:10E210000299159A02EB81011591C9E716B080BDEC
:10E2200010B58AB09C468E4604468DF82700ADF89E
:10E2300024100892ADF81E30089800780146A028F6
:10E2400004912BD0FFE70498A4287DD1FFE708981C
:10E2500000F022FB069006980088ADF81C001820FC
:10E2600001F0A4F90590BDF81C0045F66401C2F266
:10E27000000151F82000406A006A059A1060059874
:10E28000BDF81C2051F82210496A08620598043034
:10E29000069902311222FBF718FF55E0089800F0AA
:10E2A0001DFB0088ADF81C00089800F017FB807873
:10E2B000002820D0FFE7BDF81C0045F66401C2F23B
:10E2C000000151F820004268836AC06ADDF820C06E
:10E2D0000390604602910192009300F0FFFA827869
:10E2E00001980399009B9847BDF81C000021029AF1
:10E2F00042F8201028E0BDF81C0045F66401C2F287
:10E30000000151F82000426A12684262BDF81C0008
:10E3100051F82000406A002805D0FFE7BDF81C0036
:10E3200000F05AF80FE0BDF81C0045F66401C2F297
:10E33000000151F82000016A09680162BDF81C0063
:10E3400000F004F8FFE7FFE70AB010BD80B586B023
:10E350000146ADF81600BDF8160045F66402C2F29B
:10E36000000252F82000006A002815D0FFE7BDF82F
:10E37000160045F66401C2F2000151F82010096A46
:10E380008A88CB884EF24501C0F2022104900846EB
:10E390000499D9F76EFF1CE0BDF8160045F664013C
:10E3A000C2F2000151F820004268836AC06A4FF04F
:10E3B000000C03901046039A029111466246CDF874
:10E3C00004C09847BDF816000199029A42F820103F
:10E3D000FFE706B080BD000080B582B00146ADF811
:10E3E0000600FFE7BDF8060045F66401C2F2000131
:10E3F00051F82000406A00281BD0FFE7BDF8060056
:10E4000045F66401C2F2000151F82000406A01891A
:10E41000C088814201DDFFE70BE0BDF8060045F64C
:10E420006401C2F2000151F82000416A09684162AA
:10E43000D8E7BDF8060045F66401C2F2000151F8C4
:10E440002000406A002814D0FFE7BDF8060045F61A
:10E450006401C2F2000151F82010496A0A1D4EF20F
:10E460002121C0F20221009008460099D9F791FEBF
:10E470000FE0BDF8060045F66401C2F2000151F854
:10E480002000016A09680162BDF80600FFF75EFF1F
:10E49000FFE702B080BD000080B582B001904FF070
:10E4A000FF30009001986946042200F0B3FA02B0F0
:10E4B00080BD000010B586B09C468E4604468DF89F
:10E4C0001700ADF814100492ADF80E3004980078DF
:10E4D000A72819D1FFE70498BDF80E100DF1060228
:10E4E00000F0E6F902900298811C06201F22FFF737
:10E4F00067FB002807D0FFE74FF66560C0F20220F7
:10E50000F1F7C4FFFFE7FFE706B010BD80B588B0A4
:10E510000A4603468DF817008DF81610EFF31080A9
:10E52000069006980490EFF3108072B6079040F2C0
:10E53000C97002920193804740F64D008047ADF8C4
:10E540000E00BDF80E00ADF80C00BDF80E004BF645
:10E5500083710840ADF80E009DF8160080039DF809
:10E56000171040EA8100BDF80E100843ADF80E0008
:10E57000BDF80C00BDF80E10884206D0FFE7BDF8CC
:10E580000E0040F601318847FFE740F251608047B6
:10E5900040F60D0080470498002802D1FFE762B6DC
:10E5A000FFE708B080BD000080B582B000F010F831
:10E5B000002806D1FFE741F27800C0F20020019068
:10E5C00002E000200190FFE7019802B080BD00004A
:10E5D00080B586B000F0C8F9002803D0FFE700201E
:10E5E000059056E04FF4805000F022FA0490049811
:10E5F00044F24371C4F64E11884203D0FFE7012074
:10E60000059046E041F2040000F012FA04900498EC
:10E6100045F25301C4F64901884203D0FFE70220C6
:10E62000059036E00DF10F000DF10E0100F034F809
:10E63000002002900299FFF769FF41F20000C0F24A
:10E6400000200190FFF728FF4FF480511E22019B0C
:10E6500000901846FFF7A6FD41F27800C0F20020B6
:10E660004FF488512422FFF79DFD41F20810C0F2BB
:10E6700000204FF400515022FFF794FD00F078FF86
:10E680009DF80F009DF80E10FFF740FF02980590CF
:10E69000FFE7059806B080BD80B586B00390029173
:10E6A000EFF31080049004980190EFF3108072B69D
:10E6B000059040F2C970804740F64D008047ADF8A4
:10E6C0000200BDF80200C0F3803002990870BDF866
:10E6D0000200C0F384000399087040F25160804743
:10E6E00040F60D0080470198002802D1FFE762B68E
:10E6F000FFE706B080BD000080B586B00346ADF8E8
:10E70000160004910392BDF8160007280BDCFFE702
:10E71000BDF8160045F66401C2F2000151F8200070
:10E72000002809D0FFE74FF69560C0F2022040F2C2
:10E730006111F1F7B5FEFFE73020019000F036FFE0
:10E74000029002980199FBF7D9FCBDF816000299D6
:10E75000088004980299886203980299C862029816
:10E76000BDF8161045F66402C2F2000242F821001C
:10E77000BDF816104EF6F130C0F20220D9F794FD24
:10E7800002990090084606B080BD000080B586B0B2
:10E7900005900491039205980290FFE702980028E3
:10E7A0002CD0FFE70298806901900298083000F0B1
:10E7B00065F8FFE7019800281CD0FFE701980C30AE
:10E7C00000F05CF80198408900F01AF80198006A9E
:10E7D0000090FFE70098002808D0FFE70098063077
:10E7E00000F04CF8009800680090F3E7019800688A
:10E7F0000190DFE7029800680290CFE706B080BD85
:10E8000081B00146ADF80200BDF80200C007002843
:10E8100001D0FFE7FFE7BDF802008007002801D51F
:10E82000FFE7FFE7BDF802004007002801D5FFE73A
:10E83000FFE7BDF802000007002801D5FFE7FFE76A
:10E84000BDF80200C006002801D5FFE7FFE7BDF8CC
:10E8500002008006002801D5FFE7FFE7BDF80200AF
:10E860004006002801D5FFE7FFE7BDF802000006DB
:10E87000002801D5FFE7FFE701B0704780B582B0FF
:10E8800001900198F6F758FC002801D0FFE700E05E
:10E89000FFE702B080BD000081B000900098023018
:10E8A00001B0704781B000900098023001B070470D
:10E8B00083B00B460290ADF806100092BDF806003A
:10E8C0000338009908800298013003B070470000B7
:10E8D00081B000900098023001B0704781B0009084
:10E8E0000098023001B0704781B00090009802306B
:10E8F00001B0704781B000900098023001B07047BD
:10E9000041F24B20C0F200200068704782B00146FF
:10E91000ADF80600BDF8060045F66402C2F200023A
:10E9200052F8200004300090FFE7009800680028AB
:10E9300004D0FFE7009800680090F6E7009802B066
:10E940007047000081B000900098807801B0704757
:10E9500081B000900098007801B0704781B00090BD
:10E960000098043001B0704780B584B041F20000D7
:10E97000C0F2002002900298006844F24371C4F68D
:10E980004E11884209D1FFE70298406845F25301D1
:10E99000C4F64901884203D0FFE7002003900EE04F
:10E9A000FFF7AEFF0190FFF7A5FA0199814203D06E
:10E9B000FFE70020039002E001200390FFE70398A7
:10E9C00004B080BD82B0019000200090FFE7009865
:10E9D0000199884206D2FFE700BFFFE700980130A7
:10E9E0000090F4E702B0704782B0019000910020DF
:10E9F00002B0704745F22C40C2F200001D21C183D5
:10EA00002D21C1861E21A0F84C102E21A0F85E10E9
:10EA10007047000080B584B0039002910192039882
:10EA20000299019A43F69B33984704B080BD0000D9
:10EA300080B596B0149002A80021B1EB907F06D16A
:10EA4000FFE7149802A900F017F8159011E00020D4
:10EA5000C2F2010000900120FCF7A0F9149800997F
:10EA600000F00AF801900020FCF798F90198159041
:10EA7000FFE7159816B080BD80B588B00590049169
:10EA800004984FF68E31C0F202214822FBF71DFB9D
:10EA9000EFF31081069106990291EFF3108172B69F
:10EAA000079140F2C971019088470598049900F0D8
:10EAB00011F8039040F25160804740F60D00804706
:10EAC0000298002802D1FFE762B6FFE7039808B07A
:10EAD00080BD000001F101010847000010B588B0B9
:10EAE0009C468E4604468DF81F00ADF81C10069219
:10EAF000ADF81630069800780146A028049121D080
:10EB0000FFE70498A12871D1FFE70698FFF7ECFE14
:10EB1000811C45F22C40C2F2000000F108021423CF
:10EB2000039010461A46FBF7D0FA03990989039A15
:10EB300052894FF63963C0F2022302901846F1F76A
:10EB4000A5FC53E00698FFF7C3FE8078002801D0AB
:10EB5000FFE74BE045F22C40C2F2000000894FF67F
:10EB6000FF71884232D0FFE745F22C40C2F200002C
:10EB7000B0F888104FF6B252C0F20222019010464F
:10EB8000F1F784FCFFF736FF0198B0F88820C38BBB
:10EB900070304DF29D01C0F20221D9F77AFC019844
:10EBA000B0F88820C38E7C304EF2B541C0F202210D
:10EBB000D9F76FFC0198B0F88800F4F72DFC45F206
:10EBC0000850C2F20000022101700EE04FF62160F1
:10EBD000C0F20220F1F75AFC45F22C40C2F20000CC
:10EBE000B0F88800D8F724FBFFE7FFE708B010BDB6
:10EBF00010B58CB09C468E4604468DF82F00ADF8BB
:10EC00002C100A92ADF826300A9800780146A02808
:10EC1000069126D0FFE70698A12877D1FFE70A984A
:10EC2000FFF768FE089008980088ADF82400BDF84A
:10EC30002400FFF76BFE07901C2000F0B7FC07993B
:10EC400008600798006800218161079800680160EA
:10EC5000079800680430089902311422FBF735FA4E
:10EC600054E00A98FFF73AFE0088ADF824000A98AD
:10EC7000FFF734FE8078002820D0FFE7BDF824009D
:10EC800045F66401C2F2000151F820004268836A2F
:10EC9000C06ADDF828C00590604604910392029393
:10ECA000FFF71CFE827803980599029B9847BDF8F0
:10ECB00024000021049A42F8201027E0BDF8240027
:10ECC00045F66401C2F2000151F820004268026278
:10ECD000BDF8240051F82000006A002815D0FFE795
:10ECE000BDF8240045F66401C2F2000151F820107D
:10ECF000096A8A88CB884EF24501C0F20221019050
:10ED000008460199D9F7B5FAFFE7FFE70CB010BD47
:10ED100083B013468C4602908DF807108DF80620BC
:10ED20009DF80600012101FA00F0009002980068A9
:10ED3000009988439DF807109DF8062091400843EC
:10ED40000299086003B0704780B585B09C4696462E
:10ED5000049003918DF80B208DF80A309DF80B007C
:10ED6000012101FA00F00138019001989DF80A1084
:10ED70008840C043009004980068009908400399B7
:10ED8000019A11409DF80A209140084304990860B7
:10ED900005B080BD80B584B09C4696460390029134
:10EDA0008DF807208DF806309DF80700012101FA43
:10EDB00000F001389DF80610884000900398006824
:10EDC0000099884302999DF80620914008430399D1
:10EDD000086004B080BD000080B58AB043F20060D6
:10EDE000C0F26E104FF4E121FFF7AEF9FEF790F993
:10EDF000FEF77EFF1320C0F23000FBF769FD07200D
:10EE0000002109900891FBF7B1FB0121099A0790B5
:10EE100010460691FBF724FA09980699FBF7CAF900
:10EE200009980699FBF71CFA082005900899FBF74A
:10EE30009DFB0599049008460699FBF711FA059881
:10EE40000699FBF7B7F905980699FBF709FA092027
:10EE500003900899FBF78AFB0399029008460699EC
:10EE6000FBF7FEF903980699FBF7A4F903980699B6
:10EE7000FBF7F6F96846089901604FF040200190D1
:10EE8000069A089BFCF7F6F801980899069AFCF791
:10EE9000CFF801980899069AFCF794F842F2C072EC
:10EEA000C0F2090201980899FCF708F94AF2DD213D
:10EEB000C0F202210520089AF1F78CFB0AB080BD50
:10EEC00080B586B0059004914FF60960C0F202202B
:10EED000F1F7DCFA45F60C20C2F200004FF20D21EA
:10EEE000C0F2022141600391DBF7ECF90398D6F7F9
:10EEF000BDFF0398D9F7C0FB45F2B840C2F200004D
:10EF0000F2F750FD45F2C043C2F200030120032195
:10EF1000002202900192F3F723FA0299009008462A
:10EF2000F5F70AF8019806B080BD000081B00090A6
:10EF30000098408801B0704781B000900098D0F8E8
:10EF40000B0001B07047000010B58CB09C468E4697
:10EF500004468DF82F00ADF82C100A92ADF826303B
:10EF60000A98CDF81CC0CDF818E00594FFF7F0FC26
:10EF70008DF825009DF82F00042801D0FFE7A6E0BA
:10EF80009DF82500D03801460C28049100F29E809F
:10EF90000499DFE801F0079B1320272E9B353C9B4B
:10EFA0009B9B4F004FF6D750C0F20220F1F76EFA4C
:10EFB0000A98FFF7BBFFF3F795FD88E00A98FFF783
:10EFC000BBFF4FF69F41C0F2022103900846039910
:10EFD000F1F75CFA7BE04FF62550C0F20220F1F722
:10EFE00055FA74E04FF67C40C0F20220F1F74EFA79
:10EFF0006DE04FF61150C0F20220F1F747FA66E0DB
:10F000004FF6F850C0F20220F1F740FA5FE045F207
:10F010002C40C2F20000B0F888004EF28D71C0F2B0
:10F0200002210022FFF768FB45F66001C2F20001F1
:10F0300008604CE00A9802300890089880780146F1
:10F040000528029138D80299DFE801F0030A172F4A
:10F050001E254FF6FF40C0F20220F1F717FA34E008
:10F060004FF6EE40C0F20220F1F710FA0120002125
:10F070000191019AD7F724FA27E04FF6D640C0F263
:10F080000220F1F703FA20E04FF65850C0F20220B8
:10F09000F1F7FCF919E00898018882784FF696504C
:10F0A000C0F20220F1F7F2F90FE04FF63B50C0F248
:10F0B0000220F1F7EBF908E0089881784FF67750D5
:10F0C000C0F20220F1F7E2F9FFE700E0FFE70CB041
:10F0D00010BD000085B00A4603468DF80F008DF87C
:10F0E0000E109DF80F002A2804DBFFE74FF0FF30D9
:10F0F000049040E09DF80F004FF67001C0F202212D
:10F10000132210FB02100290002001909DF80E00C7
:10F110000138009002989DF80E10CA08805C01F03A
:10F120000701802222FA01F1084204D1FFE74FF0E3
:10F13000FF3004901FE0FFE70098002818D4FFE795
:10F1400002980099CA1701EB5272D210805C01F04C
:10F150000701802222FA01F1084204D0FFE701985A
:10F1600001300190FFE7FFE7009801380090E3E7E6
:10F1700001980490FFE7049805B0704780B582B00D
:10F180000190FBF7E1FA02B080BD000080B58AB0C3
:10F19000134609900891ADF81E200998012831D135
:10F1A000FFE745F22C40C2F20000B0F88810B0F83A
:10F1B0004C2045F21843C2F20003EC46CCF8003074
:10F1C0004DF6756CC0F2022C4FF0020E06906046B0
:10F1D00005937346CDF810C0CDF80CE0D9F7CEFCFE
:10F1E0000699B1F88810069AB2F85E206B46DDF8F1
:10F1F00014C0C3F800C0049B02901846039BD9F7C3
:10F20000BDFC00E0FFE70AB080BD000010B59CB077
:10F210009C468E4604468DF86F00ADF86C101A922D
:10F22000ADF866301A98CDF854C0CDF850E013947C
:10F23000FFF78EFB8DF865009DF86F00042801D064
:10F24000FFE704E19DF8650001460528129100F0F2
:10F25000C080FFE712983E2834D0FFE7129860285C
:10F260000AD0FFE71298782800F0E080FFE71298B4
:10F27000FF2800F0DC80E9E01A98FEF71DFE022866
:10F2800001D0FFE7E3E04FF63370C0F20220D8F779
:10F2900061FC4FF2FC73C0F20223012100224FF007
:10F2A000020C11900846109111460F926246D8F751
:10F2B0008BFB10990E9008460F990F9A0F9BD8F769
:10F2C00077FBC4E01A98FFF73DFB01460A280D9131
:10F2D0004FD0FFE70D980D2879D1FFE71A98043039
:10F2E00017901798C17D18300C9008460C99FDF7BF
:10F2F000EFFD00283CD0FFE7179890F90D0010F1C2
:10F30000510F0ADCFFE7179890F90D104FF6CA501D
:10F31000C0F20220F1F7BAF899E01798033045F6E9
:10F320001721C2F200010B91F2F78AF900200A902E
:10F330000A990A9A0A9BD8F73BFB45F20851C2F298
:10F34000000101220A701799897845F21A43C2F226
:10F350000003EC46CCF80430CCF800200A9B09905E
:10F36000184608911146089A0B9BD7F79BFFFFE7B9
:10F370002EE01A980330169016980078002803D0D3
:10F38000FFE7F1F7C1F8FFE74FF6ED50C0F20220BA
:10F39000F1F77CF81698B0F8010045F22C41C2F262
:10F3A0000001A1F888001698B0F80100D8F7BEF85F
:10F3B0001699B1F801104EF6DD22C0F2022241F694
:10F3C0001203079010461A46D8F7A9FF00E0FFE79E
:10F3D0003DE045F22C40C2F200004FF6FF71A0F86C
:10F3E00088100120002106900591059A059BD8F709
:10F3F000DFFA4FF61861C0F2022104900846F1F7D7
:10F4000045F845F20850C2F20000059901704FF02E
:10F41000402044F24022C0F20F020390FBF74EFE60
:10F4200003980599069AFBF7CDFD10E00FE01A98B6
:10F43000FFF794FA189018980168426800890290C2
:10F4400008461146029AFFF7A1FE00E0FFE71CB054
:10F4500010BD000080B586B004900391029204981C
:10F460000399029A00F01AF801900198002803D03D
:10F47000FFE7019805900DE004980399029AFAF7C6
:10F4800048FE002818BF01204FEA40000190019873
:10F490000590FFE7059806B080BD000080B58AB0F2
:10F4A000069005910492069820F0FF0000F5807008
:10F4B000039000200290FFE702980499884211D23D
:10F4C000FFE706980299405C059A515C0840884223
:10F4D00003D0FFE70120079047E0FFE702980130E3
:10F4E0000290E9E7EFF31080089008980190EFF39D
:10F4F000108072B6099040F2C9708047FFE7049807
:10F50000002823D0FFE703980699401A009000983E
:10F510000499884203D3FFE704980090FFE7069818
:10F520000599009A43F6D7439847009806990844EE
:10F530000690009805990844059000980499081AC7
:10F540000490039800F580700390D8E740F2516072
:10F55000804740F60D0080470198002802D1FFE760
:10F5600062B6FFE700200790FFE707980AB080BD6A
:10F5700080B582B0FEF7BEFC019041F24B20C0F294
:10F58000002001A90422FFF765FF02B080BD02E060
:10F5900008C8121F08C1002AFAD17047704700201E
:10F5A00001E001C1121F002AFBD17047F0B50B30FA
:10F5B000154D20F007010024144A0FE003688B4228
:10F5C0000BD38B4205D95E1A43184768C3E900671D
:10F5D00000E04368136002C004E0021D10680028C8
:10F5E000ECD12046002802D1286808B10020F0BDE7
:10F5F000064A07481060074A121A22F00702C0E9BB
:10F60000002401202860D7E7145400201054002063
:10F610002C5A0020285A002009026200030100A091
:10F62000FA09040000010301010009211101000190
:10F6300022440007058103080001090401000203B8
:10F6400000000009211101000122220007058203A8
:10F650002000010705030320000109040200020342
:10F6600001010009211101000122D30007058403D3
:10F6700040000107050503400001000012010002DF
:10F6800000000040B036023000000102000100001E
:10F6900005010902A10185020901A100050919015D
:10F6A0002908150025019508750181020501093019
:10F6B00009311581257F9502750881060938158164
:10F6C000257F950175088106050C0A3802158125EC
:10F6D0007F950175088106C0C005010980A10185DB
:10F6E0000319012AB700150126B70095017510818D
:10F6F00000C0050C0901A101850419012AA0021509
:10F700000126A002950175108100C005010906A11E
:10F71000018506050719E029E715002501950875FB
:10F720000181020507190029EF1500250195F075E3
:10F7300001810205081901290595057501910295B8
:10F740000175039101C00600FF0901A101853F0970
:10F7500001150026FF00953F750881020901953FBC
:10F760009102C00005010906A101050719E029E77A
:10F770001500250195087501810295017508810123
:10F780000507190029FF150026FF00950675088159
:10F790000005081901290515002501950575019138
:10F7A00002950175039101C00660FF0961A101097D
:10F7B00062150026FF009520750881020963150077
:10F7C00026FF00952075089102C00000040309047B
:10F7D0001203520044004D00430054004D005A00F3
:10F7E00054000000180332002E00340047002000AF
:10F7F00044006F006E0067006C0065000100C800E7
:10F8000032000300C800320085DF02020000000061
:10F81000C1EE020200000000000000000000000035
:10F8200000000000000000000000000000000000D8
:10F8300029DF02020000000009DF020200000000D0
:10F84000E9E902020000000069DF02020000000096
:10F85000B9DF02021D5A0020000000000000000075
:10F860000000000000000000000000000000000098
:10F87000FFFFFFFAAAAA48C000020FFFFFFF000027
:10F880000387E0FFFFFFF5555524A000010FFFFFA0
:10F89000FE800003A7E0FFFFFFFAAAA890900000F7
:10F8A0008FFFFFFE40000397E0FFFFFFF55556482E
:10F8B0008800004FFFFFFE200003C7E0FFFFFFFAB4
:10F8C000AAA9268400002FFFFFFE10000387E0FF97
:10F8D000FFFFF55554928200001FFFFFFE08000352
:10F8E0008FE0FFFFFFFAAAAA4A8100020FFFFFFE86
:10F8F00004000387E0FFFFFFF55555268080010FC8
:10F90000FFFFFE020003A7E0FFFFFFFAAAA8928014
:10F9100040008FFFFFFE01000397E0FFFFFFF5555A
:10F92000564A8020004FFFFFFE008003C7E0FFFF24
:10F93000FFFAAAA9268010002FFFFFFE00400387D0
:10F94000E0FFFFFFF55554918008001FFFFFFE0008
:10F9500020038FE0FFFFFFFAAAAA498004000FFFEF
:10F96000FFFE00100387E0FFFFFFF55555258002DD
:10F97000000FFFFFFE00080387E0FFFFFFFAAAA8C1
:10F98000918001000FFFFFFE00040387E0FFFFFFEF
:10F99000F55556498000800FFFFFFE00021387E0F7
:10F9A000FFFFFFFAAAA9258000400FFFFFFE00011C
:10F9B0000B87E0FFFFFFF55554918000240FFFFFF8
:10F9C000FE00008787E0C800000000000000000083
:10F9D000010000000000000000D000000000000056
:10F9E000000000020000000000000000C400000051
:10F9F000000000000000008000000000000000FF88
:10FA0000FFFFFAAAAA488000100FFFFFFE00004384
:10FA100087E0FFFFFFF55555248000080FFFFFFE2C
:10FA200000002387E0C0000000000000400000004C
:10FA30000000010000000000C000000000000020E5
:10FA40000000000000008000000000C00000000076
:10FA50000000100000000000004000000000C20094
:10FA60000000000000000000004000000000000056
:10FA700000C10000000000000000000020000000A5
:10FA800000000000C0800000000000000000001026
:10FA900000000000000000C000000000000008009E
:10FAA00000000000002000000000C0000000000076
:10FAB00000040000000000001000000000FFFFFF35
:10FAC000FAAAA8908200000FFFFFFE08000387E05B
:10FAD000C000000000000001000000000000040061
