:020000040202F6
:10700000089200201D700202DFF80CD000F01AF880
:10701000004800472D7002020892002002B5EFF3ED
:10702000088181F30988054800470000044880472B
:10703000EFF3098181F3088802BD00004570020268
:1070400075C10202064C074D06E0E06840F00103FE
:1070500094E8070098471034AC42F6D3FFF7D8FF06
:1070600018200302382003022DE9F05F05460020B6
:1070700092469B4688460646814640241BE02846A9
:1070800041464746224600F0AAF953465A46C01ADE
:10709000914110D311461846224600F091F92D1A5D
:1070A00067EB01084F4622460120002100F088F9D5
:1070B00017EB00094E41201EA4F10104DFDC484615
:1070C00031462A464346BDE8F09F10B5431A934225
:1070D00009D28318881803E010F8011D03F8011D78
:1070E000521EF9D210BD40EA01039B0703D009E00C
:1070F00008C9121F08C0042AFAD203E011F8013BA4
:1071000000F8013B521EF9D210BDD2B201E000F8E6
:10711000012B491EFBD270470022F6E710B513463B
:107120000A4604461946FFF7F0FF204610BD421CF0
:1071300010F8011B0029FBD1801A704730B50446B6
:107140000020034600E05B1C934203D2E05CCD5C70
:10715000401BF8D030BD034611F8012B00F8012B7D
:10716000002AF9D1184670472DE9FE4F804681EA82
:107170000300C00F0C46009021F0004123F00045B1
:10718000B8EB0200A94105D24046214690461C4674
:107190000B46024623F00040104347D0270DC7F3AB
:1071A0000A00C3F30A510290401A019040286BDA9A
:1071B000C3F3130040F4801B0098924620B10023D3
:1071C000D2EB030A63EB0B0B01985946C0F1400266
:1071D000504600F0F5F806460D4650465946019ACD
:1071E00000F00DF910EB08006141002487EA11520C
:1071F00084EAE7731A4340D0009A62B3019A012AE5
:107200004FEA075215DC001B61EB02014FF0004210
:1072100002EA0752CDE90042001C41F580113246D6
:107220002B4600F00DF903B0BDE8F08F4046214633
:10723000F9E7001B61EB0201001C41F58013001807
:107240005B412018A2F5001747EB030140EAD57017
:10725000B6196D4111E06D084FEA360645EAC07572
:107260004FEA0752001B61EB0201001C41F580113F
:1072700049084FEA30000019514132462B4603B00D
:10728000BDE8F04F00F0CDB8009801224000002387
:10729000D0EB020263EBE073009821464FEAE07402
:1072A000B8EB000061EB0401E9E783F000435BE722
:1072B00081F0004158E72DE9F04D81EA030404F024
:1072C000004B21F0004514464FF0000A23F0004126
:1072D00050EA050220D054EA01021DD0C5F30A5736
:1072E0000246C5F31303C1F31300C1F30A5640F479
:1072F000801543F48013A7EB0608101BD64608F24E
:10730000FD3873EB050002D308F1010801E0921883
:107310005B41B8F1000F03DA00200146BDE8F08DB3
:1073200000204FF48011064684460EE0171B73EBD5
:10733000050705D3121B63EB050306434CEA010C5A
:1073400049084FEA300092185B4150EA0107EDD13D
:1073500052EA030012D082EA040083EA05010843DE
:1073600005D0101BAB4106D20122002306E000220B
:107370004FF0004302E06FF0010253101AEB0600D9
:107380004CEB085110EB0A0041EB0B01BDE8F04D4E
:1073900000F047B830B50B460146002020220124FA
:1073A00009E021FA02F59D4205D303FA02F5491BD3
:1073B00004FA02F52844151EA2F10102F1DC30BDE9
:1073C000202A04DB203A00FA02F1002070479140A5
:1073D000C2F1200320FA03F3194390407047202A9A
:1073E00004DB203A21FA02F00021704721FA02F36F
:1073F000D040C2F120029140084319467047202A2C
:1074000006DBCB17203A41FA02F043EAE07306E0CC
:1074100041FA02F3D040C2F12002914008431946DC
:10742000704710B5141E73F1000408DA401C41F1D6
:10743000000192185B411A4301D120F0010010BDF8
:107440002DE9F04D92469B4611B1B1FA81F202E06E
:10745000B0FA80F220329046FFF7B2FF04460F46A2
:1074600040EA0A0041EA0B0153465A46084313D04A
:10747000114653EA010019D0C8F140025046FFF707
:10748000AEFF05460E46504659464246FFF798FF66
:10749000084305D0012004E020463946BDE8F08DC0
:1074A0000020054346EAE0762C4337430A986305FB
:1074B000E40AA0EB08000022FD0A44EA47540A301F
:1074C00002D500200146E9E7010510196941DDE90F
:1074D000084500196941BDE8F04DA2E72DE9FE4FCE
:1074E00081EA030404F0004421F0004100944FF0CD
:1074F000000B23F0004350EA01045ED052EA03047B
:107500005BD0C3F30A54C1F30A552C44A4F2F334FC
:107510000194A0FB0254C1F3130141F48011C3F3A1
:10752000130343F4801301FB024400FB034E840A5F
:10753000970A44EA815447EA8357A4FB07680295F7
:107540008D0A05FB07854FEA932C04FB0C54270595
:10755000029D4FEA065847EA1637B5EB08056EEB71
:10756000070C870E920E47EA811742EA8312A7FBA7
:107570000201B6EB0B0164EB00042B0D43EA0C3364
:107580005E1844EB1C50DA465146E7FB0201C5F396
:1075900013044FEA0B3343EA14534FEA0432019CBD
:1075A00043EA0603A4F10C040294009CCDE900B464
:1075B000FFF746FF03B0BDE8F08F00200146F9E772
:1075C000C1F30A52C1F3130140F2FF3341F48011B9
:1075D0009A4202DA00200146704740F233439A4251
:1075E000A2F2334202DC5242FFF7F9BEFFF7E8BED7
:1075F00030B5041E71F1000404DB4FF0004440423A
:1076000064EB0101141E73F1000405DB1C464FF00E
:107610000043524263EB0403994208BF904230BDDD
:10762000F0B583B002900191019800680090019834
:10763000016821F00101016002984CF24001C4F29E
:10764000000101EB40124001019BD3F810C0D3F8B8
:1076500014E01C685D689E68DF680C50C2F814E096
:10766000C2F810C0D7609660556098699061009824
:10767000019A1060029840010A5842F001020A5033
:1076800003B0F0BDB0B588B0DDF834C0DDF830E04F
:10769000144605468DF81B0005918DF813200393C1
:1076A000002002900598002804D0FFE703980028E6
:1076B00003D1FFE7012007908DE09DF813000599A5
:1076C00008700398002101700C989DF81310012296
:1076D00002FA01F190FBF1F202FB1100002803D045
:1076E000FFE70220079076E09DF81300014600288E
:1076F000019143D0FFE7019801281ED0FFE70198D0
:10770000022862D1FFE79DF834008007002803D1EA
:10771000FFE70220009006E09DF83400012121EAF5
:1077200000000090FFE70098059908700598007820
:10773000C0F10200039908704AE09DF8300080070C
:1077400000280DD1FFE79DF834008007002807D1FD
:10775000FFE70598022101700398002101700CE0F9
:107760000D98012121EA000005990870059800781C
:10777000C0F1010003990870FFE729E09DF830008F
:10778000800700280DD1FFE79DF83400800700280E
:1077900007D1FFE7059802210170039800210170CD
:1077A00012E09DF83000C00700280CD1FFE79DF8DB
:1077B0003400C007002806D1FFE7059801210170B9
:1077C00003980170FFE7FFE702E003200290FFE764
:1077D00002980790FFE7079808B0B0BDB0B587B032
:1077E000DDF830C0DDF82CE00C4605468DF81700BA
:1077F0008DF816100492039300200290049800283C
:1078000004D0FFE70398002803D1FFE7012006908A
:1078100052E09DF816000499087003980021017049
:107820000B989DF81610012202FA01F190FBF1F27B
:1078300002FB1100002803D0FFE7022006903BE086
:107840009DF8160001460028019129D0FFE7019814
:1078500001281BD0FFE70198022827D1FFE79DF8F8
:1078600030008007002803D1FFE70220009006E0E7
:107870009DF83000012121EA00000090FFE7009808
:107880000499087003980021017012E00C980121FE
:1078900021EA00000499087003980021017008E0B3
:1078A0000498002101700398017002E00320029007
:1078B000FFE702980690FFE7069807B0B0BD00000A
:1078C00080B584B001468DF80B009DF80B00024690
:1078D0001A28019200F2A6800199DFE801F00E1447
:1078E0001A1F252B7F34393FA3A3A3A3A3A3454B82
:1078F00051565C3165686D91620041F20000C4F23E
:107900000100039091E042F20000C4F201000390F4
:107910008BE02C20C4F21600039086E04EF22C007F
:10792000C4F20000039080E043F22000C4F20100A2
:1079300003907AE049F21400C4F20000039074E06E
:107940000020039071E01020C4F2010003906CE06D
:1079500048F22400C4F20000039066E04FF20C00ED
:10796000C4F20000039060E041F20000C4F20100A4
:1079700003905AE042F20000C4F20100039054E088
:107980002C20C4F2160003904FE04EF22C00C4F2FB
:107990000000039049E044F22000C4F2010003908B
:1079A00043E00020039040E0002003903DE00C20E5
:1079B000C4F20100039038E0002002F0CBFE06285C
:1079C00006D1FFE745F26400C4F2000003902CE00A
:1079D00045F21C00C4F20000039026E0012002F0F2
:1079E000B9FE062806D1FFE745F27400C4F2000094
:1079F00003901AE045F23C00C4F20000039014E04A
:107A0000022002F0A7FE062806D1FFE745F2840017
:107A1000C4F20000039008E045F25C00C4F20000EC
:107A2000039002E000200390FFE7039804B080BDBC
:107A300080B582B001468DF806009DF8060002462A
:107A40001A28009229D80099DFE801F00E0E121AC8
:107A50000E23232323232727272727270E0E121A37
:107A60000E2323232323230000208DF8070018E092
:107A70000020C4F2160000F037F98DF8070010E07E
:107A80004EF20000C4F2000000F02EF98DF807005D
:107A900007E002208DF8070003E002208DF80700C0
:107AA000FFE79DF8070002B080BD000010B590B060
:107AB000DDF84CC0DDF848E00C460E908DF837102C
:107AC0000C920B938DF82BE0002009909DF8371055
:107AD00005900846CDF810C0039403F001FC08900F
:107AE0009DF83700FFF7A4FF8DF81F009DF83700C1
:107AF000FFF7E6FE069008980028059848BF012089
:107B00000699B1FA81F14FEA511140EA01000028CB
:107B100004D0FFE74FF0FF300F9043E09DF83700AF
:107B20009DF81F200B990C9BEC46CCF80430CCF848
:107B300000100DF11E010DF11D03FFF7A3FD0990CB
:107B40000998002803D0FFE709980F902AE01398BE
:107B50009DF82B1040EA81309DF81E1040EA4150FC
:107B6000089940EA01109DF81F1040EA81409DF8F5
:107B70001D1040EA016040F490300E9908600B98A7
:107B80009DF81E10012202FA01F190FBF1F00E990E
:107B9000486006980E9908610C980E99886000203C
:107BA0000F90FFE70F9810B010BD000010B590B017
:107BB000DDF84CC0DDF848E014460E900D918DF8CC
:107BC00033200B938DF82BE0002009909DF83310A3
:107BD00005900846CDF810C0039403F081FB08908F
:107BE0009DF83300FFF724FF8DF81F009DF8330048
:107BF000FFF766FE069008980028059848BF012008
:107C00000699B1FA81F14FEA511140EA01000028CA
:107C100004D0FFE74FF0FF300F9043E09DF83300B2
:107C20009DF81F100B9A0D9BEC46CCF80430CCF855
:107C300000200DF11E020DF11D03FFF7CFFD09908D
:107C40000998002803D0FFE709980F902AE01398BD
:107C5000089940EA01209DF81F1040EA41509DF824
:107C60002B1040EA01309DF81E1040EA81409DF83B
:107C70001D1040EA016040F420300E9908600B9816
:107C80009DF81F10012202FA01F190FBF1F00E990C
:107C900048600D980E99086106980E99886000203A
:107CA0000F90FFE70F9810B010BD000081B00146A3
:107CB0008DF803009DF80300002809D0FFE74CF27F
:107CC0002000C4F20000016841F00101016008E0F9
:107CD0004CF22000C4F20000016821F001010160B3
:107CE000FFE701B07047000083B001900198006980
:107CF000C0F3042001460728009104D0FFE7009854
:107D00000F2804D007E000208DF80B0007E00120C9
:107D10008DF80B0003E002208DF80B00FFE79DF8C3
:107D20000B0003B07047000080B5B2B00A46319036
:107D3000ADF8C21041F22470C0F203200992F5F7A9
:107D400009FA00202F90FFE72F98BDF8C210884253
:107D50000ED2FFE731982F99415C41F22B70C0F2AF
:107D60000320F5F7F7F9FFE72F9801302F90EBE7A5
:107D700041F22270C0F20320F5F7ECF93198C07F90
:107D80008DF8BB003198017B46F27D62C2F20002A1
:107D90001173016843688068906053601160907847
:107DA000002800F07882FFE746F27D60C2F2000012
:107DB000C07800281ED0FFE741F2FC50C0F203203B
:107DC000F5F7C8F946F27D60C2F20000017B8DF83C
:107DD000B4100168426880682C902B922A912A99ED
:107DE0002B9A2C9B2D98EC46CCF80000B82005F07F
:107DF000CBFF4FE246F27D60C2F20000807900289E
:107E000040F08C80FFE746F27D60C2F2000000790E
:107E1000002839D1FFE741F28450C0F20320F5F782
:107E200099F946F27D60C2F20000C17941F22D62FB
:107E3000C0F2032208901046F5F78CF90898C17A31
:107E400041F24360C0F20320F5F784F90898017B02
:107E500041F21760C0F20320F5F77CF90898017B26
:107E60008DF8A410016842688368289327922691B0
:107E70002699279A289BDDF8A4C0EE46CEF800C0CC
:107E8000B02005F081FF48E041F20C50C0F2032021
:107E9000F5F760F946F27D60C2F20000C17941F267
:107EA0002D62C0F2032207901046F5F753F90798A8
:107EB000017941F2B160C0F20320F5F74BF9079860
:107EC000417941F26F60C0F20320F5F743F907985A
:107ED000C17A41F24360C0F20320F5F73BF90798FD
:107EE000017B41F21760C0F20320F5F733F90798E0
:107EF000017B8DF894100168426883682493239273
:107F000022912299239A249BDDF894C0EE46CEF864
:107F100000C0B12005F038FFFFE7BAE146F27D600E
:107F2000C2F200008079012840F0AC80FFE746F201
:107F30007D60C2F200000079002849D1FFE741F2DC
:107F4000D850C0F20320F5F705F946F27D60C2F281
:107F50000000C17941F28562C0F20322069010460A
:107F6000F5F7F8F80698017A41F29B60C0F2032019
:107F7000F5F7F0F80698817A41F25960C0F20320D3
:107F8000F5F7E8F80698C17A41F24360C0F20320A1
:107F9000F5F7E0F80698017B41F21760C0F2032084
:107FA000F5F7D8F80698017B8DF8841001684268CF
:107FB000836820931F921E911E991F9A209BDDF8C3
:107FC00084C0EE46CEF800C0B22005F0DDFE58E0D9
:107FD00041F26050C0F20320F5F7BCF846F27D6034
:107FE000C2F20000C17941F28562C0F2032205901D
:107FF0001046F5F7AFF80598017A41F29B60C0F2A0
:108000000320F5F7A7F80598817A41F25960C0F28C
:108010000320F5F79FF80598017941F2B160C0F2AD
:108020000320F5F797F80598417941F26F60C0F2A7
:108030000320F5F78FF80598C17A41F24360C0F24A
:108040000320F5F787F80598017B41F21760C0F22D
:108050000320F5F77FF80598017B8DF8741001680F
:10806000426883681C931B921A911A991B9A1C9B55
:10807000DDF874C0EE46CEF800C0B32005F084FEF3
:10808000FFE705E146F27D60C2F200008079022838
:1080900040F0FD80FFE746F27D60C2F20000C0794B
:1080A000002858D1FFE746F27D60C2F20000007957
:1080B000002807D1FFE746F27D60C2F200000121EF
:1080C0000171FFE741F2DD40C0F20320F5F742F80D
:1080D00046F27D60C2F20000817A41F25962C0F23C
:1080E000032204901046F5F735F80498017941F21F
:1080F000B160C0F20320F5F72DF80498417941F200
:108100006F60C0F20320F5F725F80498C17A41F2B8
:108110004360C0F20320F5F71DF80498017B41F29B
:108120001760C0F20320F5F715F80498017B8DF86D
:108130006410016842688368189317921691169923
:10814000179A189BDDF864C0EE46CEF800C0B42044
:1081500005F01AFE9AE046F27D60C2F20000007956
:10816000002849D1FFE741F2A950C0F20320F4F7FB
:10817000F1FF46F27D60C2F20000817A41F259625D
:10818000C0F2032203901046F4F7E4FF039801794C
:1081900041F2B160C0F20320F4F7DCFF03984179AB
:1081A00041F26F60C0F20320F4F7D4FF0398C17A64
:1081B00041F24360C0F20320F4F7CCFF0398017B47
:1081C00041F21760C0F20320F4F7C4FF0398017B6B
:1081D0008DF85410016842688368149313921291C9
:1081E0001299139A149BDDF854C0EE46CEF800C0E5
:1081F000B62005F0C9FD48E041F23150C0F203203D
:10820000F4F7A8FF46F27D60C2F20000817A41F2E5
:108210005962C0F2032202901046F4F79BFF0298C5
:10822000017941F2B160C0F20320F4F793FF0298A4
:10823000417941F26F60C0F20320F4F78BFF02989E
:10824000C17A41F24360C0F20320F4F783FF029841
:10825000017B41F21760C0F20320F4F77BFF029824
:10826000017B8DF8441001684268836810930F9277
:108270000E910E990F9A109BDDF844C0EE46CEF891
:1082800000C0B52005F080FDFFE7FFE7FFE7FFE74F
:10829000FFE7FFE71DE041F20860C0F20320F4F7BA
:1082A00059FF46F27D60C2F20000017B8DF8341068
:1082B0000168426880680C900B920A910A990B9AA7
:1082C0000C9B0D98EC46CCF80000B82005F05CFD46
:1082D000FFE7002032B080BD80B584B04BF24D6125
:1082E000C0F20221042000220392F4F7D7FF0820F5
:1082F00002F06CFB68460399016043F20000C4F28F
:10830000000001220290039B03F084FA0F220298DE
:10831000039903F027FA04B080BD000080B586B051
:1083200002468DF8170004910498002801D1FFE758
:1083300021E0049846F27861C2F20001086043F23D
:108340000000C4F2000000210290019103F0BEF988
:108350009DF8171048430390039A0298019903F07F
:108360007DFA0298019903F01FFA0F2202980199F1
:1083700003F08AF9FFE706B080BD000080B543F244
:108380000000C4F20000012103F00EFA80BD0000DD
:1083900083B013468446ADF80A000191ADF802207F
:1083A00046F26060C2F200000121017003B0704724
:1083B00080B584B013468446ADF80E000291ADF846
:1083C000062046F62410C2F200000078022817D1D9
:1083D000FFE7029805F0D4FB0090009801784278FE
:1083E000837841F2C760C0F20320F4F7B3FE00982F
:1083F000B0F8010046F62811C2F200010860FFE75C
:1084000046F26060C2F200000121017004B080BD3C
:1084100083B013468C4602908DF807108DF8062025
:108420009DF80700012101FA00F000900298006811
:10843000009988439DF806109DF807209140084355
:108440000299086003B0704780B586B00A460346BB
:108450008DF817008DF816109DF8170045F20001F1
:10846000C4F201011428C4BF46F20001C4F20101A4
:1084700004919DF81700152805DBFFE79DF817000C
:108480001538029003E09DF817000290FFE702986C
:1084900003909DF81600032819D0FFE704982830B0
:1084A0009DF80C109DF81620002A18BF0122FFF736
:1084B000AFFF049800F134009DF80C109DF81620D1
:1084C000B2FA82F24FEA5212FFF7A2FF0FE00498CD
:1084D00028309DF80C1000220192FFF799FF0498B4
:1084E00034309DF80C10019AFFF792FFFFE706B0B9
:1084F00080BD000084B00A4603468DF80F008DF859
:108500000E109DF80F0045F20001C4F2010114287D
:10851000C4BF46F20001C4F2010102919DF80F00B0
:10852000152805DBFFE79DF80F001538009003E0E4
:108530009DF80F000090FFE7009801909DF80E0055
:10854000002809D0FFE70198012101FA00F0029903
:108550000A6B1043086308E00198012101FA00F05A
:108560000299CA6A1043C862FFE704B0704700006E
:1085700080B584B00A460290ADF80610BDF806003A
:1085800000280ED1FFE7029800280AD1FFE741F644
:108590008110C0F20320F4F7DDFD01208DF80F00FB
:1085A0003AE0BDF8060044F20C31C2F20001B1F825
:1085B00007100844073041F6A57188420ADBFFE73F
:1085C00041F6C000C0F20320F4F7C4FD01208DF88D
:1085D0000F0021E044F20C30C2F20000D0F8091084
:1085E000029ABDF806300090084611461A46FEF77A
:1085F0006CFDBDF80610009AD2F809301944C2F893
:108600000910BDF80610B2F807301944A2F8071097
:1086100000218DF80F10FFE79DF80F0004B080BD1A
:1086200080B500F0D3FD053044F20C31C2F20001F8
:10863000C1F809000020A1F8070080BD80B586B010
:1086400001468DF8170044F20C30C2F20000D0F859
:1086500001200492049AB02313709DF81720049B04
:108660005A700278049B9A70B0F80720049BA3F814
:108670000320B0F807200732A0F80520D0F8012029
:10868000B0F805301A44023A0392D0F80120B0F84D
:108690000500023802901046029A0191114605F039
:1086A00075F9039908800498B0F80300002801D0F8
:1086B000FFE70DE044F20C30C2F20000D0F80120D8
:1086C000B0F8053001200090009901F077F9FFE73C
:1086D00006B080BD82B0009000980078562804D083
:1086E000FFE700208DF807003FE000984078302831
:1086F00005DBFFE7009840783A2804DBFFE700201D
:108700008DF8070031E0009880782E2804D0FFE72C
:1087100000208DF8070028E00098C078302805DB9D
:10872000FFE70098C0783A2804DBFFE700208DF8C7
:1087300007001AE0009800792E2804D0FFE70020F7
:108740008DF8070011E000984079302805DBFFE73D
:10875000009840793A2804DBFFE700208DF80700F5
:1087600003E001208DF80700FFE79DF8070002B045
:108770007047000080B58CB00A460A90ADF826100C
:1087800000208DF825000A98002805D0FFE7BDF8E5
:10879000260004280ADCFFE741F61E10C0F2032081
:1087A000F4F7D8FCE7208DF82F00A1E00A98089094
:1087B0000898007844F20C31C2F2000108700A985F
:1087C000BDF8261001F064F900280AD1FFE741F650
:1087D0001700C0F20320F4F7BDFCE2208DF82F0053
:1087E00086E00898B0F80100BDF8261005398842E7
:1087F00010D0FFE70898B0F80110BDF82600421F1E
:1088000041F67F50C0F20320F4F7A4FCE1208DF87C
:108810002F006DE0FFF704FF08980078A0380146AC
:108820000428059153D80599DFE801F0030F1B399F
:1088300045000898C11CB0F801000490084604994E
:1088400000F0B0FA8DF825004DE00898C11CB0F892
:10885000010003900846039900F0BEF88DF825004A
:1088600041E000200790ADF81A000898C11CB0F84C
:108870000100079A0DF11A0302900846029900F0D0
:1088800065F88DF825009DF82500002806D1FFE742
:108890000798BDF81A10FFF76BFEFFE723E0089872
:1088A000C11CB0F8010001900846019900F02EFAB1
:1088B0008DF8250017E00898C11CB0F80100009061
:1088C0000846009900F0D6FA8DF825000BE00898CC
:1088D000017841F6A450C0F20320F4F73BFCE020FD
:1088E0008DF82F0004E09DF825008DF82F00FFE79C
:1088F0009DF82F000CB080BD80B584B00A4603906F
:10890000ADF80A100398BDF80A100192FFF732FF84
:108910008DF809009DF80900002809D0FFE79DF8AF
:10892000091041F63720C0F20320F4F713FCFFE7EB
:108930009DF80900FFF782FE04B080BD80B548F6BF
:10894000F900C0F2022001F02FF880BD80B588B098
:108950008C460690ADF816100492039300208DF813
:108960000B0044F20C30C2F20000407B00280AD118
:10897000FFE741F66400C0F20320F4F7EBFBE920C7
:108980008DF81F0024E00698019001980168808806
:1089900000900846009900F0F1FB00280AD1FFE79B
:1089A00041F63310C0F20320F4F7D4FBE7208DF832
:1089B0001F000DE00198006800F0AAFB04900198E8
:1089C0008088039908809DF80B008DF81F00FFE751
:1089D0009DF81F0008B080BD80B58CB00A460A9093
:1089E000ADF8261000208DF8250044F20C30C2F2BC
:1089F0000000407B01280AD0FFE741F69200C0F258
:108A00000320F4F7A7FBE9208DF82F0079E10A98FD
:108A10000890BDF826000638ADF81E0044F20C3070
:108A2000C2F20000C1890131B0F81900814214D1AD
:108A3000FFE7089800884FF6FF7188420CD0FFE7E7
:108A40000898018841F6CE40C0F20320F4F782FB7B
:108A5000E3208DF82F0054E132E044F20C30C2F2F2
:108A60000000C1890131B0F81900814217DAFFE72F
:108A7000089800884FF6FF7188420FD1FFE744F253
:108A80000C30C2F20000C18941F64D40C0F2032013
:108A9000F4F760FBE3208DF82F0032E10FE044F2A1
:108AA0000C30C2F20000B0F8191041F62140C0F2BB
:108AB0000320F4F74FFBE3208DF82F0021E1FFE7BF
:108AC000089800884FF6FF71884240F09680FFE7D3
:108AD0000898D0F8020044F20C31C2F20001096992
:108AE000884212D0FFE744F20C30C2F20000016964
:108AF0000898D0F8022041F64650C0F20320F4F75F
:108B000029FBE5208DF82F00FBE0BDF81E0044F2A4
:108B10000C31C2F20001B1F81710884212DDFFE7F4
:108B2000BDF81E1044F20C30C2F20000B0F817205D
:108B300041F6BE20C0F20320F4F70CFBE4208DF8D0
:108B40002F00DEE00898D0F802100630BDF81E2095
:108B500003900846039900F0E5FA00280FD0FFE7DC
:108B60000898D0F80210BDF81E2041F66830C0F217
:108B70000320F4F7EFFAE8208DF82F00C1E044F26B
:108B80000C30C2F200000169BDF81E2011440691AC
:108B900000210290084600F0BBFA0590059806995E
:108BA00004F0F4FEADF81200BDF812000299B1F81D
:108BB0001520904219D0FFE7069941F60220C0F235
:108BC0000320F4F7C7FABDF8121044F20C30C2F2D9
:108BD0000000B0F8152041F69540C0F20320F4F7EC
:108BE000B9FAE2208DF82F008BE0FFE744F20C3059
:108BF000C2F20000022141737EE00898008844F22E
:108C00000C31C2F20001C989884211D0FFE744F259
:108C10000C30C2F20000C1890898028841F6F73092
:108C2000C0F20320F4F796FAE3208DF82F0068E0F5
:108C30000898D0F8020044F20C31C2F20001096930
:108C4000884212D0FFE744F20C30C2F20000016902
:108C50000898D0F8022041F61250C0F20320F4F731
:108C600079FAE5208DF82F004BE0BDF81E0044F2A4
:108C70000C31C2F20001B1F81710884212D0FFE7A0
:108C800044F20C30C2F20000B0F81710BDF81E20FC
:108C900041F6CC30C0F20320F4F75CFAE4208DF802
:108CA0002F002EE00898D0F802100630BDF81E20E4
:108CB00001900846019900F035FA00280FD0FFE72F
:108CC0000898D0F80210BDF81E2041F63130C0F2ED
:108CD0000320F4F73FFAE8208DF82F0011E044F26A
:108CE0000C30C2F20000C1890131C181BDF81E10F3
:108CF000026911440161FFE79DF825008DF82F00FE
:108D0000FFE79DF82F000CB080BD000080B584B057
:108D10000A460290ADF8061000208DF80500BDF857
:108D2000060002280CD0FFE7BDF8061041F61660D9
:108D3000C0F20320F4F70EFAE1208DF80F002CE0CA
:108D40000298009000980088B0F57A7F0EDDFFE76A
:108D50000098018841F6E450C0F203204FF47A7283
:108D6000F4F7F8F9E7208DF80F0016E0F4F7D8F9DA
:108D7000009A12884FF47A735A43801841F1000127
:108D800049F26942C0F202224FF00003F4F778F989
:108D90009DF805108DF80F10FFE79DF80F0004B047
:108DA00080BD000080B586B00A460490ADF80E1074
:108DB00044F20C30C2F20000407B03280AD1FFE7E6
:108DC00041F69200C0F20320F4F7C4F9E9208DF8CF
:108DD00017004AE000208DF80D00BDF80E00802835
:108DE0000DD0FFE7BDF80E2041F6A430C0F20320FD
:108DF0008021F4F7AFF9E1208DF8170035E00498F1
:108E00000290029801F0B6FC029800F0E5F98DF8A6
:108E10000D009DF80D0000280DD0FFE79DF80D1006
:108E200041F61420C0F20320F4F794F99DF80D00E8
:108E30008DF8170019E000F06FF80298B0F84210B2
:108E4000B0F84400484300F001F902990190084647
:108E500000F0AAF844F20C30C2F200000121417384
:108E60009DF80D008DF81700FFE79DF8170006B07C
:108E700080BD000080B584B00A460290ADF80610AF
:108E800000208DF80500BDF8060002280CD0FFE791
:108E9000BDF8061041F60260C0F20320F4F75AF95B
:108EA000E1208DF80F0032E00298009000980088D1
:108EB000B0F57A7F0EDDFFE70098018841F6C650D5
:108EC000C0F203204FF47A72F4F744F9E7208DF8EA
:108ED0000F001CE044F20C30C2F200000321417389
:108EE000F4F71EF9009A12884FF47A735A438018E7
:108EF00041F1000148F64172C0F202224FF0000336
:108F0000F4F7BEF89DF805108DF80F10FFE79DF8F7
:108F10000F0004B080BD000080B582B044F20C3078
:108F2000C2F2000046210190FEF7F6F844F27860A4
:108F3000C2F200000199C1F8010002B080BD00003A
:108F400080B58CB019469446DDF838E00B90099353
:108F5000089244F20C30C2F20000D0F83E2041F6F4
:108F60007A23C0F203230490184603911146CDF8EA
:108F700008C0CDF804E0F4F7EDF84BF20000C0F2C1
:108F8000032005900498D0F83E100691D0F84210C6
:108F90000791012005A905F08FFA0090F4F718F960
:108FA00000200CB080BD000081B00090009890F8C7
:108FB0003C0044F20C31C2F2000108750098C08FE9
:108FC000A1F815000098B0F84200A1F81700009829
:108FD000B0F84400A1F81900009890F84600C8764F
:108FE000009890F847000877009890F84800487774
:108FF0000098D0F86A00C1F83E000098D0F86E00E2
:10900000C1F842000098D0F84A20D0F84E30D0F88D
:1090100052C0D0F85600C1F82A00C1F826C0C1F8E5
:109020002230C1F81E200098D0F85A20D0F85E30C7
:10903000D0F862C0D0F86600C1F83A00C1F836C076
:10904000C1F83230C1F82E2001B0704780B584B02D
:1090500002900298B0F5822F0DD9FFE7029941F6F0
:109060000230C0F203204FF48222F4F773F801209B
:109070008DF80F0047E0BDF808000005002806D075
:10908000FFE70298012101EB1030009003E0029805
:10909000000B0090FFE70098ADF806000020ADF847
:1090A0000400FFE7BDF80400BDF80610884226DA88
:1090B000FFE7BDF804004BF20001C0F2032101EB11
:1090C000003004F02DFB002812D0FFE7BDF80400AB
:1090D0004BF20001C0F2032101EB003141F6942074
:1090E000C0F20320F4F736F801208DF80F000AE0F3
:1090F000FFE7BDF804000130ADF80400D2E700201E
:109100008DF80F00FFE79DF80F0004B080BD000050
:1091100081B0009000984BF20001C0F20321084496
:1091200001B0704780B586B0134604900391ADF846
:109130000A2004984BF20001C0F20321084403996D
:10914000BDF80A20009306F09FFB019001980028CB
:109150000BD0FFE7019941F6E720C0F20320F3F7B7
:10916000F9FF01208DF8170003E000208DF81700AB
:10917000FFE79DF8170006B080BD000083B00A46E7
:109180000190ADF8021001984AF6FF71C0F2032178
:10919000884204D8FFE700208DF80B0012E0019808
:1091A000BDF8021008444CF20101C0F207218842C8
:1091B00004D3FFE700208DF80B0003E001208DF8B9
:1091C0000B00FFE79DF80B0003B0704744F2786096
:1091D000C2F200007047000080B58CB00A900A9877
:1091E00040F2FA51C0F20321099008460891FDF7B8
:1091F0009EFF0999079008460899079AFDF79EFF78
:1092000000280AD0FFE741F62A60C0F20320F3F7F6
:10921000A1FFF0208DF82F0015E10A9804F006FE5A
:1092200000280AD1FFE741F6CF10C0F20320F3F780
:1092300091FFF9208DF82F0005E140F2E050C0F2D7
:109240000320FDF774FF0A99097A884215D1FFE7D8
:109250000A98093040F2E051C0F203210690084616
:109260000591FDF764FF0699049008460599049A54
:10927000FDF764FF00280AD0FFE741F6EA10C0F2CC
:109280000320F3F767FFF1208DF82F00DBE040F2B9
:10929000ED50C0F20320FDF74AFF0A99097E88428B
:1092A00015D1FFE70A98193040F2ED51C0F20321C1
:1092B000039008460291FDF73AFF03990190084692
:1092C0000299019AFDF73AFF00280AD0FFE741F61C
:1092D0004760C0F20320F3F73DFFF2208DF82F0026
:1092E000B1E00A983030FFF7F5F900280AD1FFE71E
:1092F00041F64710C0F20320F3F72CFFF3208DF85E
:109300002F00A0E00A983630FFF7E4F900280AD1D0
:10931000FFE741F66410C0F20320F3F71BFFF420CF
:109320008DF82F008FE00A983C3000F021FC0028D7
:109330000AD1FFE741F62A00C0F20320F3F70AFF43
:10934000F5208DF82F007EE00A9890F8460000F096
:109350004DFC00280AD1FFE741F6E500C0F20320EA
:10936000F3F7F8FEF7208DF82F006CE00A9800F173
:10937000420190F8460000900846009900F0C2FBB8
:1093800000280AD1FFE741F64700C0F20320F3F7B7
:10939000E1FEF6208DF82F0055E00A98473000F0E6
:1093A000FFFB00280AD1FFE741F6B510C0F2032009
:1093B000F3F7D0FEF8208DF82F0044E00A98D0F89B
:1093C0006A0043F20001C0F20021884207D3FFE7A0
:1093D0000A98D0F86A00B0F1027F19D9FFE70A981D
:1093E000D0F86A2041F2EA70C0F2032043F2000193
:1093F000C0F200214FF00273F3F7ACFE41F6971074
:10940000C0F20320F3F7A6FEFA208DF82F001AE031
:109410000A98D0F86E00B0F5822F10D9FFE741F21C
:109420009B70C0F20320F3F795FE41F60410C0F2E2
:109430000320F3F78FFEFB208DF82F0003E00020C0
:109440008DF82F00FFE79DF82F000CB080BD0000C5
:1094500080B541F28C70C0F20320F3F77BFEFFF77A
:109460006DFA00F059FA80BD80B588B0194694466F
:10947000DDF828E00790059304920391CDF808C029
:10948000CDF804E0F3F7A4FE002008B080BD000092
:1094900080B584B00A460290ADF8061044F223402D
:1094A000C2F200000088BDF80610084441F6A5711C
:1094B000884204DBFFE701208DF80F001AE044F238
:1094C0002340C2F20000D0F8021002881144029A30
:1094D000BDF806300090084611461A46FDF7F5FD26
:1094E000BDF80610009A13881944118000218DF8E8
:1094F0000F10FFE79DF80F0004B080BD80B584B069
:109500000A460290ADF806100298BDF8061001391F
:1095100089B2009200F034F88DF805009DF805003E
:109520000299BDF80620114411F8011C884212D09E
:10953000FFE79DF805100298BDF80620104410F8CA
:10954000012C41F61A70C0F20320F3F703FE01204C
:109550008DF80F0003E000208DF80F00FFE79DF865
:109560000F0004B080BD000080B5FFF72FFE44F26D
:109570002341C2F20001C1F802000020088080BD32
:1095800083B00A460290ADF80610029800788DF874
:1095900005000120ADF80200FFE7BDF80200BDF8AC
:1095A0000610884210DAFFE70298BDF80210405C0E
:1095B0009DF8051048408DF80500FFE7BDF8020052
:1095C0000130ADF80200E8E79DF8050003B07047F0
:1095D00080B544F22040C2F2000000218170018079
:1095E0000170FFF7C1FF80BD80B58CB00A460A90BC
:1095F000ADF826100A980890BDF8260006280CDC65
:10960000FFE741F6BC70C0F20320F3F7A3FDFFF7BC
:10961000DFFF05208DF82F0079E108980078AA284F
:109620000CD0FFE741F6FC70C0F20320F3F792FD87
:10963000FFF7CEFF01208DF82F0068E108984078F1
:109640000006002804D5FFE70020002810D103E021
:10965000012000280CD1FFE741F6DE70C0F20320A4
:10966000F3F778FDFFF7B4FF02208DF82F004EE1ED
:10967000089840784006002804D5FFE7002000281D
:1096800010D103E0012000280CD1FFE741F67B70E8
:10969000C0F20320F3F75EFDFFF79AFF03208DF879
:1096A0002F0034E108988088BDF8261007398842D9
:1096B00011DDFFE708988188BDF82600C21F41F63A
:1096C0004F70C0F20320F3F745FDFFF781FF032041
:1096D0008DF82F001BE10898411C8088063080B26D
:1096E000079008460799FFF709FF00280CD0FFE70D
:1096F00041F60270C0F20320F3F72CFDFFF768FF7C
:1097000006208DF82F0002E144F22040C2F2000052
:10971000007801460028069104D0FFE7069801284A
:1097200065D0F0E0089840880004002804D5FFE7E1
:109730000120002804D14DE0012000284AD1FFE794
:109740000898811D8088059008460599FFF7A0FEBE
:1097500000280CD0FFE741F6B860C0F20320F3F711
:10976000F9FCFFF735FF07208DF82F00CFE00898B0
:109770004088400400281FD1FFE746F20070C2F283
:1097800000000068002811D0FFE746F20070C2F226
:109790000000006844F22341C2F20001D1F8022027
:1097A000098804901046049A9047FFE7FFF710FFDE
:1097B00008208DF82F00AAE00898408844F2204144
:1097C000C2F20001487048780138887001200870A2
:1097D000FFE70BE041F69970C0F20320F3F7BAFC03
:1097E000FFF7F6FE04208DF82F0090E08BE008983C
:1097F00040880004002804D5FFE70120002804D198
:109800000FE0012000280CD1FFE741F69160C0F283
:109810000320F3F79FFCFFF7DBFE04208DF82F00F9
:1098200075E044F22040C2F200008078089949882F
:109830006FF3DF31884218D0FFE7089840886FF354
:10984000DF3044F22041C2F200018A7841F66161C2
:10985000C0F20321039008460399F3F77BFCFFF75E
:10986000B7FE04208DF82F0051E00898811D8088F4
:10987000029008460299FFF70BFE00280CD0FFE784
:1098800041F6DD60C0F20320F3F764FCFFF7A0FEB1
:1098900007208DF82F003AE00898408840040028FF
:1098A0001FD1FFE746F20070C2F2000000680028F6
:1098B00011D0FFE746F20070C2F20000006844F2E7
:1098C0002341C2F20001D1F802200988019010461C
:1098D000019A9047FFE7FFF77BFE08208DF82F00E5
:1098E00015E044F22040C2F200008078002808D041
:1098F000FFE744F22040C2F2000081780139817014
:10990000FFE7FFE7FFE700208DF82F00FFE79DF856
:109910002F000CB080BD000080B5FFF759FEFFF7A7
:1099200023FE4CF2C520C0F2022002F0EFFC80BD05
:1099300080B586B001468DF81700AA208DF80C007E
:1099400003A8421CC0238DF80D304FF40043ADF83E
:109950000E300123ADF810309DF817308DF812301D
:1099600006230290104601911946FFF709FE8DF873
:1099700013000821029802F0D3FC06B080BD00005D
:1099800080B582B046F62C10C2F200004021019052
:109990000091FDF7C1FBAA200199087008460099C3
:1099A00002F0BEFC02B080BD81B00090009846F28B
:1099B0000071C2F20001086001B0704710B586B0B6
:1099C0009C468E4604468DF81600ADF8141004929D
:1099D000ADF80E30BDF80E00392804DBFFE701209A
:1099E0008DF817004FE046F62C10C2F200000290EE
:1099F0000298AA2101700298802141709DF81600FA
:109A0000002805D0FFE702984FF40041418003E0B1
:109A1000029800214180FFE7BDF814006FF3DF30AA
:109A200002994A8810434880BDF80E000299888048
:109A3000029806300499BDF80E20FDF746FB029906
:109A40000131BDF80E20053292B201900846114650
:109A5000FFF796FD0299BDF80E2011448871BDF8FC
:109A60000E00073046F62C11C2F20001A1F84000AA
:109A7000B1F8400000900846009902F051FC002027
:109A80008DF81700FFE79DF8170006B010BD000025
:109A900080B588B00A460690ADF816100698BDF855
:109AA0001610084402380490049800880699BDF8FE
:109AB0001630023B039008461946029203F066FFF7
:109AC0000399814215D0FFE70698BDF816100239B8
:109AD00003F05CFF04990A8841F64C21C0F203218F
:109AE000019008460199F3F735FB00208DF81F001F
:109AF00004E0FFE701208DF81F00FFE79DF81F003D
:109B000008B080BD80B584B00A4602908DF8071079
:109B1000029800880C2806DBFFE702980088B0F561
:109B2000005F0ADDFFE741F2C570C0F20320F3F7E2
:109B300011FB00208DF80F0015E002980188408885
:109B40004843B0F5822F0AD9FFE741F29B70C0F27B
:109B50000320F3F7FFFA00208DF80F0003E0012047
:109B60008DF80F00FFE79DF80F0004B080BD0000E6
:109B700082B0009000980078002809D1FFE7009893
:109B80004078022804D1FFE701208DF8070003E0A8
:109B900000208DF80700FFE79DF8070002B070472E
:109BA00082B0009000980078002804D1FFE70120DF
:109BB0008DF8070015E000984078002804D1FFE7F1
:109BC00000208DF807000CE000984078012804D1AF
:109BD000FFE700208DF8070003E000208DF8070064
:109BE000FFE79DF8070002B07047000081B0014612
:109BF0008DF802009DF80200002804D1FFE7012043
:109C00008DF803000CE09DF80200012804D1FFE765
:109C100001208DF8030003E000208DF80300FFE72A
:109C20009DF8030001B0704782B08DF807009DF8E1
:109C30000700C8B9FFE700200090FFE700987F28E1
:109C400011D8FFE7009A40F6E010C0F2032050F868
:109C500022000021C4F2120141F82200FFE700981F
:109C600001300090EAE71EE09DF80700012819D1B5
:109C7000FFE700200090FFE700987F2811D8FFE75A
:109C8000009A40F6E030C0F2032050F82200002194
:109C9000C4F2120141F82200FFE700980130009061
:109CA000EAE7FFE7FFE70021C4F21101086840F08E
:109CB0000100086040F20041C4F211010868172257
:109CC00062F31740086040F20442C4F211021068C7
:109CD000012363F302001060086840F0020008608E
:109CE000FFE75820C4F211000068000BC00708B954
:109CF000FFE7F6E75C21C4F21101086840F48050E8
:109D0000086002B07047000080B582B0ADF8060070
:109D1000ADF80410BDF8042040F20C41C4F211016A
:109D20000868C0EA02400860BDF8062040F2084119
:109D3000C4F21101086862F307000860086840F483
:109D4000007008600A2004F001FAFFE740F20840C2
:109D5000C4F211000068400AC00708B1FFE7F5E748
:109D600002B080BD80B584B0844606988DF80FC0DF
:109D70008DF80E108DF80D208DF80C308DF80B003D
:109D80000021C4F21101086840F001000860086871
:109D900020F01000086008680E2262F31940086085
:109DA0004021C4F2110141F23420CFF6FF70086067
:109DB0004421C4F2110108684FF6FF721043086095
:109DC0005021C4F21101086820F48070086008680E
:109DD00020F00200086040F20441C4F2110108685A
:109DE000012262F30200086040F22041C4F2110136
:109DF0000191086840F001000860086820F0020046
:109E00000860086840F0100008609DF80E2008689F
:109E100020F47F4040EA022008602C21C4F21101A6
:109E200008684FF47A7262F30F0008609DF80F0023
:109E300000F001008DF80A009DF80F00032804D1FE
:109E4000FFE702208DF80F00FFE79DF80F0000F1FB
:109E5000005040F20041C4F21201086040F2044098
:109E6000C4F2120041F20001C4F21201016040F29A
:109E70000842C4F2120242F20000CCF2120010605A
:109E800040F20C42C4F2120244F22910C7F27610DA
:109E9000106040F21042C4F2120245F25550C0F276
:109EA000550010609DF80C00000240F21442C4F20C
:109EB0001202106040F21842C4F212020020009018
:109EC00010609DF80B20120640F21C43C4F21203EE
:109ED0001A6040F22042C4F21202106040F22442A2
:109EE000C4F21202106040F22843C4F212030022AE
:109EF000CFF6FF721A6040F22C42C4F212021060D8
:109F000040F23042C4F21202106040F23442C4F215
:109F10001202106040F23842C4F21202106040F2A5
:109F20003C42C4F21202106040F24042C4F21202FB
:109F3000106040F24442C4F21202106040F2484203
:109F4000C4F21202106040F24C42C4F212021060DD
:109F500040F25042C4F21202106040F25442C4F285
:109F60001202106040F25842C4F21202106040F235
:109F70005C42C4F21202106040F26042C4F212026B
:109F8000106040F26442C4F21202106009609DF851
:109F90000A1009069DF80E2041EA02119DF80D20D5
:109FA000114341F20402C4F21202116041F20801AD
:109FB000C4F21201086040F23831C4F2110108689D
:109FC00040F001000860FFE740F23830C4F21100B1
:109FD0000068C00708B1FFE7F6E740F22C30C4F292
:109FE00011000068023040F20411C4F2110108604F
:109FF00040F23430C4F2110001686FF39F2140F247
:10A000007120401A000440F22441C4F21201086099
:10A0100040F20C11C4F2110108684FF4013262F3EE
:10A020001100086040F20011C4F21101086840F00C
:10A030000100086004B080BD80B50421C4F21101A4
:10A04000086840F400200860FFE75820C4F21100BF
:10A050000068000AC00708B9FFE7F6E75C21C4F210
:10A060001101086840F4807008600421C4F21101F5
:10A07000086820F40020086003F050FE80BD000056
:10A0800086B00A4603468DF817008DF816109DF825
:10A0900017000490049800211F28C8BF01210391D4
:10A0A000049800F01F004FF0010101FA00F0029047
:10A0B000039846F28001C4F2000101EB8000019098
:10A0C000039846F28801C4F2000101EB8000009081
:10A0D0009DF81600002807D1FFE7029801990A6849
:10A0E00022EA0000086017E09DF81600012806D15A
:10A0F000FFE7029800990A681043086006E002989A
:10A1000000990A6822EA00000860FFE702980199B6
:10A110000A6810430860FFE7002006B0704700009F
:10A1200080B586B0DDF820C086468DF81300039117
:10A13000029201939DF813007F2812D1FFE7029845
:10A1400046F24001C4F2000101EB80009DF80420BA
:10A150009DF820304FF0FF3104F07EFB0020059089
:10A1600024E003989DF8131004F046F9009000983D
:10A17000B0F1FF3F03DCFFE70098059016E002987E
:10A1800046F24001C4F2000101EB800000999DF805
:10A1900004209DF8203004F05FFB9DF813009DF82B
:10A1A0000C1000F0FBF900210591FFE7059806B0BF
:10A1B00080BD00002DE9F0418EB0DDF858C0DDF81B
:10A1C00054E0149C1D4616460F4680468DF8330019
:10A1D0008DF832108DF831208DF830308DF82F4009
:10A1E0008DF82EE08DF82DC09DF832009DF83310CB
:10A1F00001EB410140F2C832C0F2032212F81120F3
:10A2000040F2BC33C0F2032313F8113040F2B03CEB
:10A21000C0F2032C1CF81110EC46CCF800100521FC
:10A220000A9111461A460A9B099508960797CDF898
:10A230001880FFF775FF002804D0FFE74FF0FF30CC
:10A240000D90DEE09DF831009DF8331001EB4101E7
:10A2500040F2C832C0F2032202EB4102527840F2CF
:10A26000BC33C0F2032303EB41035B7840F2B03C04
:10A27000C0F2032C0CEB41014978EC46CCF80010FD
:10A280000521059111461A46059BFFF749FF002855
:10A2900004D0FFE76FF001000D90B2E09DF83000B0
:10A2A0009DF8331001EB410140F2C832C0F20322A5
:10A2B00002EB4102927840F2BC33C0F2032303EB7D
:10A2C00041039B7840F2B03CC0F2032C0CEB4101FF
:10A2D0008978EC46CCF800100521049111461A4605
:10A2E000049BFFF71DFF002804D0FFE76FF002007A
:10A2F0000D9086E09DF82F009DF8331001EB410191
:10A3000040F2C832C0F2032202EB4102D27840F29E
:10A31000BC33C0F2032303EB4103DB7840F2B03CD3
:10A32000C0F2032C0CEB4101C978EC46CCF80010CC
:10A330000521039111461A46039BFFF7F1FE002801
:10A3400004D0FFE76FF003000D905AE09DF82E0057
:10A350009DF8331001EB410140F2C832C0F20322F4
:10A3600002EB4102127940F2BC33C0F2032303EB4B
:10A3700041031B7940F2B03CC0F2032C0CEB4101CD
:10A380000979EC46CCF800100521029111461A46D5
:10A39000029BFFF7C5FE002804D0FFE76FF0040022
:10A3A0000D902EE09DF82D009DF8331001EB41013A
:10A3B00040F2C832C0F2032202EB4102527940F26D
:10A3C000BC33C0F2032303EB41035B7940F2B03CA2
:10A3D000C0F2032C0CEB41014979EC46CCF800109B
:10A3E0000521019111461A46019BFFF799FE0028AD
:10A3F00004D0FFE76FF005000D9002E000200D9003
:10A40000FFE70D980EB0BDE8F08100002DE9F043A4
:10A410008BB0DDF850C0DDF84CE0129C1D461646AE
:10A420000F4680468DF827008DF826108DF82520E0
:10A430008DF824308DF823408DF822E08DF821C06E
:10A440009DF827009DF826109DF825209DF82430C2
:10A450009DF823C09DF822E09DF82140E946C9F807
:10A460000840C9F804E0C9F800C0069505960497AD
:10A47000CDF80C80FFF79EFE07900798002803D0C8
:10A48000FFE707980A9085E09DF826009DF82710C1
:10A4900001EB410140F2D432C0F2032212F8111054
:10A4A00000F07CF8002804D0FFE74FF0FF300A905E
:10A4B00070E09DF825009DF8271001EB410140F266
:10A4C000D432C0F2032202EB4101497800F066F871
:10A4D000002804D0FFE76FF001000A905AE09DF8D1
:10A4E00024009DF8271001EB410140F2D432C0F264
:10A4F000032202EB4101897800F050F8002804D0D3
:10A50000FFE76FF002000A9044E09DF823009DF8F9
:10A51000271001EB410140F2D432C0F2032202EBDA
:10A520004101C97800F03AF8002804D0FFE76FF045
:10A5300003000A902EE09DF822009DF8271001EB01
:10A54000410140F2D432C0F2032202EB4101097909
:10A5500000F024F8002804D0FFE76FF004000A9010
:10A5600018E09DF821009DF8271001EB410140F211
:10A57000D432C0F2032202EB4101497900F00EF817
:10A58000002804D0FFE76FF005000A9002E00020E9
:10A590000A90FFE70A980BB0BDE8F08380B586B05B
:10A5A0000A4603468DF813008DF812109DF813002B
:10A5B0009DF812100292019304F03CFA0390039864
:10A5C000B0F1FF3F03DCFFE703980590BEE09DF884
:10A5D0001300112816DCFFE79DF8130046F2000176
:10A5E000C4F20001014321F00301039A00F00300CB
:10A5F000C0EBC0030720009008461146009A04F003
:10A600002BF9A0E09DF81300142810DCFFE7039954
:10A610009DF813006FF0150202EB4000C3B246F242
:10A620001000C4F20000022204F016F98AE09DF83E
:10A63000130015280AD1FFE7039946F21000C4F26F
:10A6400000000722142304F007F97AE09DF81300B4
:10A6500016280AD1FFE7039946F21400C4F200005D
:10A660000722002304F0F8F86AE09DF813001E2882
:10A6700010DCFFE703999DF813006FF0260202EB50
:10A680004000C3B246F21400C4F20000022204F0FB
:10A69000E3F854E09DF813001F280AD1FFE703995F
:10A6A00046F21400C4F200000722172304F0D4F885
:10A6B00044E09DF8130020280AD1FFE7039946F2F1
:10A6C0001400C4F2000002221E2304F0C5F834E096
:10A6D0009DF8130021280AD1FFE7039946F21800DC
:10A6E000C4F200000222002304F0B6F824E09DF832
:10A6F000130023280FDCFFE703999DF81300C0EB3C
:10A70000C000EC38C3B246F21800C4F200000722C1
:10A7100004F0A2F80FE003999DF813006FF03702E0
:10A7200002EB4000C3B246F21800C4F2000002225D
:10A7300004F092F8FFE7FFE7FFE7FFE7FFE7FFE737
:10A74000FFE7FFE7FFE700200590FFE7059806B069
:10A7500080BD000081B001468DF803009DF8030024
:10A76000400145F20002C4F200021058C0F3C210CA
:10A7700001B0704781B0009001B0704780B584B0DF
:10A78000844606988DF80FC08DF80E108DF80D20B8
:10A790008DF80C308DF80B009DF80F00512804DB6C
:10A7A000FFE750208DF80F00FFE79DF80D00B0F592
:10A7B000807F04DBFFE7FF208DF80F00FFE79DF8A7
:10A7C0000C00082804DBFFE707208DF80F00FFE7E7
:10A7D00003F0A4FA4FF4FA6003F0B8FC0120FFF78D
:10A7E00023FA9DF80F1042F2815000EB81012220E4
:10A7F000FFF78AFA42F2107003F0A8FC9DF80E00F1
:10A800009DF80D109DF80C209DF80F309DF80BC0A1
:10A81000EE46CEF800C0FFF7A5FA04B080BD0000F8
:10A8200080B582B00190019800EB400044F22C41C9
:10A83000C2F2000101EBC000183001F005FA02B0CD
:10A8400080BD000080B501F0ADF980BD80B586B057
:10A85000059004910392FFE744F22C40C2F20000FD
:10A860000078002803D1FFE701F09CF9FFE7FFE73C
:10A87000EFF311804FF0200181F3118801900598CA
:10A880000499039A00F008F80290019880F3118867
:10A89000029806B080BD000080B58AB0099008918A
:10A8A000079208980490099800EB400044F22C416C
:10A8B000C2F2000101EBC000183003900398406918
:10A8C0000028029008D0FFE70298012819D0FFE77E
:10A8D000029802282CD032E0039801F0B5F90590D7
:10A8E00005980799884203D2FFE70020069007E009
:10A8F0000798069003980499079A01F035FAFFE744
:10A9000020E0039801F0A0F9059005980799884286
:10A9100003D2FFE70598019002E007980190FFE756
:10A920000198069003980499069A01F01DFA09E02F
:10A9300003980499079A01F0A7F9069002E0002015
:10A940000690FFE706980AB080BD000080B584B08D
:10A9500013468C4603908DF80B108DF80A209DF855
:10A960000B00002806D0FFE703980021012203F026
:10A9700057FFFFE79DF80B109DF80A302820C4F21E
:10A980000000012203F08EFF9DF80B0000280CD17F
:10A99000FFE703980421C8F20001816503980121B3
:10A9A0000191019A03F03CFFFFE704B080BD000075
:10A9B00080B582B001468DF807009DF8070001229E
:10A9C0000091114600F024F802B080BD80B582B03D
:10A9D000019000208DF80300FFE79DF80300182880
:10A9E00014DCFFE701989DF80310C840C007002859
:10A9F00005D0FFE79DF80300FFF7DAFFFFE7FFE769
:10AA00009DF8030001308DF80300E6E702B080BD39
:10AA100080B586B00A4603468DF817008DF81610EB
:10AA20009DF8170001461828049100F2B38104999B
:10AA3000DFE811F019002A003B004C005D006E00B9
:10AA40007F009000A100B200CA00E300F4000D01F5
:10AA50001E012F014001510162016B0174017D0152
:10AA600086019701A7019DF816100C20C4F2000082
:10AA7000152203F0D5FE9DF816101420C4F2000034
:10AA8000122203F0CDFE86E19DF816100C20C4F2D0
:10AA90000000162203F0C4FE9DF816101420C4F224
:10AAA0000000122203F0BCFE75E19DF816100C2088
:10AAB000C4F20000022203F0B3FE9DF81610142029
:10AAC000C4F20000002203F0ABFE64E19DF8161012
:10AAD0000C20C4F20000032203F0A2FE9DF8161021
:10AAE0001420C4F20000012203F09AFE53E19DF805
:10AAF00016100C20C4F20000042203F091FE9DF811
:10AB000016101420C4F20000022203F089FE42E174
:10AB10009DF816100C20C4F20000012203F080FE04
:10AB20009DF816101420C4F20000112203F078FEE4
:10AB300031E19DF816100C20C4F20000052203F04C
:10AB40006FFE9DF816101420C4F200000A2203F0D4
:10AB500067FE20E19DF816100C20C4F200000822C8
:10AB600003F05EFE9DF816101420C4F200000922C6
:10AB700003F056FE0FE19DF816100C20C4F2000001
:10AB8000092203F04DFE9DF816105420C4F2000077
:10AB90000C2203F045FEFEE09DF816100C20C4F2D6
:10ABA00000000A2203F03CFE9DF816101420C4F2A7
:10ABB00000001322039003F033FE9DF816101422B8
:10ABC000039803F02DFEE6E09DF816100C20C4F269
:10ABD00000000B22029203F023FE9DF816101420B1
:10ABE000C4F200000190029A03F01AFE9DF81610BC
:10ABF0001022019803F014FECDE09DF816100C20F1
:10AC0000C4F200000C2203F00BFE9DF81610082081
:10AC1000C4F20000002203F003FEBCE09DF8161011
:10AC20000820C4F200000C2203F0FAFD9DF8161073
:10AC30000C20C4F200000D2203F0F2FD9DF8161066
:10AC40001420C4F20000062203F0EAFDA3E09DF800
:10AC500016100C20C4F200000E2203F0E1FD9DF856
:10AC600016101420C4F20000072203F0D9FD92E070
:10AC70009DF816100C20C4F200000F2203F0D0FD46
:10AC80009DF816101420C4F200000C2203F0C8FD39
:10AC900081E09DF816100C20C4F20000102203F091
:10ACA000BFFD9DF816101420C4F20000082203F026
:10ACB000B7FD70E09DF816100C20C4F200001122C0
:10ACC00003F0AEFD9DF816101420C4F2000004221B
:10ACD00003F0A6FD5FE09DF816100C20C4F2000002
:10ACE000122203F09DFD9DF816101420C4F20000FE
:10ACF000052203F095FD4EE09DF816100C20C4F2DD
:10AD00000000132203F08CFD45E09DF816100C2086
:10AD1000C4F20000142203F083FD3CE09DF81610FD
:10AD20000C20C4F20000002203F07AFD33E09DF80D
:10AD300016100C20C4F20000062203F071FD2AE078
:10AD40009DF816100C20C4F20000172203F068FDD5
:10AD50009DF816101420C4F200000E2203F060FDCE
:10AD600019E09DF816108020C4F200000522009022
:10AD700003F056FD9DF816100722009803F050FDD1
:10AD800009E09DF816100C20C4F20000192203F00F
:10AD900047FD00E0FFE706B080BD000080B588B049
:10ADA000079006910592069801210028039106D18B
:10ADB000FFE70598002818BF01200390FFE70398DC
:10ADC00000F001008DF8130042F21000C4F21000F0
:10ADD00001211022029003F023FD0021112202988C
:10ADE00003F01EFD42F21C00C4F2100003210222F7
:10ADF000042303F057FD9DF81300002801D1FFE75D
:10AE000030E00798002812D1FFE742F21000C4F2A8
:10AE1000100000211022019103F002FD42F21C00FB
:10AE2000C4F210000422019903F0FAFC1AE0079919
:10AE300042F20800C4F2100004220023009303F041
:10AE400031FD42F21000C4F210000121112203F082
:10AE5000E7FC42F21C00C4F210000522009903F046
:10AE6000DFFCFFE708B080BD80B58AB0089007918D
:10AE7000069200F0D3FA4DF68361C4F21B31A0FBB9
:10AE80000101890C089AB1FBF2F10591059901299C
:10AE900003D8FFE70120099095E000F0BFFA079979
:10AEA000A0FB010144F24022C0F20F0200230193F3
:10AEB000FCF7DAF8089A019BFCF7D6F804900198A1
:10AEC00003900499B1F5E67F08D3FFE70498B0F545
:10AED000167F03D8FFE70720039050E00498B0F5F1
:10AEE000BE7F08D3FFE70498B0F5027F03D8FFE7E1
:10AEF0000620039042E00498B0F5967F08D3FFE760
:10AF00000498B0F5DC7F03D8FFE70520039034E018
:10AF10000498DC2808D3FFE70498B0F5B47F03D881
:10AF2000FFE70420039027E00498A02808D3FFE758
:10AF30000498B0F58C7F03D8FFE7032003901AE054
:10AF40000498642807D3FFE70498C82803D8FFE7CC
:10AF5000022003900EE004983C2807D3FFE70498F2
:10AF6000782803D8FFE70120039002E0022009902F
:10AF700029E0FFE7FFE7FFE7FFE7FFE7FFE7402004
:10AF8000C4F20000016802919DF80B1009060291BD
:10AF900008994900079A41EAC211069A41EAC2316A
:10AFA000039A41EA4251029A1143029102990160C7
:10AFB00040F2A810C4F21000016841F48011016051
:10AFC00000200990FFE709980AB080BD80B582B0E3
:10AFD0002C20C4F20000016801F03F01ADF806101A
:10AFE0000068C0F38510ADF8040000F017FABDF852
:10AFF00004104843BDF80610B0FBF1F002B080BD6C
:10B0000080B582B00420C4F200000068C0040028AB
:10B0100004D5FFE74FF4004001900AE000F0FEF98C
:10B020001C21C4F200010968090DB0FBF1F0019088
:10B03000FFE7019802B080BD80B58EB001468DF863
:10B0400033009DF833000238024615280B9200F2B7
:10B0500040810B99DFE811F01600160016003D0143
:10B060004B00340015016500D7003D017F009900B9
:10B07000E700A900C300C300390139013D013D01CA
:10B08000F70007010420C4F2000000689DF83310A7
:10B090000D31C840C007002804D0FFE7FFF7B0FF1C
:10B0A0000D901AE100F0BAF90B2114220A9008461B
:10B0B000114602F089FC0A99B1FBF0F00D900CE109
:10B0C00000F0ACF9162106220990084608911146B5
:10B0D00002F0AEFC099948430021089A07901046F7
:10B0E00002F0A6FC0799B1FBF0F00D90F5E02C20E2
:10B0F000C4F2000000680004002804D5FFE7FFF751
:10B100007FFF0D90E9E000F089F90B211B220690EA
:10B110000846114602F058FC0699B1FBF0F00D907C
:10B12000DBE00420C4F2000000688004002804D59D
:10B13000FFE7FFF765FF0D90CFE000F06FF900210A
:10B14000182205900846114602F03EFC0599B1FB15
:10B15000F0F00D90C1E00420C4F20000006880020D
:10B1600000280ED5FFE700F02DF9002114220490ED
:10B170000846114602F028FC0499B1FBF0F00D904E
:10B18000ABE000F04BF90D90A7E00420C4F2000002
:10B1900000684002002804D5FFE700F0E5F80D90B4
:10B1A0009BE000F03BF90D9097E00420C4F2000012
:10B1B0000068000200280ED5FFE700F003F9002127
:10B1C0000C2203900846114602F0FEFB0399B1FBE6
:10B1D000F0F00D9081E000F021F90D907DE0042069
:10B1E000C4F2000000689DF833100331C840C00766
:10B1F000002804D0FFE700F0B7F80D906DE000F0F4
:10B200000DF90D9069E02C20C4F200000068C00325
:10B21000002804D5FFE7FFF7D9FE0D905DE000F0B0
:10B22000FDF80D9059E02C20C4F200000068800366
:10B23000002804D5FFE7FFF7C9FE0D904DE000F0B0
:10B24000EDF80D9049E02C20C4F2000000680003E6
:10B25000002804D5FFE7FFF7B9FE0D903DE000F0B0
:10B26000DDF80D9039E000F0ADF8202100220290C9
:10B270000846114602F0A8FB0299B1FBF0F00D90D0
:10B280002BE05420C4F200000068000400280ED512
:10B29000FFE700F069F815210122019008461146E8
:10B2A00002F0ACFB0199B1FBF0F00D9015E000F05D
:10B2B000B5F81521012200900846114602F09EFBC8
:10B2C0000099B1FBF0F00D9007E000F06BF80D90E5
:10B2D00003E000F0A3F80D90FFE70D980EB080BDDD
:10B2E00085B001468DF80F00002002903020C4F296
:10B2F0000000006801909DF80F0010280DDBFFE7AB
:10B30000082002909DF80F0010388DF80F003420AF
:10B31000C4F2000000680190FFE700200090FFE702
:10B3200000981C2819DCFFE7019800F00F009DF839
:10B330000F10884209D1FFE702980099CA1701EB64
:10B34000927100EBA10004900BE0019800090190BC
:10B35000FFE7009804300090E2E74FF0FF300490E0
:10B36000FFE7049805B0704780B582B00420C4F2AE
:10B3700000000068400400280CD5FFE700F022F828
:10B3800000210090084602F01FFB0099B1FBF0F08D
:10B39000019003E000F042F80190FFE7019802B04D
:10B3A00080BD000080B582B0FFF7DEFF00210422DF
:10B3B00001900846114602F007FB0199B1FBF0F03D
:10B3C00002B080BD80B584B040F2A810C4F2100075
:10B3D0000068C00200281AD5FFE74020C4F2000030
:10B3E0000168C1F345010268C2F3C53251430291BD
:10B3F000019000F013F801990A68C2F3C712A0FB8C
:10B400000201029A0023FBF72FFE039002E00020C6
:10B410000390FFE7039804B080BD000083B042F2C0
:10B420001000C4F210000068C0F300208DF807007F
:10B430009DF80700002806D0FFE743F20060C0F245
:10B440006E10029039E040F27C10C4F210000068E7
:10B45000C0F3043001460F28009128D80099DFE896
:10B4600001F0080E26142626261A2626262626262B
:10B47000262041F20020C0F27A0002901DE042F244
:10B480000040C0F2F400029017E043F20060C0F206
:10B490006E10029011E044F60000C0F2E810029035
:10B4A0000BE046F60040C0F2DC20029005E049F2D5
:10B4B0000000C0F2D0300290FFE7029803B070475E
:10B4C00080B584B001468DF80F009DF80F00002272
:10B4D000C4F21402012302901046029A019111460F
:10B4E0001A46FFF733FA04B080BD000080B584B07F
:10B4F00002F0D8F901900198002803D1FFE701205C
:10B50000039056E00198017842F20800C4F210005E
:10B510000722042303F0C6F900200290FFE70298F7
:10B520000F2819D8FFE70198029900EB41008088A5
:10B5300040F2A64188420ADBFFE7029942F200008E
:10B54000C4F2100004221C2303F0ACF904E0FFE76E
:10B55000029801300290E2E70298102803D3FFE737
:10B560000220039025E001200290FFE702980F28B7
:10B5700015D8FFE70198029900EB4100808C40F25A
:10B580009D41884206DBFFE702980138C0B200F017
:10B5900041F804E0FFE7029801300290E6E70298E4
:10B5A000102803D3FFE70320039002E0002003905C
:10B5B000FFE7039804B080BD80B584B00146ADF8C4
:10B5C0000E00BDF80E00002818BF012040F2040252
:10B5D000C4F200024FF00E0302901046029A01914D
:10B5E00011461A4603F01CF9BDF80E0001280FDBC6
:10B5F000FFE7BDF80E104FF08040042200230090BA
:10B6000003F050F901211C22009803F009F9FFE72B
:10B6100004B080BD80B584B001468DF80F009DF860
:10B620000F0000F00F0042F20002C4F210020423E7
:10B630004FF0010C02901046029A019111461A46F1
:10B64000634603F02FF904B080BD000080B582B0DE
:10B65000019043F20000C4F2000000210F2200F02C
:10B660006DF846F27860C2F200000068002807D04A
:10B67000FFE746F27860C2F2000000688047FFE70B
:10B68000002002B080BD000082B013468C460190BD
:10B690008DF803108DF802209DF8030080000F2123
:10B6A00001FA00F00199CA6922EA0000C8619DF818
:10B6B000020000F00F009DF80310890088400199F6
:10B6C000CA691043C86102B07047000080B584B0F9
:10B6D0000A4603908DF80B1002208DF80A0003989B
:10B6E00043F20001C4F20001884204D1FFE70320C5
:10B6F0008DF80A000AE00398B0F1402F04D1FFE76B
:10B7000004208DF80A0000E0FFE7FFE703989DF8AA
:10B710000B1000EB0110006A0007002804D5FFE7BA
:10B72000FFF740FE019005E09DF80A00FFF784FC5A
:10B730000190FFE7019804B080BD000082B013467D
:10B740008C4601908DF803108DF802209DF80200C0
:10B7500000F00F009DF8031089008840019988616E
:10B7600002B0704782B013468C4601908DF80310EA
:10B770008DF802209DF8030080000F2101FA00F0EF
:10B7800001994A6922EA000048619DF8020000F030
:10B790000F009DF803108900884001994A69104301
:10B7A000486102B07047000085B00A4604908DF8E9
:10B7B0000F10049842F20001C4F20001884203D144
:10B7C000FFE7032000900AE0049843F20001C4F26E
:10B7D00000010522884208BF04220092FFE700987A
:10B7E0008DF80E002820C4F2000002909DF80E0093
:10B7F000012101FA00F00190029800680199884344
:10B800009DF80F109DF80E209140084302990860A2
:10B8100005B07047B0B582B0DDF818C09E4614463A
:10B820000D4601908DF803108DF802208DF801303F
:10B830008DF800C09DF8020000F007009DF801108F
:10B8400040EAC1009DF8001040EA011001999DF8FE
:10B85000032001EB0211086202B0B0BD83B00B46B9
:10B8600002908DF807100092009802999DF8072029
:10B8700001EB0211486203B07047000082B00A4633
:10B8800001908DF803109DF803000199086002B043
:10B890007047000080B582B046F20A70C2F2000024
:10B8A000407880280AD1FFE746F20A70C2F2000011
:10B8B000013000F00BF88DF8070003E004208DF84C
:10B8C0000700FFE79DF8070002B080BD80B584B097
:10B8D000039040F6E270C0F20320F1F73BFC0398BE
:10B8E000418841F20F00C0F20320F1F733FC0398C6
:10B8F000818841F20200C0F20320F1F72BFC03988B
:10B90000817941F21C00C0F20320F1F723FC039877
:10B91000817908440021C1710398073041F22C025B
:10B92000C0F2032202901046029A01911146F1F7EB
:10B9300011FC019802F026FF019804B080BD0000C0
:10B9400080B584B00A460390ADF80A1046F208703C
:10B95000C2F20000002101700399BDF80A30019085
:10B9600008461946009200F011F88DF80900019878
:10B970000178C907002905D1FFE79DF8090000F00B
:10B98000CFFDFFE79DF8090004B080BD80B58EB003
:10B990000A460C90ADF82E100C98C17F1F23089119
:10B9A0001946079200F0F4FD0899814215D0FFE78F
:10B9B0000C98C17F1F220691114600F0E9FD40F668
:10B9C0001D71C0F20321059008460699059AF1F70A
:10B9D000C1FB01208DF83700D3E00C980A9046F2A5
:10B9E0000A70C2F20000007801460028049104D0D9
:10B9F000FFE70498012837D0A9E00A98408800049E
:10BA0000002826D5FFE746F20A70C2F200000021A6
:10BA100080F82D1190F82D11014401310C9A053256
:10BA20000A9B1B790390084611461A46FBF74DFB0B
:10BA30000A9949886FF3DF31039AA2F82E110A9907
:10BA4000097992F82D31194482F82D1101211170D4
:10BA500009E040F6B170C0F20320F1F77BFB022051
:10BA60008DF837008DE072E00A98408800040028C5
:10BA70000CD5FFE740F69570C0F20320F1F76AFBA2
:10BA800000F084F802208DF837007AE046F20A7060
:10BA9000C2F20000B0F82E010A9949886FF3DF3135
:10BAA0000131884219D0FFE746F20A70C2F2000065
:10BAB000B0F82E110A9840886FF3DF3040F66D72AF
:10BAC000C0F2032202901046029AF1F743FB00F005
:10BAD0005DF802208DF8370053E046F20A70C2F29A
:10BAE000000090F82D010A9909790844B0F5967F75
:10BAF0000CDBFFE740F6CA70C0F20320F1F72AFB27
:10BB000000F044F803208DF837003AE046F20A705E
:10BB1000C2F2000090F82D11014401310C9A053257
:10BB20000A9B1B790190084611461A46FBF7CDFA8D
:10BB30000A9949886FF3DF31019AA2F82E110A9908
:10BB4000097992F82D31194482F82D11FFE746F258
:10BB50000A70C2F20000B0F82E0100280DD1FFE7F4
:10BB600046F20870C2F2000001210170FFF792FE58
:10BB70008DF8270000F00AF8FFE700208DF8370065
:10BB8000FFE79DF837000EB080BD000046F20A7056
:10BB9000C2F20000002180F82D11A0F82E110170D2
:10BBA0007047000080B582B044F22C40C2F2000021
:10BBB000019001980121016101984161019840F6CD
:10BBC000EC61C0F203218161019844F28442C2F227
:10BBD0000002C26101984FF4FA72026201980022D9
:10BBE0008262019842620198C262019801630198E1
:10BBF00044F27441C2F20001416301981021816353
:10BC0000019802640198C263019842640198073068
:10BC100040F6E861C0F20321FBF79DFABFF35F8FA6
:10BC2000019940F6E162C0F20322009008461146F5
:10BC3000FBF791FABFF35F8F019920228A71BFF35E
:10BC40005F8F02B080BD000084B00390039800694C
:10BC500002900398C068019002980199884209D81F
:10BC6000FFE7039880680199401A02990844013857
:10BC7000009005E002980199C94308440090FFE74D
:10BC8000009804B07047000080B58AB00990089110
:10BC90000792002005900998C0680390FFE7099873
:10BCA0000069049004980399884206D9FFE7049834
:10BCB0000399C9430844069008E0099880680399ED
:10BCC000049A891AC94308440690FFE7069809991F
:10BCD0008968039A891A884203D2FFE7069802907E
:10BCE00005E0099880680399401A0290FFE70298DE
:10BCF000069006980799884203D2FFE706980190BC
:10BD000002E007980190FFE70198069009984068C3
:10BD1000039908440899069AFBF7D7F90699059AFA
:10BD2000114405910699089A114408910699079AB9
:10BD3000511A07910699039A114403910399099A9C
:10BD40009268914203D1FFE700200390FFE7BFF321
:10BD50005F8F03980999C860FFE7079800289ED174
:10BD6000FFE705980AB080BD80B588B007900691BE
:10BD700005920798C0680390079880680399401A55
:10BD8000029002980599884210D9FFE70798406809
:10BD9000039908440699059AFBF797F9BFF35F8F5B
:10BDA0000399059A1144079AD1601FE00298049004
:10BDB00007984068039908440699049AFBF785F9A7
:10BDC0000599029A891A049107994968069A029B73
:10BDD0001A44049B0190084611461A46FBF775F970
:10BDE000BFF35F8F0499079AD160FFE708B080BD69
:10BDF00082B00190009100980199CA6B1043C8630A
:10BE000002B0704780B582B001900091019800F0B7
:10BE10004DF8009841788278C37890F804C041EAE0
:10BE2000420141EAC30141EA0C21427941EA82011F
:10BE3000807C41EA00400199086100988179C279CB
:10BE4000037B90F80DC0090641EA82510289013A4C
:10BE50006FF35F2241EA02314289013A6FF35F22B8
:10BE6000114441EA437141EA8C71407C41EAC0705F
:10BE70000199086201980099C97B00F0D3F80198F4
:10BE80000099097C00F06CF801980099097800F09D
:10BE90007BF801980099897B00F020F802B080BD02
:10BEA00081B000900098C06B01B0704780B582B03F
:10BEB00001900198016B41F001010163FFE70198D6
:10BEC000006BC007002801D0FFE7F8E7019800F0F9
:10BED00021F8019800F00CF802B080BD82B001900A
:10BEE0000091009801998A6B1043886302B07047F3
:10BEF00081B000900098016B41F002010163FFE7FF
:10BF00000098006B4008C007002801D0FFE7F7E762
:10BF100001B0704781B000900098016B41F00401BE
:10BF20000163FFE70098006B8008C007002801D07C
:10BF3000FFE7F7E701B0704782B00A4601908DF83D
:10BF400003100198016B21F0080101639DF80300C3
:10BF500001990B6B43EAC000086302B07047000010
:10BF600082B00A4601908DF803100198016B21F40C
:10BF70007F4101639DF8030001990B6B43EA0020A8
:10BF8000086302B07047000082B00A4601908DF845
:10BF900003100198016C21F0FF0101649DF803007A
:10BFA00001990B6C1843086402B0704782B001908D
:10BFB00000910198016A40F2FF12914301620098DA
:10BFC000013801990A6A1043086202B07047000004
:10BFD00082B0019000910198016A6FF314310162FF
:10BFE00000984FF20001CFF6FF7101EB003001998C
:10BFF0000A6A1043086202B07047000082B00A4625
:10C0000001908DF803100198016B21F0100101637C
:10C010009DF8030001990B6B43EA0010086302B01E
:10C020007047000082B00A4601908DF80310019815
:10C03000016B21F47F0101639DF8030001990B6BF3
:10C0400043EA0040086302B07047000086B00590E4
:10C05000049103920498C0000399B0FBF1F00290A0
:10C060000298C009019001980299A1EBC0100290BA
:10C070000298013040080090019805994862BDF887
:10C080000600002804D1FFE70198002802D1FFE74D
:10C09000FFE7FEE701984FF6FF71884204D1FFE702
:10C0A00005980021816207E001980299081A029020
:10C0B000009805998862FFE70598C06A0599C862EB
:10C0C00006B0704781B0009000988069C0F34010BE
:10C0D00001B0704780B584B003900291019203983B
:10C0E00000210163039841640398816303984160D0
:10C0F00003984162039881620398C1620398029990
:10C10000CA68096900911146009AFFF79FFF0298DB
:10C11000017842788378C0784FF0800C0CEA421C9A
:10C120004CEA411141EA031141EAC00002F0030167
:10C1300040EA41000399C8620298B0F8090000047F
:10C1400000BA0399486301980399886302980179BA
:10C150004279837990F807C0490241EA02211944E3
:10C1600041EACC31007A41EA80300399086304B097
:10C1700080BD000080B584B0FFF7B8F905214622E4
:10C1800001230390084611461A460293FEF76CFEFF
:10C19000072101900846FFF70FFA03200299029A3F
:10C1A000FEF7FCFD0F203F21F0F7D0FE40F260606B
:10C1B000C0F20320F1F76CF802F096FB46F69810F7
:10C1C000C2F2000003F04CFA02200021F0F7BEFE9C
:10C1D000FFF7CAF840F62861C0F203210090084634
:10C1E0000099F0F7B7FF01F0C9FF04B080BD00006F
:10C1F000B0B584B0DDF820C096460C460546ADF8D3
:10C200000E00ADF80C10ADF80A200193ADF802C095
:10C21000002004B0B0BD0000F0B583B0DDF824C04C
:10C22000DDF820E01C4615460E460746ADF80A002C
:10C23000ADF80810ADF80620ADF80430ADF802C036
:10C24000002003B0F0BD000080B582B002F088FB92
:10C2500002F070FB4FF40060FEF7B8FB0120FBF723
:10C2600025FD00200190FBF721FD4EF2C111C0F227
:10C2700002210920019AF1F711F802F087F802F083
:10C2800069F802B080BD000080B584B00A46039012
:10C29000ADF80A1046F67810C2F2000000680028D7
:10C2A0000ED0FFE746F67810C2F20000006803994E
:10C2B000BDF80A20019008461146019A9047FFE711
:10C2C00004B080BD80B584B00A460390ADF80A1072
:10C2D0000398BDF80A100192FDF786F98DF8090060
:10C2E0009DF8090008280ED0FFE79DF809000028F6
:10C2F00005D0FFE79DF80900FDF71AFB02E0FDF706
:10C300003FFBFFE7FFE704B080BD000081B0009075
:10C31000009846F67811C2F20001086001B070473B
:10C3200080B584B00A460390ADF80A1046F6DB10DB
:10C33000C2F200003F2100F8011B0399BDF80A304A
:10C3400001921A46FAF7C1FE009002F003F804B019
:10C3500080BD000080B584B00A460290ADF806109A
:10C3600046F67C10C2F200000068002810D0FFE7FB
:10C3700046F67C10C2F2000000680299BDF8062063
:10C38000009008461146009A90478DF80F0003E090
:10C3900000208DF80F00FFE79DF80F0004B080BD6E
:10C3A00081B00090009846F67C11C2F2000108604E
:10C3B00001B0704780B586B00A460590ADF81210FE
:10C3C00046F6DB10C2F20000402103900292FAF719
:10C3D000A3FE0599BDF812200398FAF776FE0190A6
:10C3E00001F0B8FF06B080BD80B584B00A46029067
:10C3F000ADF8061002980078BB2824D1FFE7029818
:10C400004078B02809D1FFE70298BDF80610FBF785
:10C410008BFC01218DF80F1022E002984078A028B3
:10C4200006D1FFE70298BDF80610FFF789FA08E089
:10C430000298C17841F24A00C0F20320F0F78AFE68
:10C44000FFE7FFE708E00298017841F23500C0F20B
:10C450000320F0F77FFEFFE700208DF80F00FFE7D5
:10C460009DF80F0004B080BD80B582B041F25F003E
:10C47000C0F20320F0F76EFE46F24060C2F2000008
:10C480000021C161816141610161C16081604160E0
:10C490000160BB220270B022427081701F210190A6
:10C4A00000F092F80199C87720210198FFF782FFE8
:10C4B00004200121FCF71EF802B080BD80B582B0D7
:10C4C00041F26800C0F20320F0F744FE46F24060FB
:10C4D000C2F200000021C161816141610161C1605E
:10C4E000816041600160BB220270B02242708170A5
:10C4F00046F62811C2F200010968A0F803101F21B6
:10C50000019000F061F80199C87720210198FFF7A8
:10C5100051FF04200121FBF7EDFF02B080BD0000B8
:10C5200080B584B001468DF80F0046F22060C2F25B
:10C5300000000290029ABB231370029AA02353704A
:10C540009DF80F20029B9A70029A0023C2F81B30BC
:10C55000C2F81730C2F81330C2F80F30C2F80B30EF
:10C56000C2F80730C2F803301F2201900091114633
:10C5700000F00EF80299C87720210198FFF71AFF02
:10C5800004B080BD81B000900098807801B0704701
:10C5900083B00290019100208DF80300FFE701981D
:10C5A000411E019101280ADBFFE70298411C02911C
:10C5B00000789DF8031008448DF80300EFE79DF81C
:10C5C000030003B07047000082B00A460190ADF846
:10C5D0000210FFE7BDF80200411EADF8021001286D
:10C5E0000ADBFFE70198411C019100789DF80110DA
:10C5F00008448DF80100EDE79DF8010002B0704796
:10C6000080B584B00390029103980168426840F6B7
:10C61000B160C0F20320F0F79DFD40F27930C0F226
:10C62000032020210191019A02F09CFFFFE7FEE721
:10C6300070B588B007900691079881694269C3690F
:10C64000D0F800C0D0F804E08468C56800696E4680
:10C650003061F560B460C6F804E0C6F800C040F68A
:10C660003960C0F20320F0F775FD40F27930C0F276
:10C67000032020210591059A02F074FFFFE7FEE7F1
:10C6800080B584B003900291039940F6A560C0F292
:10C690000320F0F75FFD40F27930C0F20320202143
:10C6A0000191019A02F05EFFFFE7FEE780B582B0DC
:10C6B00001900091FFE741F20000C4F20100FFF792
:10C6C00001FD012801D1FFE7F5E70198017841F26A
:10C6D0000000C4F20100FFF7D1F8002002B080BDD5
:10C6E00080B588B0079006914EF60450CEF2000057
:10C6F00000686FF35F20B0FA80F040098DF81300F6
:10C700009DF81300002805D0FFE7F0F7F1FC406B1F
:10C710008047FFE70020FEF783F80590079801891E
:10C72000408908440599884213DAFFE707980168B1
:10C73000028900200390FEF789F807994A68498921
:10C74000039B0290184601911146019AFEF77EF86C
:10C75000FFE79DF81300002805D0FFE7F0F7C8FCBD
:10C76000806B8047FFE7002008B080BD80B588B0AF
:10C770000790069103208DF8040000208DF8050035
:10C7800001218DF806108DF807008DF808108DF83E
:10C7900009108DF80A108DF80B008DF80C008DF83B
:10C7A0000D108DF80E10079804900698059041F230
:10C7B0000000C4F2010001A95022FFF78BFC08B071
:10C7C00080BD000080B584B001468DF80B009DF857
:10C7D0000B0002460128019208D0FFE701980228C9
:10C7E00007D0FFE70198032806D008E00020039057
:10C7F00010E0012003900DE0022003900AE09DF874
:10C800000B1041F24670C0F20320F0F7A3FC0020A9
:10C810000390FFE7039804B080BD000080B582B0AC
:10C8200001468DF806009DF8060002460E2800928B
:10C8300046D80099DFE801F0080C1014181C2024D9
:10C84000282C3034383C400000208DF8070043E0AD
:10C8500002208DF807003FE003208DF807003BE041
:10C8600004208DF8070037E005208DF8070033E03D
:10C8700006208DF807002FE0FE208DF807002BE042
:10C88000FC208DF8070027E0F8208DF8070023E052
:10C89000F4208DF807001FE0F0208DF807001BE062
:10C8A000F6208DF8070017E0EC208DF8070013E064
:10C8B000E7208DF807000FE0C1208DF807000BE09E
:10C8C0009DF8061041F26B70C0F20320F0F742FCB5
:10C8D00000208DF80700FFE79DF9070002B080BD3A
:10C8E00080B596B0159014911392FFE71398012824
:10C8F00032DBFFE700200290FFE7139800210128B8
:10C90000019107DBFFE702980021102838BF0121C1
:10C910000191FFE70198C007002811D0FFE71498A4
:10C9200001F0A4FE029903AA42F821000298013006
:10C930000290139801381390149804301490DCE797
:10C94000159802998A0003A902F09EFF0299159A90
:10C9500002EB81011591C9E716B080BD80B582B0A8
:10C9600002F0A4FE46F21C61C2F200014FF0FF3259
:10C970000A6009680190084602B080BD80B58AB09F
:10C9800000208DF824000890079006909DF8240060
:10C990008DF8140006980799089A04920391029062
:10C9A0000299039A049B0598EC46CCF80000BD2040
:10C9B00001F0EAF941F24030C0F20320F0F7CAFB7F
:10C9C00001200AB080BD000080B58AB000208DF83B
:10C9D00024000890079006909DF824008DF814001C
:10C9E00006980799089A0492039102900299039A73
:10C9F000049B0598EC46CCF80000BC2001F0C4F97B
:10CA000041F2DD20C0F20320F0F7A4FB01200AB0C0
:10CA100080BD000080B58AB000208DF82400089009
:10CA2000079006909DF824008DF814000698079949
:10CA3000089A0492039102900299039A049B059824
:10CA4000EC46CCF80000BB2001F09EF941F21E300C
:10CA5000C0F20320F0F77EFB01200AB080BD000089
:10CA600010B546F6DC01C2F200010A68531C0B60E7
:10CA700002EB820246F63C03C2F2000303EB820C97
:10CA800053F82220DCF80430DCF808E0DCF80C4035
:10CA9000DCF810C0C0F810C0C460C0F808E0436003
:10CAA00002600868082807DBFFE746F6DC00C2F2F0
:10CAB000000000210160FFE710BD000046F2986011
:10CAC000C2F20000016801310160084670470000B1
:10CAD00081B0009001B0704781B00090002001B09B
