:020000040202F6
:10700000A89B0020A1790202B1790202B1790202A3
:10701000B1790202B1790202B179020200000000E6
:10702000000000000000000000000000B179020232
:10703000B179020200000000B1790202B1790202C6
:10704000B1790202B1790202B1790202B179020288
:10705000B1790202B1790202B1790202B179020278
:10706000B1790202B1790202B1790202B179020268
:10707000B1790202B1790202B1790202B179020258
:10708000B1790202B1790202B1790202B179020248
:10709000B1790202B1790202B1790202B179020238
:1070A000B1790202B1790202B1790202B179020228
:1070B000B1790202B1790202B1790202B179020218
:1070C000B1790202B1790202B1790202B179020208
:1070D000B1790202B1790202B1790202B1790202F8
:1070E000B1790202B1790202B1790202B1790202E8
:1070F000B1790202B1790202B1790202B1790202D8
:10710000B1790202B1790202B1790202B1790202C7
:10711000B1790202B1790202B1790202B1790202B7
:10712000DFF80CD000F064FC00480047CD79020283
:10713000A89B002010B54EF60450CEF2000043F29A
:1071400000010068C0F2002109686FF35F2051F868
:10715000204000F013FC002808BFA04710BD00002D
:10716000B0B500F093F844F2D060C2F2000000F035
:10717000BDFA68B344F2B455C2F20005044628785B
:10718000012815D1F6F784F844F2B852C2F2000291
:10719000D2E90023801A4AF22012C0F20702994174
:1071A000801A71F1000003D30020287005F0BCFEA6
:1071B00046F67050C2F200000178023904294CD81A
:1071C000DFE801F003260F291A0002F0B9FC44E0C1
:1071D00006F07AFC46F64C20C2F200000021018045
:1071E0003BE0022C39D146F67150C2F20000012179
:1071F000017004F083FA30E046F64C21C2F200013F
:107200000A88013293B2B3F5C87F0A800BD824E014
:1072100002F072FC21E044F26E31C2F20001C98931
:10722000B1F5C87F0BD90221017002F089FC04F08E
:1072300085FA01F031FD642005F0C6FF0DE004F091
:1072400043FA47F27630C2F200000121017047F2A2
:107250007830C2F20000AA21017044F27850C2F2E4
:107260000000007810B103F06BFEB0BD47F276303D
:10727000C2F20000007847F27831C2F2000105F056
:10728000CFFFB0BD80B500F015F880BD5C21C4F221
:107290001101086840F4807200200A60704700BF46
:1072A0005C21C4F21101086840F0040200200A6069
:1072B000704700BF5C21C4F21101086840F002026F
:1072C00000200A60704700BF10B55C24C4F21104AE
:1072D00004F038F954F85C0C172140F0010044F830
:1072E0005C0C54F80C0C012240F4805044F80C0C57
:1072F000D4F8A40361F31740C4F8A40340F2044097
:10730000C4F21100016862F302010160206840F4D8
:1073100080502060D4F8A40340F00200C4F8A40315
:1073200054F8040CC004FBD5206840F48050206061
:1073300004F000F904F012F910BD00BF40F2084259
:10734000C4F211025368C3EA01415160116860F34D
:1073500007011160106840F400701060106880052B
:10736000FCD47047B0B540F21C450446C4F2110588
:10737000FFF7AAFF60898000013081B22220FFF769
:10738000DDFF3B2045F63C21FFF7D8FF0020C4F28B
:107390001100016841F001010160617B026861F345
:1073A0000412026001680E2262F319410160016D4E
:1073B00041F480710165217E026D61F382020265F4
:1073C000617E026D61F341020265016D012241F4AB
:1073D0000051016555F8181C62F3020145F8181CAC
:1073E00001680F2241F004010160816F62F30F0117
:1073F0008167816FC0F20F0181672868932161F373
:1074000007002860207A20B1012809D14FF4DC2040
:1074100001E04FF4C820296821F47F210843286047
:1074200047F2DC1047F2D411C2F20000C2F20001B0
:1074300000680968486047F2D810C2F2000000688E
:1074400040F000428A606268CA6022690A61A27BD9
:10745000237B02F03F0212024A614FF0FF328A6141
:107460001A061F32CA6162694FF0011343EA4202F1
:1074700000230A620022CFF6FF734A628B62CA625F
:107480000A634A638A63CA630A644A648A64CA6490
:107490000A654A658A65CA650A664A6600F21B1172
:1074A00044F2C45321F00301C2F20003C3F8040103
:1074B000016042608260C26002614261B0BD00BF93
:1074C00010B50378007A33B1012B12D140F2001CC1
:1074D000C0F6004C01E04FF0006C47F2D41200F00F
:1074E0000300C2F2000240EA8000126840EA0C0089
:1074F000106047F2DC10C2F200000268012B07D1D5
:1075000002F11000102310605360002393600246C4
:10751000D1E9013C02F10C000344043323F00303DE
:107520000A611360D1F804E04FF400536EF34C137A
:107530000024536094604A68614600F09CFA47F268
:10754000D810C2F200000068446010BD70B5D3F8D6
:1075500000C0844503D9ACEB0000186070BD41F257
:107560005976D1F800E0A0EB0C0CCDF2B716ACFBCD
:1075700006450EEB552501350D601D68401BA0FB2F
:1075800006656E0A40F271256E43301A00F27120D2
:1075900018600868704528BF70BD10780130107001
:1075A00070BD00BFB0B584B040F23834C4F21104ED
:1075B00072B6206840F00100206000BF2068C0075C
:1075C000FCD154F8080C47F2D4158DF80B0054F890
:1075D0000C0CC2F20005039054F8040C4FF6D45181
:1075E0006FF39F2001902868CFF6FF71605003A9C8
:1075F0000DF10B0201ABB420FFF7A8FF03984FF683
:10760000CC51CFF6FF7160504FF6D051CFF6FF71DD
:107610009DF80B00625822F0FF0210446050019860
:107620000021C0F271212A68A1EB004050624FF6A0
:10763000C850CFF6FF70215841F00101215062B6C9
:1076400004B0B0BD80B546F69752C2F2000212787F
:1076500052B146F69C72C2F200021378012B05D09B
:10766000022B05D1052080BD012080BD042080BDF6
:107670000123137044F63402C2F20002C2E9010190
:1076800044F25C50C2F200001146FFF719FFFFF709
:1076900089FF002080BD00BF80B5C0B00820C4F2C3
:1076A00000000168FF2221F00201016044F634016C
:1076B000C2F20001012008706846C1E901204FF0C4
:1076C000FF3100BF421801311F295170FAD144F235
:1076D0005C50C2F20000FFF745FE46F69C70C2F215
:1076E00000000021017040B080BD00BF80B544F2B1
:1076F000C45CC2F2000CDCF804114B689B0417D583
:107700008B6840F201229BB2934211D14A6800F18A
:10771000010C530903704B6818319B0D80F801313F
:10772000C2F34712604600F0A6F90020C0B280BD47
:10773000DCF804018068C0F3470102294FEA5000D9
:1077400002D0042908BF0320C0B280BD10B5542464
:10775000C4F211042068C00502D44FF0FF3013E0DA
:10776000D4F8B80046F69C726FF31100C4F8B80064
:1077700046F68C70C2F200004168C2F2000200209E
:10778000107009B1884700202168490708D546F6DE
:107790008C70C2F200000068002818BF80470020EB
:1077A0002168890708D546F68C70C2F2000080680F
:1077B000002818BF804700202168890658BF10BDE7
:1077C00046F68C70C2F20000C06800B180474FF0EE
:1077D000FF3010BD81B02820C4F20000016821F004
:1077E000007101600421C4F211010A6842F0100224
:1077F0000A600021009100994F2906DC00BF009922
:107800000131009100995029F8DB016841F00071C5
:10781000016001B0704700BF70B50026C4F21106C8
:10782000102040F2044444F2932572B67060142094
:1078300041F21301C4F21104C0F22605FFF77EFDE8
:1078400046F69C70C2F200000021017042F23D0039
:10785000C6F20E00306043F2211030650120206036
:107860004FF00F10B06744F25C50C2F20000007A93
:1078700018B1012802D105F52045A56103F05AFE93
:1078800062B670BD47F200004EF60851C0F2022009
:10789000CEF200010860704710B547F2D414C2F26E
:1078A0000004206820B94FF43170E4F7A3FF206092
:1078B00047F2DC14C2F20004206820B94FF49B7038
:1078C000E4F798FF206047F2D814C2F20004206861
:1078D000002818BF10BD4FF49B70E4F78BFF2060A9
:1078E00010BD00BF46F69750C2F200000078704706
:1078F00040F2A811C4F210010A6822F480720A60F2
:1079000042F20402C4F21002D36823F48053D3601D
:107910001368106051F87C0C012340F0800041F89E
:107920007C0C40F20430C4F21100426963F31B4244
:1079300042610A6842F480720A60016841F0010104
:10794000016070470820C4F20000016821F00201C4
:10795000016000BFC16B0904FCD5026A5C21C4F25E
:10796000110142F48022026251F8080C8006FBD516
:10797000086840F020000860704700BF80B51C28F0
:1079800009D146F69750C2F200000078012802D1D2
:10799000FFF7DCFE08B1002080BD012080BD0000A3
:1079A00002B5EFF3088181F309880C480047000015
:1079B0000B4801686FF35F210F2904DC0948006858
:1079C00050F8210000470846074908470748804704
:1079D000EFF3098181F3088802BD0000F17902020A
:1079E00004ED00E00030000235710202E1B702024E
:1079F000064C074D06E0E06840F0010394E80700FC
:107A000098471034AC42F6D3FFF78EFB4CF60202D7
:107A10006CF602022DE9F05F0546002092469B4677
:107A200088460646814640241BE028464146474694
:107A3000224600F083F853465A46C01A914110D3AB
:107A400011461846224600F06AF82D1A67EB010825
:107A50004F4622460120002100F061F817EB000993
:107A60004E41201EA4F10104DFDC484631462A467F
:107A70004346BDE8F09F10B5431A934209D28318DC
:107A8000881803E010F8011D03F8011D521EF9D2F9
:107A900010BD40EA01039B0703D009E008C9121F8B
:107AA00008C0042AFAD203E011F8013B00F8013BB8
:107AB000521EF9D210BDD2B201E000F8012B491ECE
:107AC000FBD270470022F6E710B513460A4604467B
:107AD0001946FFF7F0FF204610BD30B504460020E0
:107AE000034600E05B1C934203D2E05CCD5C401B8C
:107AF000F8D030BD2DE9F0410E460546002400E0E7
:107B0000641C285D00F02AF80746305D00F026F876
:107B1000381A02D1295D0029F2D1BDE8F081202A6E
:107B200004DB203A00FA02F1002070479140C2F1D4
:107B3000200320FA03F3194390407047202A04DB06
:107B4000203A21FA02F00021704721FA02F3D040D6
:107B5000C2F120029140084319467047A0F141014B
:107B6000192900D82030704730B58C1810F8012B37
:107B700012F00F0301D110F8013B120906D110F8E1
:107B8000012B03E010F8015B01F8015B5B1EF9D1EA
:107B900001E001F8013B521EFBD1A142E6D30020D7
:107BA00030BD000080B503F0B1F980BD44F62A0075
:107BB000C2F200000021017044F26C30C2F20000F9
:107BC000017044F60900C2F20000017044F2E8704E
:107BD000C2F200000170704744F29840C2F2000007
:107BE000002141707047000044F29840C2F200004A
:107BF000012141707047000010B540F2A814C4F292
:107C000010040028204613D00E21012200F024F891
:107C10006FF00900013000BFFCD320460F21012284
:107C200000F01AF86FF00900013000BFFCD312E039
:107C30000F21002200F010F86FF00900013000BFA2
:107C4000FCD320460E21002200F006F86FF0090058
:107C5000013000BFFCD310BD80B54FF0010CD0F84F
:107C600000E00CFA01F32EEA030302FA01F11943D2
:107C7000016080BD44F65000C2F2000000787047F9
:107C800044F2D270C2F200000078704744F2D37020
:107C9000C2F2000000787047B0B578B144F2843584
:107CA000C2F200050446B5F8070041F69E71204473
:107CB000884207D30CA0F5F705FBB0BD14A0F5F77B
:107CC00001FBB0BDD5F8090000212246FFF7D3FE25
:107CD000D5F80900B5F807102044C5F809000819BF
:107CE000A5F80700B0BD00BF5B434D445D20657241
:107CF000726F723A20746F6F206D756368206461D3
:107D0000746120746F2073656E642E0A0000000099
:107D10005B434D445D206572726F723A20706172F0
:107D2000616D732E0A00000044F6A020C2F200002C
:107D300044F284310530C2F20001C1F8090000208C
:107D4000A1F807007047000070B544F28436C2F213
:107D50000006D6F80140B021217060703078B6F886
:107D60000710A070A4F80310C81D6FF0010111FAEC
:107D700080F5A6F805002046294604F073FF6053FD
:107D8000B4F80300002818BF70BDD6F80120B6F87B
:107D900005300120012100F0D9FE70BD017856297F
:107DA00015D141783039092911D881782E290ED181
:107DB000C178303909290AD801792E2907D14079AB
:107DC000A0F1300100200A2938BF012070470020AF
:107DD00070470000B0B582B010B10D46042906D836
:107DE00047A0F5F76FFAE724204602B0B0BD04467D
:107DF000007844F28431C2F200010870204629461E
:107E000000F0E8FEB8B1B4F801106A1F8A4217D139
:107E1000FFF78AFF2178A1F1A000042815D8DFE838
:107E200000F0031920303700B4F80110E01C00F016
:107E30000DFA0446D8E72DA0F5F744FAE224D3E77B
:107E400017A0F5F73FFAE124CEE71FA0F5F73AFABD
:107E5000E024C9E7B4F80110E01C00F0BDF80446C6
:107E6000C2E70020ADF80600E01C0DF1060100F0AD
:107E700075F804460028B7D1BDF80600FFF70CFFDF
:107E8000B2E7B4F80110E01C00F09EF90446ABE73D
:107E9000B4F80110E01C00F033FA0446A4E700BF78
:107EA0005B434D445D206572726F723A2070617958
:107EB0006C6F6164206C656E6774683A2025642C71
:107EC0002025640A000000005B434D445D2065727C
:107ED000726F723A20756E737570706F727465642C
:107EE00020636D643A2025640A0000005B434D4422
:107EF0005D206572726F723A204352432E0A000071
:107F00005B434D445D206572726F723A20706172FE
:107F1000616D2E0A0000000010B5FFF75BFF0446FC
:107F200018B104A02146F5F7CDF92046FFF70CFF64
:107F300010BD00BF5B434D445D206572726F723AA5
:107F4000203078253032580A0000000080B547F60E
:107F50001970C0F2022000F0F3FD80BDB0B544F20C
:107F60008432C2F20002527B52B10C46016885880D
:107F70000846294600F028FB38B100202580B0BD16
:107F800009A0F5F79FF9E920B0BD02A0F5F79AF92D
:107F9000E720B0BD5B52445D206572726F723A207B
:107FA000706172616D2E0A005B52445D20657272D1
:107FB0006F723A207570677261646520636F6E64DA
:107FC0006974696F6E206E6F742073617469736673
:107FD0006965642E0A00000070B544F28436C2F26E
:107FE0000006727B012A11D10B46F189B6F81920DF
:107FF0000446481C90424FF6FF700FD122888242FF
:1080000015D04FF25440C0F2022027E04FF26E200C
:10801000C0F20220F5F756F9E92070BD1DD2228882
:10802000824204D14FF2D330C0F2022017E02288FE
:108030008242A3F1060016D1D4F8022031698A42A7
:108040002BD1B6F8173085B29D4230D94FF2373078
:10805000C0F2022029461A4644E03AA01146F5F73C
:1080600031F9E32070BD8A421CD1D4F80220316975
:108070008A422DD1B6F8171085B28D4230D1A11D9C
:1080800010462A4600F082FA00283FD0D4F80210A9
:108090004FF26030C0F2022015E04FF2CC40C0F247
:1080A000022019E032A0F5F70DF9E32070BDA11D03
:1080B00010462A4600F06AFAC0B1D4F802104FF216
:1080C0009730C0F202202A46F5F7FCF8E82070BD90
:1080D0004FF29840C0F20220F5F7F4F8E52070BDA9
:1080E0002EA02A46F5F7EEF8E42070BD3069441959
:1080F000002000F02DFA214604F0B4FDB6F815106A
:1081000088420BD102207073002070BDF089316964
:108110000130F08148193061002070BD05464FF2F2
:108120002530C0F202202146F5F7CCF8B6F815202C
:108130004FF21B40C0F202202946F5F7C3F8E220B7
:1081400070BD00BF5B57525D206572726F723A203E
:10815000626C6F636B206E756D2C2065786365654E
:1081600064206D61783D5B3078253034785D0A009D
:108170005B57525D206572726F723A20626C6F635A
:108180006B4E756D3A206D7573745B25645D2C20A4
:10819000526563765B25645D0A0000005B57525DA3
:1081A000206572726F723A20626C6F636B53697AEA
:1081B000653A206D7573745B25645D2C2052656390
:1081C000765B25645D0A000010B502290BD1018899
:1081D0000446B1F57A7F0BD914A04FF47A72F5F703
:1081E00071F8E72010BD0CA0F5F76CF8E12010BD88
:1081F000F5F74EF822884FF47A735A43801848F204
:10820000E57241F10001C0F2022200230024F4F7DC
:10821000EFFF204610BD00BF5B52425D20657272C9
:108220006F723A204C454E3D25640A005B52425D18
:10823000206572726F723A2064656C61795F6D734C
:108240003D2564203E2025640A00000070B544F2FC
:108250008436C2F20006737B032B07D14FF26E20E7
:10826000C0F20220F5F72EF8E92070BD0A468029F9
:108270000AD1054600F0C4F9044658B117A02146BA
:10828000F5F720F8204670BD0AA08021F5F71AF80E
:10829000E12070BD00F07CF8B5F84200B5F844105C
:1082A000484300F0F9F8284600F0B8F80120707350
:1082B000204670BD5B434D445D206572726F723A1B
:1082C000206C656E3A206865616465725B25645D4B
:1082D0002C20526563765B25645D0A005B434D4448
:1082E0005D206572726F723A206865616465722004
:1082F000636865636B3A203078253032580A000095
:1083000010B502290BD101880446B1F57A7F0BD94B
:1083100017A04FF47A72F4F7D5FFE72010BD0FA035
:10832000F4F7D0FFE12010BD44F28430C2F2000027
:1083300003214173F4F7ACFF22884FF47A735A4358
:10834000801848F2B13241F10001C0F2022200234C
:108350000024F4F74DFF204610BD00BF5B53415D84
:10836000206572726F723A204C454E3D25640A00BA
:108370005B53415D206572726F723A2064656C6177
:10838000795F6D733D2564203E2025640A0000005E
:1083900010B544F28434C2F2000420464621FFF7AF
:1083A00091FB44F6A020C2F20000C4F8010010BD09
:1083B00010B584B044F28434C2F20004D4F83E1004
:1083C0000FA0F4F77FFF03F003FC45F6C05000BF99
:1083D000013800BFFCD14BF20000C0F20320019035
:1083E000D4F83E00D4F84210CDE9020101A90120E1
:1083F00005F0AEF9F4F7A4FF002004B010BD00BFF3
:108400005B434D445D20646F20757064617465202A
:108410005B3078253038585D0A00000090F83C2029
:1084200044F28431C2F20001C38F0A7590F84620ED
:10843000A1F81530D0F84230CA76B0F84720C1F81C
:1084400017308A83D0F86A20D0F86E30C1F83E2009
:10845000C1F84230D0F84A20D0F84E30C1F81E2082
:10846000C1F82230D0F85220D0F85630C1F826207A
:10847000C1F82A30D0F85AC0D0F85E30D0F8662063
:10848000D0F86200C1F83A20C1F83600C1F83230A5
:10849000C1F82EC070470000F0B581B00146B0F5BC
:1084A000822F06D91EA04FF48222F4F70BFF01B0F1
:1084B000F0BD080B01220B0518BF02EB113085B28D
:1084C00085B14BF200060020C0F20326002700BF52
:1084D00006EB0034204604F0ABFA28B90137B8B2F5
:1084E0008542F5D801B0F0BD02A02146F4F7EAFEBE
:1084F00001B0F0BD5B464C4153485D206572726F20
:10850000723A206572617365206661696C2E206124
:108510006464723D5B3078253038585D0A00000095
:108520005B464C4153485D206572726F723A20651C
:10853000726173652073697A6520746F6F206C6156
:10854000726765205B25645D3E5B25645D0A000003
:1085500000F1007000F56C3070470000B0B582B0DB
:108560000DF107040DF106052046294604F00CFB29
:10857000002004F03BFB2046294604F005FB02B036
:10858000B0BD000080B5FFF7E9FF80BD80B500F108
:10859000007000F56C3005F077FC28B1014603A0AF
:1085A000F4F790FE012080BD002080BD5B464C4169
:1085B00053485D206572726F723A207772697465F4
:1085C000205B25645D0A00004AF6FF72C0F20322B8
:1085D000904208444CF201014FF000034FF00002BA
:1085E000C0F2072188BF0122884238BF012302EA76
:1085F0000300704744F6A020C2F20000704700005C
:1086000010B54EF62F11C0F2022108220446FFF7E2
:1086100064FA10B1F0244EA02BE0204604F066FE70
:1086200090B1207A0C2809D14EF6151104F10900F9
:10863000C0F202210C22FFF750FA40B14FF20D3088
:10864000F124C0F2022014E0F92449A011E0207EB8
:108650000C2809D14EF6221104F11900C0F20221B2
:108660000C22FFF73AFA40B14FF20550F224C0F263
:108670000220F4F727FE204610BD04F13000FFF77A
:108680008DFB98B304F13600FFF788FB88B304F143
:108690003C0000F0E9FA78B394F8460000F0F6FAEE
:1086A00080B304F1420000F0C3FA88B304F147003C
:1086B00000F0E6FA90B3D4F86A20A2F10070A0F5B9
:1086C0004050B0F5FA2F2FD94FF2072043F20001A6
:1086D000C0F20220C0F200214FF00273F4F7F2FD65
:1086E0004FF2D520FA24C0F20220C2E7F32427A0DB
:1086F000BFE7F4242DA0BCE74FF23420F524C0F2EC
:108700000220B6E74FF29C20F724C0F20220B0E727
:108710004FF25120F624C0F20220AAE74FF2F320D4
:10872000F824C0F20220A4E7D4F86E00B0F5822F3E
:108730009CBF002010BD4FF2B810C0F20220F4F729
:10874000C1FD4FF2BB20FB24C0F2022091E700BF25
:108750005B4845414445525D206572726F723A2014
:1087600075706772616465466C61670A000000009D
:108770005B4845414445525D206572726F723A20F4
:108780006865616465724352430A00005B48454175
:108790004445525D206572726F723A2048572076C8
:1087A000657273696F6E2E0A000000005B484541D8
:1087B0004445525D206572726F723A20535720769D
:1087C000657273696F6E2E0A0000000080B5FFF7B6
:1087D000D9FEFFF7BBFB00F07DF903F0F9F903F0D8
:1087E00003FE80BD80B5F4F7ABFD002080BD000026
:1087F000B0B544F62E04C2F2000423880A465D1880
:1088000041F6A4718D4284BF0120B0BD014644F6FB
:108810003000C2F2000000681844FFF72CF9002075
:108820002580B0BDB0B54D1EA9B2044600F038F8A1
:10883000625D904204BF0020B0BD014602A0F4F783
:1088400041FD0120B0BD00BF5B5472616E73706F5B
:1088500072745D206572726F723A204243432063E6
:10886000616C633D5B3078253032585D2C20726539
:1088700063763D5B3078253032585D0A0000000099
:1088800080B5FFF7B7FE44F63001C2F20001086080
:1088900044F62E00C2F200000021018080BD0000DD
:1088A0000278022909D30138494200BF8378013197
:1088B0005A404B1C00F10100F8D1D0B270470000C3
:1088C00080B544F62B00C2F20000002181700180C7
:1088D000FFF7D6FF80BD0000B0B5062909D84FF2DA
:1088E0000F60C0F20220F4F7EDFCFFF7E9FF05206E
:1088F000B0BD04460078AA2812D1204610F8012FF6
:10890000130614D4520619D4A388CA1F9A421CDA3B
:108910004FF2C050C0F202201946F4F7D3FC10E029
:108920004FA0F4F7CFFCFFF7CBFF0120B0BD53A061
:10893000F4F7C8FCFFF7C4FF0220B0BD57A0F4F75E
:10894000C1FCFFF7BDFF0320B0BD991D89B2FFF741
:1089500069FF30B159A0F4F7B5FCFFF7B1FF06206D
:10896000B0BD44F62B05C2F20005287801280BD0D3
:1089700000284CD1B4F90200B0F1FF3F20DD4FF2E6
:10898000EC50C0F2022015E0618808040ED4AA78E9
:108990006FF3DF31914222D1A188A01DFFF728FF9C
:1089A00070B34FF29B50C0F2022012E04FF24F50D2
:1089B000C0F20220F4F786FCFFF782FF0420B0BD6E
:1089C000A188A01DFFF714FF80B14FF27650C0F2CE
:1089D0000220F4F777FCFFF773FF0720B0BD4FF2DA
:1089E0001F50C0F20220F4F76DFCE5E760884104F7
:1089F0000FD068700138A870012028700020B0BD29
:108A00006088400417D0A87808B10138A870002009
:108A1000B0BD46F68870C2F200000268E2B144F6CA
:108A2000300044F62E01C2F20000C2F200010068DC
:108A30000988904710E046F68870C2F2000002688C
:108A400052B144F6300044F62E01C2F20000C2F2E8
:108A50000001006809889047FFF732FF0820B0BD89
:108A60005B5472616E73706F72745D206572726FA9
:108A7000723A206865616465720A00005B54726135
:108A80006E73706F72745D206572726F723A2064DB
:108A90006972656374696F6E0A0000005B547261ED
:108AA0006E73706F72745D206572726F723A2070AF
:108AB00061636B20747970650A0000005B54726119
:108AC0006E73706F72745D206572726F723A2042BD
:108AD00043430A0080B5FFF7F3FEFFF7D1FE4CF2E7
:108AE000ED10C0F2022003F08FFB80BD10B582B004
:108AF0004CF2AA016C46ADF80010611C4FF4C03274
:108B00008DF8060008460621CDF80220FFF7C8FEC2
:108B10008DF807002046082103F07CFB02B010BD51
:108B200010B547F22C34C2F2000420464021FEF773
:108B3000C9FFAA20207020463F2103F06BFB10BD27
:108B400046F68871C2F2000108607047382B84BF76
:108B500007207047F0B581B047F22C351C46C2F2B1
:108B6000000548F2AA032B80002818BF01206FF3EC
:108B7000DF3141EAC030AF1D6880384611462246D9
:108B80006E1CAC80FEF777FF601D81B23046FFF7A8
:108B900087FE3855E01DA5F8400081B2284603F055
:108BA00039FB002001B0F0BD80B50820C4F2000000
:108BB000016821F002010160416841F00401416057
:108BC000C16841F00101C16002F0B4FC02F0C6FCD2
:108BD00080BD000070B58D1E465B2946044604F03A
:108BE00041F8864204BF012070BD2046294604F0AA
:108BF00039F8625B014602A0F4F764FB002070BD07
:108C00005B434D445D206572726F723A204352435C
:108C10003A2043616C635B3078253034585D2C20FA
:108C2000526563765B3078253034585D0A00000069
:108C300080B5018841F6F473A1F10C029A4204D97F
:108C40004FF2E210C0F202200AE040884843B0F53B
:108C5000822F9CBF012080BD4FF2B810C0F20220CD
:108C6000F4F730FB002080BD017809B10020704787
:108C70004078022804BF01207047002070470000A0
:108C80000078B0FA80F04009704700000021022807
:108C900038BF01210846704710B58AB001AC2046A4
:108CA0002221FEF70FFF0B202146082200F00CFCCA
:108CB0000C2021461F2200F007FC0D202146052232
:108CC00000F002FC0E202146022200F0FDFB02F023
:108CD000D3FC0AB010BD000040F20841C4F21101FB
:108CE0000A6860F307020A60086840F48070086050
:108CF0000868C005FCD4486880B2704744F26C3004
:108D0000C2F200000121017044F62A00C2F2000004
:108D1000017044F60900C2F20000017044F2E870EC
:108D2000C2F20000002101707047000010B5002160
:108D3000044600F061F82046002100F013F845F2E7
:108D40000000C4F20100142C84BF00F58050153CD3
:108D50000121826AA1408A438262426B22EA0101B8
:108D6000416310BD46F2800CC4F2000C00231F28A2
:108D700000F01F004FF0010288BF012302FA00F04B
:108D800001290CF1080204D039B95CF823108143A1
:108D90000BE052F82310014302E052F82310814304
:108DA00042F823105CF82310014300204CF82310F4
:108DB0007047000070B5054610284FF0FF301AD1FB
:108DC0000C46112918BF70BD46F26406C4F20006B5
:108DD000304601210122032304F0ECFD304601213D
:108DE0000122042304F0E6FD2846FFF79FFF2046FA
:108DF000FFF79CFF002070BD10B5044604F0B2FEE2
:108E00000146002875D4112C0DD846F2140204F046
:108E1000FC00C4F20002104404F003021438C2EB58
:108E2000C20307221FE0142C0BD86FF0150000EBD3
:108E3000440246F21400C4F200000438D3B2022205
:108E400011E0162C09D0152C11D146F21400C4F2F1
:108E5000000004380722142305E046F21400C4F28F
:108E600000000722002304F0A5FD002010BD1E2CE9
:108E700009D86FF0260000EB4400C3B246F214009C
:108E8000C4F20000DBE7212C0AD0202C0FD01F2CCD
:108E900014D146F21400C4F2000007221723E2E7BF
:108EA00046F21400C4F2000004300222DAE746F26F
:108EB0001400C4F2000002221E23D4E7232C0AD897
:108EC000C4EBC40000F1140246F21400C4F2000026
:108ED0000430D3B2A5E76FF0370000EB440246F24E
:108EE0001400C4F200000430D3B2022204F062FD88
:108EF0000021084610BD00007047000080B5FFF754
:108F0000FBFF00F001F880BD70470000F0B581B0B4
:108F1000144646F69752C2F20002127862B10D462C
:108F200046F69C71C2F200010978012907D0022996
:108F300008D1052001B0F0BD012001B0F0BD042032
:108F400001B0F0BD8000013081B22220FEF7F6F9B9
:108F5000692041F69B11FEF7F1F9142041F29301CB
:108F6000FEF7ECF9F4F794F944F2F032C2F20002A1
:108F70001268861851F100074FF0000050F1000010
:108F800006D100BFF4F784F9301A77EB0100F9D26B
:108F90001720FFF7A1FE0646142041F21301FEF749
:108FA000CDF9C6F3C2206FF3DF262E80208000208B
:108FB00001B0F0BDB0B50546044615F8010FA0F1AB
:108FC000A0010B2900F21481DFE811F00C0012015E
:108FD00012011201120112013A007600120112016F
:108FE00012015600217803293CD344F62A00C2F22C
:108FF00000000078002800F0B08044F2E870C2F26F
:1090000000000078002800F0A88044F26C3EC2F214
:10901000000E9EF800100F2900F2898094F90121BA
:1090200044F2E97CB2F1FF3F4FEA4102C2F2000C88
:1090300040F3838000230CF8023094F8013182E081
:109040002178032911D146F67050C2F200000221A6
:10905000017044F27E30C2F200000121017000F084
:109060006FFDB0BDA72827D0C2E0A028BAD0A7289E
:1090700022D0AB2840F0BC802178012917D147F2DB
:109080007630C2F200000121017047F27830C2F25E
:109090000000AB21017046F67050C2F200000621BC
:1090A0000170FFF7F9FDC82004F08EF8B0BDA728C5
:1090B00002D0A02896D09BE02078012840F098802C
:1090C000FEF7E4FD01280CD147F27630C2F2000031
:1090D0000121017047F27830C2F20000A82101702E
:1090E000B0BD44F62A00C2F200000078002800F06B
:1090F000968044F2E870C2F200000078002800F088
:109100008E8044F26C30C2F2000001780F2911D831
:1091100094F901314A00B3F1FF3F44F2E973C2F21E
:10912000000372DD00259D5494F8015172E0FEF7B2
:109130003DFD12E0FEF73AFD71E001230CF802302C
:1091400094F801315B4244F2E97042F00102C2F24C
:1091500000008354481C8EF80000FEF78BFD90B190
:10916000FEF78EFD01280ED0FEF790FD012807D1F5
:1091700004F028FEFEF738FD00F0B2FC01F0BAFE64
:1091800002F064FA28B147F27630C2F20000022100
:1091900033E046F66E50C2F20000007846F64E21EB
:1091A00000EB8000C2F20001227801EBC0002946EA
:1091B000FEF761FC02F06CFA44F2D470C2F20000D7
:1091C0000178012914D10021017047F2763044F270
:1091D000D572C2F200000221C2F20002017047F211
:1091E00078301278C2F20000A02101704270B0BD48
:1091F00047F27630C2F200000121017047F2783068
:10920000C2F20000A0210170B0BD01259D5494F868
:1092100001516D4242F0010201319D54017044F24E
:10922000D470C2F200000178012914D1002101702C
:1092300047F2763044F2D572C2F200000221C2F247
:109240000002017047F278301278C2F20000A721C4
:10925000017042700BE047F27630C2F2000001214B
:10926000017047F27830C2F20000A721017064203B
:1092700003F0AAFFB0BD0000B0B50546044615F8DE
:10928000010FA0F1A0010B2900F2B180DFE801F08D
:1092900006AFAFAFAFAF5C96AFAFAF772178032922
:1092A00064D3FEF7E7FC002800F0A180FEF7E8FC9D
:1092B000012800F09C80FEF7E9FC012807D104F0AA
:1092C00081FDFEF791FC00F00BFC01F013FE02F0B3
:1092D000BDF9002840F08B8046F67050C2F20000C5
:1092E00004210170642003F06FFF46F66E50C2F255
:1092F0000000007846F64E2100EB8000C2F200012B
:10930000227801EBC0002946FEF7B5FB02F0C0F958
:1093100044F2D470C2F200000178012967D1002123
:10932000017047F2763044F2D572C2F20000022199
:10933000C2F20002017047F278301278C2F20000E7
:10934000A02101704270B0BD2178032911D146F6E9
:109350007050C2F200000221017044F27E30C2F26D
:1093600000000121017000F0EBFBB0BDA7283ED149
:1093700024E0A02892D0A72820D0AB2837D121788C
:10938000012915D147F27630C2F2000001210170A7
:1093900047F27830C2F20000AB21017046F67050FF
:1093A000C2F2000006210170C82003F00DFFB0BD1D
:1093B000A72803D0A0283FF471AF18E02078012837
:1093C00015D147F27630C2F200000121017047F258
:1093D0007830C2F20000A721017046F67050C2F248
:1093E000000004210170642003F0EEFEB0BD47F2DE
:1093F0007630C2F200000121017047F27830C2F2EB
:109400000000A0210170B0BD70B514460D4606469F
:10941000FEF730FC002856D0FEF738FC012808BFC4
:1094200070BDA6F10B00042847D8DFE800F0030F59
:109430001D2B390044F27C56C2F200063046294604
:109440002246FEF718FB0120F07236E044F27C560B
:10945000C2F2000606F10C0029462246FEF70BFB7D
:10946000012086F82B0028E044F27C56C2F2000668
:1094700006F1320029462246FEF7FDFA012086F861
:1094800037001AE044F27C56C2F2000606F12F00C3
:1094900029462246FEF7EFFA012086F831000CE05B
:1094A00044F27C56C2F2000606F12C002946224600
:1094B000FEF7E1FA012086F82E0001F045FF0028B2
:1094C00008BF02F0F3F870BD80B544F2C053C2F299
:1094D00000031B68002B18BF984780BD44F2C051A1
:1094E000C2F200010860704780B5FDF7D9FE80BD6B
:1094F00080B544F6540100EB4000C2F2000101EBDC
:10950000C000183001F0AEFF80BD000080B501F052
:1095100069FF80BDF0B581B0144644F65402C2F232
:10952000000212780D46002A064608BF01F05AFFD5
:10953000EFF311874FF0200181F31188304629465F
:10954000224600F005F887F3118801B0F0BD000055
:1095500070B50D4644F6540100EB4000C2F2000124
:1095600001EBC001C86A1446022801F118060AD0AE
:1095700001280ED020B9304601F074FFA0420ED26F
:109580000024204670BD30462946224601F074FF73
:1095900070BD304601F066FFA04238BF0446304639
:1095A0002946224601F09EFF204670BDF0B581B0ED
:1095B000282714460D460646C4F2000761B130461E
:1095C0000021012204F0E8F9384629460122234609
:1095D00004F002FA01B0F0BD3846294601222346C4
:1095E00004F0FAF90420C8F20000B0653046012109
:1095F000012204F0D1F901B0F0BD000080B50121D5
:1096000000F012F880BD0000B0B50446002503E06C
:109610000135192D08BFB0BD24FA05F0C007F7D0F9
:10962000E8B2FFF7EBFFF3E7B0B5182888BFB0BD8D
:109630000C46DFE810F0190020002F003A00490026
:1096400058006700760085009000A000B400BE00BE
:10965000CE00D900E800F700060115011D01250123
:109660002D013501440154010C25C4F200052846A2
:109670002146152205E00C25C4F2000528462146A6
:10968000162204F089F905F108002146122204F09F
:1096900083F9B0BD0C25C4F20005284621460222FC
:1096A00004F07AF905F10800EDE00C25C4F200059C
:1096B00028462146032204F06FF905F108002146EF
:1096C000012204F069F9B0BD0C25C4F2000528465A
:1096D0002146042204F060F905F108002146022227
:1096E00004F05AF9B0BD0C25C4F200052846214605
:1096F000012204F051F905F108002146112204F07D
:109700004BF9B0BD0C25C4F20005284621460522C0
:1097100004F042F905F1080021460A2204F03CF960
:10972000B0BD0C25C4F2000528462146082204F0ED
:1097300033F905F108002146092204F02DF9B0BDE6
:109740000C25C4F2000528462146092204F024F91C
:1097500005F1480052E00C25C4F2000528462146D8
:109760000A2204F019F9083528462146132204F08C
:1097700013F928467FE00C25C4F20005284621464F
:109780000B2204F009F90835284621460B2204F083
:1097900003F928462146102204F0FEF8B0BD0C253E
:1097A000C4F20005284621460C2204F0F5F8281FD3
:1097B00069E00C25C4F20005281F21460C2204F0A4
:1097C000EBF8284621460D2204F0E6F805F10800E2
:1097D00061E00C25C4F20005284621460E2204F063
:1097E000DBF805F1080075E00C25C4F200052846F9
:1097F00021460F2204F0D0F805F1080021460C2282
:1098000004F0CAF8B0BD0C25C4F200052846214674
:10981000102204F0C1F805F108002146082204F0E6
:10982000BBF8B0BD0C25C4F2000528462146112224
:1098300004F0B2F805F108002146042204F0ACF867
:10984000B0BD0C25C4F2000528462146122204F0C2
:10985000A3F805F108002146052204F09DF8B0BDEB
:109860000C20C4F200002146132204F095F8B0BD8C
:109870000C20C4F200002146142204F08DF8B0BD83
:109880000C20C4F200002146002204F085F8B0BD8F
:109890000C20C4F200002146062204F07DF8B0BD81
:1098A0000C25C4F2000528462146172204F074F85E
:1098B00005F1080021460E2204F06EF8B0BD0C2020
:1098C000C4F2000000F1740528462146052204F088
:1098D00063F828462146072204F05EF8B0BD0C204C
:1098E000C4F200002146192204F056F8B0BD000071
:1098F000B0B540F2A810C4F210000068C0025CBF0E
:109900000020B0BD4025C4F200052868C0F3450022
:109910002968C1F3C53101FB00F400F00BF8296898
:109920002246C1F3C711A1FB00010023FEF772F824
:10993000B0BD000042F21000C4F21000006843F213
:109940000061C005C0F26E1144BF0846704740F286
:109950007C10C4F210000068C0F304320F2A12D841
:1099600041F20020C0F27A00DFE802F011080D1287
:109970000D0D0D140D0D0D0D0D0D0D1942F20040C4
:10998000C0F2F400704749F20000C0F2D0307047D6
:109990000846704744F60000C0F2E810704746F6EB
:1099A0000040C0F2DC20704780B501460020C4F2C0
:1099B00014000122FFF7FAFD80BD0000F0B581B070
:1099C00003F068F898B342F200050746C4F21005A8
:1099D00017F8041B044605F108000722042303F0CE
:1099E000FBFF1C20C4F2000040F2EE210C221423E5
:1099F00003F0F2FF002640F2A64000BF37F8161031
:109A0000814217D20136102EF8D110260F2E19D808
:109A100004F12601002040F29D4200BF31F81030D1
:109A2000934212D201300F28F8D1102411E0012006
:109A300001B0F0BD2846314604221C2303F0CCFFC0
:109A40000F2EE5D9022001B0F0BD441CC0B200F0D9
:109A50002DF800200F2C88BF032001B0F0BD0000BE
:109A600010B58024C4F200040146204604220023DD
:109A700003F0B2FF20460121042203F08DFF10BD48
:109A800080B50021FFF7D0FD80BD0000B0B50446D1
:109A9000002503E00135192D08BFB0BD24FA05F0FB
:109AA000C007F7D0E8B2FFF7EBFFF3E780B500F0AF
:109AB0000F0142F20000C4F210000422012303F05F
:109AC0008BFF80BD012202FA01F1002818BF41F08E
:109AD000410040F27411C4F21001086070470000A8
:109AE00044F27C50C2F200000021017244F298401E
:109AF000C2F200008170704780B546F64821C2F27C
:109B000000010A6845F27A60C1F23420824202D034
:109B1000086003F0E5FA44F27E30C2F20000012151
:109B2000017047F27630C2F200000221017047F264
:109B30007830C2F2000040F2A551018080BD0000E3
:109B400047F27630C2F200000221017047F278300D
:109B5000C2F2000040F2A651018044F27E30C2F20F
:109B60000000012101707047CC2807D0DD2818BF04
:109B7000704744F2E971C2F2000103E044F60A01C1
:109B8000C2F200014A1C80B50870107008462021FE
:109B900002F0FEFBBDE880407047000001607047A6
:109BA00080B547F2E010C2F200004078802808BF7C
:109BB00000F002F880BD000010B510A0F3F782FBA2
:109BC00047F2E014C2F20004B4F8031013A0F3F754
:109BD00079FBB4F8051015A0F3F774FBE17917A031
:109BE000F3F770FBE07904F1080100220A5417A092
:109BF000F3F768FB03F090FE10BD00BF5B55434DCB
:109C000020436F6D6D616E645D204D6F6469667990
:109C10002055534220496E666F3A0A005649443A2D
:109C2000203078253034580A000000005049443A6A
:109C3000203078253034580A000000004E616D65F0
:109C40004C656E6774683A2025640A004E616D6544
:109C50003A25730A0000000010B546F6FF74C2F200
:109C600000040021217000F007F82178002908BFC6
:109C700002F0F4FB10BD0000B0B5C57F044602F051
:109C800081FC854215D147F2E015C2F20005287823
:109C9000012815D000285CD1B4F90200B0F1FF3FD3
:109CA0002ADD4FF23160C0F20220F3F70BFB0220F5
:109CB000B0BD024630A02946F3F704FB0120B0BD39
:109CC0006288100414D4B5F82E116FF3DF32501CE3
:109CD000884227D195F82D0122791118B1F5967F88
:109CE00027D33EA0F3F7EEFA00F084F80320B0BDCE
:109CF00029A0F3F7E7FA18E00020227985F82D0172
:109D0000611D681CFDF7B7FE6088217995F82D214B
:109D10006FF3DF30A5F82E01501885F82D010120D2
:109D2000287016E023A0F3F7CDFA00F063F80220C4
:109D3000B0BD28440130611DFDF79DFE608821798A
:109D400095F82D216FF3DF30A5F82E01501885F816
:109D50002D01B5F82E0100281CBF0020B0BD46F62D
:109D6000FF70C2F2000001210170FFF719FF00F03F
:109D700041F80020B0BD00BF5B55434D5D2043520C
:109D800043204572726F723A20253032582C2025BC
:109D90003032582E0A0000005B55434D5D2052655D
:109DA00070656174206669727374207061636B659D
:109DB000742E0A005B55434D5D204572726F722010
:109DC0007061636B657420736571756E656E636534
:109DD000202564202D3E2025642E0A005B55434D2E
:109DE0005D20427566666572206F766572666C6F7F
:109DF000772E0A0047F2E010C2F20000002180F83E
:109E00002D11A0F82E1101707047000041B2B1F180
:109E1000FF3F46F6186100F07F00C2F2000101EB3F
:109E200000104FF0FF314FF0000204DDC0E91912BD
:109E3000C266703003E0C0E90112C2601030002138
:109E400001607047400600D0704746F6D850C2F215
:109E5000000003785B060AD14378062B07D190F8FF
:109E600003C04FF48073B3EB0C2F08BF7047C0885A
:109E70001368884288BF43F00403136070470000F2
:109E800041B2B1F1FF3F46F6186100F07F0340F6A2
:109E90001010C2F20001C4F2180001EB03110BDD37
:109EA00001F1640193B14FF6FF7C00EB4310C0F267
:109EB000070C00F5007010E001F104015BB14FF6F2
:109EC000FF7CC0F2070C00EB431006E000F50070C9
:109ED0004FF07F0C01E04FF07F0C0368087B800798
:109EE0004FF0000058BF70478A6803EA0C03D21A8B
:109EF0004FF0FF33C1E90032886001207047000055
:109F000070B541B2B1F1FF3F1EDC10F07F016FF080
:109F10001F0240F6101302EB4112C4F218031A4458
:109F200002F1200246F6186C04BF40F61012C4F28B
:109F30001802C2F2000C14680CEB0112134653F81D
:109F400010EF5FEA4E7501D4002070BD4FF6FF752B
:109F5000C0F20705002908BF7F252C424FF00004FE
:109F60001BD155686E1C18D0D468A542ECDC0CEBF4
:109F7000C1019268B1F8C510121BC1F30A1192FB1E
:109F8000F1F606FB11210029DED12EF00401196043
:109F900000210122012400F099FD204670BD00003F
:109FA00080B500F015F800F083FE1820C4F2180008
:109FB0000021016040F61C00C4F21800016046F662
:109FC0001860C2F20000C0F80411C0F8F41080BD9F
:109FD00070B546F61860C2F20000002505808020AA
:109FE000002100F0C7FE00BFEEB2013545F0800051
:109FF000C4B22046002100F0BDFE204600F026F944
:10A00000042EF1D300200021002500F0B3FE00BF94
:10A01000EEB20135ECB22046002100F0ABFE204646
:10A0200000F014F9042EF3D370BD000010B5817850
:10A0300046F6186301F07F01C2F2000303EBC1048E
:10A040004278B4F8C51062F38301A4F8C510828881
:10A0500062F30E11A4F8C510827821F0010141EAE3
:10A06000D211A4F8C5108278C178104600F09CF98E
:10A07000B4F8C50040F002010220A4F8C51010BDDC
:10A08000B0B582B0044640B246F61861B0F1FF3F69
:10A0900004F07F0240F61010C2F20001C4F2180072
:10A0A00001EB02110BDD01F1640592B14FF6FF7176
:10A0B00000EB4210C0F2070100F500700CE001F166
:10A0C000040542B14FF6FF71C0F2070100EB4210E8
:10A0D00002E000F500707F2102682868431C1CD054
:10A0E0001140D5E90132511A401A1944002828605C
:10A0F00069600FDD69460DF10602204600F048FA5E
:10A100000099BDF806202046A96000F0DFFC002081
:10A1100002B0B0BD4FF0FF302860012002B0B0BDEA
:10A1200010B51024C4F218042068B0F1FF3FFBDC26
:10A13000206840F001002060642003F0EBFA00BFCB
:10A140002068C007FCD110BD4FF6180040F6000192
:10A15000CFF6FF70C4F218010A5848F238039A4348
:10A160000A500A6842F0807242F003020A600A68EC
:10A1700022F4FE620A600A6822F400020A600A6899
:10A1800022F004020A6040F60402C4F218021368C6
:10A1900023F00203136046F61862C2F20002D2F8FE
:10A1A000F4200B581A4342F440520A507047000002
:10A1B00010B540F604040128C4F2180407D10020A9
:10A1C00000F0F4FC206840F00100206010BD206821
:10A1D00020F00100206046F61860C2F2000001780D
:10A1E00001F0F901017010BD46F61861C2F20001DC
:10A1F000B1F8F800002840F63000C4F218000DD085
:10A2000002686FF359420260B1F8FE2003686FF3F1
:10A210005F2243EA424242F480320260B1F8FA20FF
:10A22000B1F8FC301A4308BF7047036840F2FC7C69
:10A2300023EA0C030360B1F8001103680CEA810102
:10A2400043EA4202114301607047000010B5044622
:10A2500040B240F6001CC4F2180CB0F1FF3F04F00D
:10A260007F0020DDC8B3411E0CEB4112D2F8201252
:10A2700041F00061C2F82012D2F82012B1F1FF3F84
:10A2800005DC02F508710B6843F090430B60D2F8CF
:10A290002812D2F828321943C2F828124FF480311C
:10A2A0008140CA434EE098B3421E0CEB4212134663
:10A2B00053F8201F41F0006119601968B1F1FF3FA8
:10A2C00003DC196841F080411960916A936A19436F
:10A2D000916201218140CA4334E0DCF8001241F070
:10A2E0000061CCF80012DCF80012B1F1FF3F05DC90
:10A2F000DCF8001241F08041CCF80012DCF80812C2
:10A30000DCF808221143CCF808126FF4803219E00F
:10A31000DCF8002042F00062CCF80020DCF80020DD
:10A32000B2F1FF3F05DCDCF8002042F08042CCF8BF
:10A330000020DCF80820DCF808301A43CCF80820AC
:10A340006FF001025CF8E41C11404CF8E41C00F0D2
:10A35000C9F82046FFF75AFD10BD000080B546F64B
:10A360001860C2F200000421417046F69851C2F212
:10A37000000100200022002300F0BAFC00F0F6F8F3
:10A3800080BD000080B546F61860C2F200000521CD
:10A39000417046F6D851C2F200010020002200238D
:10A3A00000F028FC80BD0000B0B543B240F60812B2
:10A3B000C4F21802B3F1FF3F00F07F0026DD002851
:10A3C0004DD046F61863C2F2000303EBC003B3F8A6
:10A3D000C53002EB4015C3F30A13D5F8F84101F07C
:10A3E000030144EA8141194341F0805141F40041A5
:10A3F000C5F8F811D5F80012D5F800321943C5F8A0
:10A4000000124FF4803101FA00F04BE0D8B346F669
:10A410001863C2F2000303EBC003B3F8C53002EBCC
:10A420004014C3F30A1C4FF0707301F0030E03EAEB
:10A43000805354F8085C43EA8E432B4343EA0C03F1
:10A4400043F0805343F40043410144F8083C53581F
:10A4500055582B435350012101FA00F022E0D2F865
:10A46000F80101F0030140EA814040F40040C2F8E5
:10A47000F801D2F80002D2F800120843C2F8000234
:10A480004FF480300EE052F8080C01F0030140EA6E
:10A49000814040F4004042F8080C106811680843FD
:10A4A0001060012052F8EC1C084342F8EC0CB0BDDF
:10A4B00040F60400C4F21800016841F40071016024
:10A4C00001680907FCD51021C4F218010A6842F09E
:10A4D00010020A600A68D206FCD4016841F4806167
:10A4E000016070471022C4F218025168490640F614
:10A4F0000401C4F2180103D40B6843F080030B601D
:10A5000053685B06FCD500BF1368B3F1FF3FFBDC6B
:10A5100013689B06FCD400F01F00800120301060FF
:10A5200010688006FCD4086840F4807008607047AA
:10A5300046F6D850C2F20000704700004C20C4F22A
:10A54000180000681021C0F3021001FA00F080B278
:10A55000704700004C20C4F2180000684FF40061FE
:10A5600000F00F0001FA00F07047000040F60030E4
:10A570001821C4F21800C6F20801016146F6D8514C
:10A58000C2F200014161016841F00441016070477D
:10A590002DE9F0410D4646F61861904642B200F0B2
:10A5A0007F00C2F2000101EBC003B3F8C530B2F185
:10A5B000FF3FC3F30A1412DD20B301EB0010466E17
:10A5C000FFF7C8FF864202D3FFF7C4FF0646A64244
:10A5D0001BD9A0190138B0FBF4F087B216E001EBEB
:10A5E00000114E68E0B1FFF7B5FF864202D3FFF7D6
:10A5F000B1FF0646A64218D9A0190138B0FBF4F005
:10A6000087B213E00127264619E00127FFF796FFDE
:10A61000874202D3FFF792FF074607FB04F60EE0DE
:10A62000A64228BF2646012709E00127FFF786FF3B
:10A63000874204D9FFF782FF074600FB04F62E602D
:10A64000A8F80070BDE8F081B0B584B046F6186493
:10A65000C2F200046078013804283BD8DFE800F03B
:10A66000033C2257360046F6D855C2F2000528783A
:10A67000C00656D1687809284FD0052851D140F638
:10A680000000C4F21800016821F4FE6101606988CD
:10A69000026801F07F0142EA01110160207840F078
:10A6A00010003DE000200025FFF7EAFC90B10120FA
:10A6B0008DF80400A06ED4F80411039001A8ADF841
:10A6C00008508847FFF74AFE04B0B0BD0120607013
:10A6D000FFF74CFF04B0B0BD8020FFF711FC00284D
:10A6E000F8D18020FFF7CCFC0028F3D001208DF8B2
:10A6F00004004FF48070ADF808000020D4F8041175
:10A70000039001A88847FFF73DFE04B0B0BD0120CB
:10A710006070FFF72BFF04B0B0BD207840F0200040
:10A7200020700020D4F804118DF8040001A8884797
:10A73000022808D01028CDD1287800F0800000F041
:10A740000BFB04B0B0BDEA88002ABBD095F900002D
:10A750000321002848BF02216170BBD446F6D851BE
:10A76000C2F200010020002300F044FA04B0B0BDA2
:10A77000002804BF0420704780B546F61861C2F275
:10A78000000100220A8090E80C50006901F1F407F2
:10A7900087E80C50C1F8040100F052FA022080BD95
:10A7A0002DE9F04F83B01425C4F21805D5F800A0A8
:10A7B000286840F61C0440EA0A0046F61869C4F20C
:10A7C000180428605FEACA40C2F2000937D5D4F8FD
:10A7D000E40240F00060C4F8E40200202118D1F83F
:10A7E0000423203042F00062A028C1F80423F5D1F0
:10A7F00000F0F4F9206841F22D1140F001102060C2
:10A8000054F80C0C40F00D0044F80C0C54F8080CF3
:10A81000084344F8080C54F81C0C20F4FE6044F87B
:10A820001C0C686840F4402068600220D9F80411CC
:10A830008DF8000068468847062089F800005FEA26
:10A840008A401FD5012089F80100D4F8E40020F0E7
:10A850000300C4F8E400D4F8E40240F00040C4F877
:10A86000E402FFF783FEB9F8C50048F20D01084085
:10A8700099F8001000F20240A9F8C50041F0080064
:10A8800089F800005FEA4A3044BF99F800005FEAA7
:10A89000007035D45FEA0A3044BF99F800005FEADF
:10A8A000007076D45FEA0A7009D599F8F4000007C1
:10A8B00044BF99F800005FEA007000F1D8805FEAB9
:10A8C0000A5044BF99F800005FEA007100F1B980B6
:10A8D000BAF1FF3F00F3C78099F80000010740F18B
:10A8E000C28000F0F90089F80000002000F05EF955
:10A8F0000520D9F804118DF8000068468847B2E0B9
:10A9000054F8040C216840F60817084086B2C4F2D7
:10A9100018074FF0010B4FF000080AE0FFF794FE14
:10A92000C4F8EC5008F10108B8F1060F07F1200750
:10A93000B0D026FA08F0C007F4D0B8F1000F1DD04F
:10A940003868C1073860EDD068F07F00C5B228468E
:10A95000FFF7D6FA0028E5D12846FFF791FB00283B
:10A96000E0D00020D9F80411029068468DF800B0BC
:10A970008DF804808DF805B08847D3E7D4F8EC5003
:10A98000E807CDD099F801000428C7D00228C5D027
:10A99000C6E754F8040C216840F6083B0840060C52
:10A9A00009F16807C4F2180B4FF0000818E0012005
:10A9B0008DF800003868D9F80411029000208DF855
:10A9C000050068468DF80480884700BF08F101083B
:10A9D0000BF1200BB8F1060F07F110073FF462AF3F
:10A9E00026FA08F0C007F1D0B8F1000F12D0DBF85A
:10A9F0000000C107CBF80000E8D008F07F0528462A
:10AA0000FFF73EFA0028D2D12846FFF739FB00288D
:10AA1000CDD1DBE7D4F8EC020107C4F8EC020AD48C
:10AA2000C007D3D099F80100052801D00328CDD163
:10AA3000FFF70AFECAE7012089F80100FFF704FECC
:10AA4000C4E740F0060089F80000012000F0AEF8ED
:10AA50000420D9F804118DF8000068468847BAF13F
:10AA6000FF3F7FF739AF002003B0BDE8F08F032030
:10AA7000D9F804118DF80000684688471FE70000E8
:10AA800042B240F6001100F07F00C4F21801B2F1AA
:10AA9000FF3FA0F1010201EB42120CDD02F508724A
:10AAA000002808BF01F500721068800244BF012031
:10AAB000704700207047002818BF02F12001086885
:10AAC000800244BF012070470020704743B2B3F1B9
:10AAD000FF3F00F07F0018DDE8B36FF3DF416FF355
:10AAE0009F2241EAC2416FF01F0202EB401040F684
:10AAF0000012C4F218021044C0F83012D0F820122C
:10AB000041F00441C0F820127047C8B36FF3DF4131
:10AB10006FF39F2240F6001341EAC2416FF01F021B
:10AB2000C4F2180302EB401001F100511844016314
:10AB300050F8201F01F44021B1F5802F30D153F897
:10AB4000F81C0268C9054FF0144158BF4FF024416A
:10AB500011430160704701F07F00002A18BF00F523
:10AB6000002040F6001100F1C040C4F21801C1F805
:10AB70001002D1F8000240F00440C1F80002704712
:10AB800001F07F0002F0030140EAC14040F60011ED
:10AB9000C4F218010861086840F00440086070477A
:10ABA000016841F0044101607047000080B5012850
:10ABB00008D140F60060C4F21800016841F00101BC
:10ABC000016007E040F60400C4F21800016821F0BB
:10ABD00001010160142002F09DFD80BD80B51020B0
:10ABE000FFF780FCFFF764FCFFF7F2F900F060F874
:10ABF00080BD000080B500F07F00052802D85FEA24
:10AC0000817C01D0042080BD6FF01F0C40F6003E17
:10AC10000CEB401CC4F2180EF4440CF1200C00287C
:10AC200004BF40F6003CC4F2180CDCF800C05FEA38
:10AC30000C4C5CBF082080BD00F0F2F8022080BD03
:10AC400010B50C24C4F21804206840F040002060C5
:10AC5000FFF766FA54F8040C43F6084140F0270069
:10AC600044F8040C206822688843104342F20841EB
:10AC700008432060E06840F00600E06000F0BAF8A9
:10AC80001020FFF72FFCFFF713FCFFF75DFAA06819
:10AC9000A1680843A06054F8080C54F8081C084345
:10ACA00044F8080C00F004F8FFF79EFA10BD00000D
:10ACB00046F6186CC2F2000CACF1100106224FF0FF
:10ACC000FF330020C1E90530C1E90700013A01F175
:10ACD0001001F7D100204FF0FF3100220CEB0203EE
:10ACE0001032602AC3E91910D8661867F6D1704788
:10ACF00070B582B0064600F07F000528019302D8A7
:10AD00000D46890702D0042002B070BD14466FF0D2
:10AD10001F0140F6001201EB4011C4F21802114469
:10AD20002031002804BF40F60011C4F21801086861
:10AD3000000402D4082002B070BD01AA30462146AA
:10AD4000FFF780F8019B46F080002946224600F07C
:10AD500067F8022002B070BD10B50121012400F097
:10AD600009F846F61860C2F200004470FFF7FEFBD7
:10AD700010BD000080B54FFA80FC10F07F006FF02E
:10AD80001F0240F6001E02EB4012C4F2180E02EB46
:10AD90000E0303F1200203F5087302BF40F6001210
:10ADA000C4F218020EF50073BCF1FF3F08DD18680D
:10ADB00001290CBF40F4001020F40010186080BD81
:10ADC000136801290ED1D2F800C04FF40011002BF6
:10ADD00044BF0021C4F2200141EA0C011160FFF7D9
:10ADE00081FB80BD23F400101060106840F080509B
:10ADF000106080BD2420C4F2180040210160402171
:10AE0000C0F220014160DC30602100BF41F400123B
:10AE10002031B1F5807F40F8042FF7D17047000052
:10AE2000B0B582B0044640B246F6186540F6141C30
:10AE3000B0F1FF3F04F07F00C2F20005C4F2180C2D
:10AE400005EB001509DD643500281ABF0CEB401036
:10AE5000C0F80012CCF8001208E0002805F1040543
:10AE60000EBFCCF8001040014CF800100020C5E9DE
:10AE7000002069460DF106022046EB60FFF788FBD3
:10AE80000099BDF806202046A960FFF71FFE0020AC
:10AE900002B0B0BD44F65000C2F2000000210170C3
:10AEA0007047000044F65000C2F20000017800290B
:10AEB00004BF01210170704744F2D270C2F2000059
:10AEC0000178002918BF70470021017044F2D37047
:10AED000C2F200000170704744F2D270C2F200006A
:10AEE0000121017044F2D370C2F200000021017010
:10AEF0007047000044F2D270C2F2000000210170DD
:10AF000044F2D370C2F200000170704744F2D27074
:10AF1000C2F200000021017044F2D370C2F20000BE
:10AF2000012101707047000044F2D571C2F20001A6
:10AF3000087044F2D470C2F2000001210170704721
:10AF400010B582B00DF1070002F04CF89DF8071023
:10AF5000084307D044F27850C2F20000012101708A
:10AF600002B010BD46F64420C2F200000124047075
:10AF700046F6A070C2F2000002F07CF900F0DEFBA1
:10AF800046F6482145F27A60C2F20001C1F234204F
:10AF9000086002F0A5F846F67050C2F200000321E6
:10AFA000017044F27E30C2F20000047044F2785026
:10AFB000C2F200000021017047F27831C2F20001B4
:10AFC000A9200870012002F02BF902B010BD00008A
:10AFD000F0B581B00178002900F0ED804178A52915
:10AFE00040F0E98044F62A05C2F20005297844F6CB
:10AFF0000907C2F2000751B3397841B344F26C310A
:10B00000C2F200010A780F2A0ED890F9016144F6C5
:10B010000A045300B6F1FF3FC2F200040DDD002622
:10B02000E65490F801610DE001220A7000213970A8
:10B0300044F2E871C2F2000108E00126E65490F8FB
:10B040000161764243F00103E65401320A7044F292
:10B050007E31C2F200010A78013A032A2BD8DFE8D8
:10B0600002F0022E51680278032A40F0A48083780F
:10B07000012B03D1C378002B00F0A180032A40F0FC
:10B080009A808278012A40F09680C078012840F0AA
:10B09000928002220A7047F27631C2F20001032246
:10B0A0000A7047F27831C2F2000140F2A5120A801C
:10B0B000887001B0F0BDFEF71FFD01B0F0BD027851
:10B0C000062A78D18278022A75D1D0F8030046F694
:10B0D00048240322C2F200040A70206002F000F843
:10B0E00047F27630C2F200000621017047F2783054
:10B0F0002268C2F2000040F2A5210180C0F80220BF
:10B1000001B0F0BD0278022A55D18078032852D1CF
:10B110000420087047F27630C2F20000022101706C
:10B1200047F27830C2F2000040F2A531018001B050
:10B13000F0BD017802293ED1807804283BD146F643
:10B140007050C2F200000422027046F64820C2F29B
:10B15000000046F644210068C2F2000102240C708F
:10B1600000F010FC47F27630C2F20000047047F2A3
:10B170007830C2F2000040F2A541018044F2B450A0
:10B18000C2F2000000210170FDF786FD287800283A
:10B1900093D03878002890D044F26C30C2F200008E
:10B1A000012101700020387044F2E870C2F2000002
:10B1B000017001B0F0BDFEF79FFC01B0F0BD0120B1
:10B1C000087047F27630C2F200000321017047F2A6
:10B1D0007830C2F2000040F2A5110180837001B006
:10B1E000F0BD000070B50278002A00F09080417830
:10B1F000A62940F08C8044F27E31C2F200010B7827
:10B20000042B26D0022B4CD0012B40F08080032A47
:10B210007DD18378012B03D1C378002B00F083808C
:10B22000032A74D18278012A71D1C07801286ED1A5
:10B2300002220A7047F27631C2F2000103220A703C
:10B2400047F27831C2F200014FF4D3720A8088705D
:10B2500070BD022A5BD18078042858D146F644207C
:10B26000C2F200000221017046F67050C2F20000E6
:10B270000422027047F27630C2F20000017047F2F9
:10B280007830C2F2000040F2A641018000F056FA88
:10B29000FDF702FD44F2B450C2F20000002101703B
:10B2A0002EE0062A33D18278022A30D190F805C0E8
:10B2B00090F806E0C27803794FEA0C4040EA0E604D
:10B2C00040EA0320841846F64820C2F200000568D0
:10B2D00047F27630C2F200000626067047F2783058
:10B2E000C2F20000A626AC42067013D102244470BC
:10B2F0008270C37080F804C080F805E004200870F4
:10B3000044F2D470C2F200000121017070BDFEF75A
:10B3100017FC70BD052141708270C37080F804C0B5
:10B3200080F805E070BD0120087047F27630C2F267
:10B3300000000321017047F27830C2F200004FF4A0
:10B34000D3710180837070BDB0B544F27C55C2F2F8
:10B350000005E87A002430B1EC7200F087FF044663
:10B36000002818BF012495F82B0058B1002085F85B
:10B370002B0005F10C0106201F2200F08FFF002892
:10B3800018BF012495F82E0058B1002085F82E0032
:10B3900005F12C010320022200F080FF002818BFD5
:10B3A000012495F8310058B1002085F8310005F1ED
:10B3B0002F010420022200F071FF002818BF012491
:10B3C00095F8370058B1002085F8370005F13201B3
:10B3D0000220052200F062FF002818BF0124204649
:10B3E000B0BD000080B544F65400C2F20000012157
:10B3F0004FF2AF1244F6AC0E0023C0F20222C2F2AA
:10B40000000E4FF4FA7C8362C0E9041144F69C01FB
:10B41000C0E9062EC0E908C3C2F200014FF0100CCB
:10B42000C0E90B32C0E90D1C45F25241C0F2540193
:10B43000C363C0E91033C0F8071044F24751C0F2AB
:10B440005201BFF35F8FC0F8031044F25351C4F2AE
:10B45000477101602021BFF35F8F8171BFF35F8F60
:10B4600080BD0000C268016991428FBFD0438068EF
:10B47000D2431144084470472DE9F04381B0C768B6
:10B4800014460D4680464FF0000920E0D8F8081019
:10B49000FA4310440844D8E90121CE1BB04238BF1A
:10B4A0000646A64228BF2646D01929463246FCF752
:10B4B000E2FAD8F80800F119A41B0F1AB144354478
:10B4C00018BF0F46BFF35F8FC8F80C702CB1D8F8C7
:10B4D00010008742DAD2F943DCE7484601B0BDE804
:10B4E000F08300002DE9F04104468068E668884654
:10B4F0006168871B1546974201EB060009D9414652
:10B500002A46FCF7B8FA3544BFF35F8FE560BDE823
:10B51000F08141463A46FCF7AEFAED1B606808EB55
:10B5200007012A46FCF7A7FABFF35F8FE560BDE885
:10B53000F08100004EF28020CEF200004FF48051E6
:10B54000016070474EF28010CEF200004FF480513F
:10B550000160BFF34F8FBFF36F8F70474EF2001043
:10B56000CEF200004FF4805101607047C900B1FB7A
:10B57000F2F20023D109B3EBD25F41620ED169B17F
:10B580004FF6FF7302F07F02C91A02F1010218BFE1
:10B5900051088162C16AC162704700BFFEE70000C6
:10B5A0008069C0F3001070478069C0F34010704795
:10B5B000C06B7047F0B581B0044600200D46206393
:10B5C0006064A06360606062A062E0622B69C96829
:10B5D000174620461A46FFF7C9FF69782878802663
:10B5E00006EA4116AA7846EA401001F00301EB781A
:10B5F00040EA410040EA021040EAC300E062B5F8C8
:10B600000900000400BA6063A76368792979000221
:10B61000AA7940EA4120E97910442A7A40EAC13007
:10B6200040EA8230206301B0F0BD000046F66E5063
:10B6300046F66F51C2F20000C2F2000100780978AC
:10B64000401AB0FA80F040097047000046F66E508C
:10B65000C2F2000000780130C1B2143918BF0146AF
:10B6600046F66F50C2F200000078C9B2081AB0FA6C
:10B6700080F040097047000046F66E50C2F20000AC
:10B680000021017046F66F50C2F200000170704751
:10B6900046F66E50C2F20000017801310170017867
:10B6A000142924BF002101707047000046F66F5036
:10B6B000C2F200000178013101700178142924BF21
:10B6C000002101707047000080B544F26E30C2F274
:10B6D0000000C18982890131C181511C8AB2052AC9
:10B6E00088BF0021818189B230F8110046F6A0712F
:10B6F000C2F20001488101F017FD80BD80B546F619
:10B700007050C2F20000052101700C2001F05CFDB8
:10B7100044F26E30C2F200000021C181FFF7D4FF75
:10B7200047F27630C2F200000121017047F2783012
:10B73000C2F20000AA21017080BD000010B544F2E1
:10B740006E34C2F2000420880021E16001F0ECFCBC
:10B75000A08946F6A07134F81000C2F200014881B9
:10B7600010BD0000B0B544F2D874C2F20004D4E9B0
:10B77000000140EA0105F1F78BFD55B3D4E9002340
:10B78000801A40F64052C0F203029941801A71F1CA
:10B79000000023D3F1F77CFDC4E90001FCF770FA47
:10B7A0000446F1F775FD44F2E072C2F20002012C8A
:10B7B00012D1D2E90023801A4CF2C062C0F22D02ED
:10B7C0009941801A71F1000038BFB0BDFFF79EFBB0
:10B7D000B0BDC4E90001B0BDC2E90001B0BD0000C8
:10B7E00080B5FCF74FF84EF61420C0F20220F1F7B6
:10B7F00007FE01200121F1F761FCFEF7DFF802F0FE
:10B8000031F94DF66951C0F202210C200022F1F706
:10B81000FDFD47F27730C2F2000002F07FFA02200D
:10B820000021F1F74BFC01F085FF80BD80B5FCF7EE
:10B8300021FA20B3FCF72AFA012820D0FCF720FADD
:10B8400001281CD0FFF7F2FE002818BF80BD46F685
:10B850006F52C2F20002107846F64E2100EB8000D3
:10B86000C2F2000101EBC00040780938082817D85F
:10B87000DFE800F00505233343060605050080BD1B
:10B88000107800EB800001EBC0004078127802EBEA
:10B89000820201EBC20103310222FDF715FE80BDD9
:10B8A00047F27630C2F200000221017047F2783090
:10B8B000C2F20000A021017080BD107800EB800072
:10B8C00001EBC0004078127802EB820201EBC2016A
:10B8D00002310822FDF7F8FD80BD107800EB8000F2
:10B8E00001EBC0004078127802EB820201EBC2014A
:10B8F00003311F22FDF7E8FD80BD107800EB8000CA
:10B9000001EBC0004078127802EB820201EBC20129
:10B9100003310522FDF7D8FD80BD000080B54BF650
:10B920003110C0F2022000210022DAF77BFB80BD3B
:10B9300080B501F0DFFA44F2B450C2F200000121F8
:10B940000170F1F7A5FC44F2B852C2F20002C2E95C
:10B95000000101F0B5FEFDF7D1F980BD80B582B0E0
:10B960000DF10601E020DFF78FF9014600284FF0C6
:10B97000000005D0BDF80620052A08BFD1F8010057
:10B9800002B080BD10B582B004460DF10601E02082
:10B99000DFF77AF9014600284FF001000BD0BDF81F
:10B9A0000620052A07D102200870E020C1F80140D6
:10B9B000DFF700FA002002B010BD000080B582B0B1
:10B9C0000DF10601E020DFF75FF928B1BDF80600B0
:10B9D000052801D102B080BD4EF21071C0F20221E3
:10B9E000E0200522DFF7A0F902B080BD80B582B06B
:10B9F0000DF10601E020DFF747F9014600284FF07E
:10BA0000000004D0BDF80620052A08BF087802B05F
:10BA100080BD000080B582B00DF10601E020DFF7A7
:10BA200033F970B10078013802280AD8E020DFF736
:10BA300081F94EF21071C0F20221E0200522DFF7F9
:10BA400073F902B080BD000080B501F05FFDFFF723
:10BA5000B5FF80BDB0B5044640881044392824BFE6
:10BA60000020608060888518382D88BFB0BD2044D4
:10BA70000430FCF700F86580B0BD0000002070477E
:10BA80000020704710B50120012400F079F84EF233
:10BA90000A72C0F2022201200121DBF7E9FB46F61F
:10BAA0007350C2F20000047010BD000080B546F66D
:10BAB0007350C2F200000178012918BF80BD002137
:10BAC000017000F001F880BD80B5012000F058F849
:10BAD00080BD000080B5012000F042F800F05AF867
:10BAE00080BD000080B546F67550C2F200000078B7
:10BAF000012808BF00F002F880BD000080B544F2C4
:10BB00008030C2F2000000884FF6FF71884208BF03
:10BB100080BDDBF785F846F67450C2F200000121C3
:10BB2000017080BD80B546F67450C2F20000017805
:10BB3000012904D10021017000F02CF880BDFFF72D
:10BB4000A1FF80BD80B546F67650C2F200000178B4
:10BB5000012918BF80BD0021017001F0A5FB80BD47
:10BB600046F67251C2F200010A7822EA000008701B
:10BB70007047000046F67250C2F20000007870472D
:10BB800046F67251C2F200010A78002818BF10432D
:10BB90000870704780B546F67550C2F20000017813
:10BBA000012918BF80BD0021017001F0BDF980BDE1
:10BBB00080B544F64C00C2F200004078C00708BFD0
:10BBC00080BD0120FEF7F4FA0020FEF7F1FA80BDF7
:10BBD00080B54FF40000FDF717FDFEF7E1F94FF4D3
:10BBE0000000FDF753FF00200021FDF76BFF80BD33
:10BBF0002DE9F0410178044605294FF0020000F2DA
:10BC00004781DFE811F00600310071004501950021
:10BC1000A200FEF78DFC0246007800F01F01022909
:10BC200000F0D680012900F0EA8000291CBF102016
:10BC3000BDE8F0815178092900F23E820220DFE858
:10BC400011F00A005B013B0268013B022701780109
:10BC50003B028E019B0144F64C00C2F200000068DA
:10BC6000022101EAD010C0E06079012800F07C8058
:10BC7000002840F0AA80207998B9FEF759FC44F2D8
:10BC80007C51C2F200018A7A5AB100228A7200788D
:10BC90004872FFF749F9FFF705F9FFF70DF9FBF7D0
:10BCA000A3FF2079032800F0E280052840F08D8072
:10BCB000FBF79AFF44F29C40C2F2000001788A1E12
:10BCC000042A00F29481DFE802F00303030A030070
:10BCD000A16844F29C40C2F20000F1F7F3FB00F0CF
:10BCE000DFFB0220BDE8F08144F64C00C2F2000008
:10BCF000016840F20112114346F6FC72C2F20002E2
:10BD00000023137046F6FD72C2F2000221F0FE011C
:10BD1000137046F6FE72016044F2CC30C2F20002AB
:10BD2000C2F20000012113700170FFF7B3F814E0B4
:10BD300044F64800C2F2000000214170FBF74CFFBE
:10BD4000FFF7CAF80220BDE8F08144F64800C2F2CD
:10BD5000000001214170FBF747FFFFF7CBF8FDF72B
:10BD6000BFFE0220BDE8F081207944F29845C2F27E
:10BD7000000570B9287801280BD10020287000F048
:10BD80008FFBFBF731FFFDF7ABFEFFF78BF8FFF7FB
:10BD900093F8207944F64806C2F2000640B930789C
:10BDA000012805D10020307000F0B6FB0120707032
:10BDB0002079042869D002286CD0012805D144F2EA
:10BDC0007C50C2F20000002101720220BDE8F08127
:10BDD0005078032800F00181012800F0018100283B
:10BDE00040F06A811079FEF74BFE44F21C51C2F21A
:10BDF0000001087000204870002002227FE1C0F39B
:10BE0000411001284BD0002840F0568150780B2873
:10BE100000F0F8800A2800F00481062840F04C81E8
:10BE2000D0784FF40851B1EB002F40F04581908855
:10BE3000022800F08F81012800F09F81002840F047
:10BE40003B81D2884EF23C61C0F2022100200023E7
:10BE5000442A28BF44220024FEF74AFF44F27C51C2
:10BE600040F00200C2F200010C72BDE8F08144F61D
:10BE700048012089C2F2000101224A7000F03AFA1A
:10BE800000F04AFB0220BDE8F0810020A8700220EB
:10BE9000BDE8F0810020B0700220BDE8F08150784C
:10BEA000411E0A294FF0100088BFBDE8F081DFE88D
:10BEB00011F00C000B00DA000B000B000B000B0064
:10BEC0000B00E200F800FF00E2E7D0784FF4807149
:10BED000B1EB002F40F0F0809088002840F0EC801B
:10BEE00044F27C51C2F20001002008220023FEF738
:10BEF000FFFE0220BDE8F08144F64C00C2F20000D3
:10BF00000168528821F48071120708BF01F5807121
:10BF10000BE044F64C00C2F200000168528821F4A4
:10BF20008071120718BF01F5807101600220BDE821
:10BF3000F08150880321B1EB102F00F08080000ABF
:10BF4000022800F08780012840F0B680D2884EF2A7
:10BF50005451122A28BF1222C0F20221CEE044F628
:10BF60004C00C2F20000006844F21C51C2F2000111
:10BF7000087000200122C2E0508844F64C02C1B291
:10BF8000C2F20002012910701CBF0220BDE8F0813E
:10BF90004EF2F044C0F2022404F11B00FEF746F812
:10BFA000804604F13400FEF741F8054604F13B00F9
:10BFB000FEF73CF8064604F15400FEF737F8074652
:10BFC00004F15B00FEF732F848EA050131433943DA
:10BFD000084340F00200BDE8F0811079012101E042
:10BFE00010790021FEF7C6FE0220BDE8F081AA29E3
:10BFF00065D03F297FF473AE2089013880B200F00C
:10C00000E3F86CE69088022800F08580012800F0B3
:10C010008880002850D1907846F6FC71C2F2000169
:10C0200084E09088022800F08580012800F0878055
:10C03000002841D146F6FC70C2F2000083E0C1B294
:10C04000032951D840B258A15BA351F8201053F8EE
:10C0500020004EE0D2884EF2F041622A28BF6222D0
:10C06000C0F202214AE0D088012825D144F2CC3127
:10C07000C2F200017DE7D078032866D002281BD1E8
:10C080009088C8B9D08801281CBF0220BDE8F08183
:10C0900044F27C50C2F20000012181720220BDE80E
:10C0A000F08191881020032938BF0220BDE8F0817B
:10C0B000508810F0FE0F29D01020BDE8F0814178A3
:10C0C000AA2907D18178AA2904D1C078AA2801D148
:10C0D000FEF736FF44F29C41C2F200018420402268
:10C0E0000023FEF705FEFAE54EF2A8611220C0F229
:10C0F0000221D288904288BF104682B200200023DD
:10C10000FEF7F6FD40F00200BDE8F08144F2CC31CC
:10C11000C2F200010AE0907846F6FE71C2F2000118
:10C1200004E0907846F6FD71C2F20001087002202A
:10C13000BDE8F08146F6FE70C2F2000003E046F66C
:10C14000FD70C2F2000000780EE7FEF7ABFE0220A1
:10C15000BDE8F081D2884EF26851C0F20221002081
:10C160000023D32A28BFD322FEF7C2FD44F2984110
:10C1700040F00200C2F2000111E0D2884EF280616C
:10C18000C0F2022100200023222A28BF2222FEF72B
:10C19000AFFD44F6480140F00200C2F20001012266
:10C1A0000A70BDE8F08100BFA4E60202A8E6020220
:10C1B000BCE60202E8E602020400000012000000F1
:10C1C0002A0000001200000080B547F2B831C2F228
:10C1D00000010A68002A08BF80BD014644F29C4065
:10C1E000C2F200000130904780BD000080B5FCF72E
:10C1F00073FB28B1082808BF80BDFCF777FC80BD21
:10C20000FCF78EFC80BD000047F2B831C2F200019D
:10C210000860704710B544F29844C2F20004627896
:10C22000D2B10246A07800281CBF022010BD4FF0FA
:10C230000300D2B14B1E3E2B88BF10BD0120A07061
:10C24000104600F055F9022808D0082808D0042824
:10C2500014BF0620052004E0012010BD002000E0EE
:10C26000042000281CBF0021A17010BDB0B544F20D
:10C270007C54C2F20004207A012804BF0220B0BD21
:10C280000120207281202146082200230025FEF78C
:10C290002FFD0228284618BF2572B0BDB0B544F264
:10C2A0009845C2F200056B78D3B10346A878002800
:10C2B0001CBF0220B0BD4FF00300D1B1541E3E2C74
:10C2C00088BFB0BD0120A870184600F0F9F8022818
:10C2D00008D0082808D0042814BF0620052004E050
:10C2E0000120B0BD002000E0042000281CBF002178
:10C2F000A970B0BD80B547F2BC31C2F200010A6836
:10C30000002A08BF80BD014644F29C40C2F20000F2
:10C31000904780BD80B50178DD2909D0CC290BD0AC
:10C32000BB290DD14178A0290ED1FDF795FC80BD28
:10C33000DD20FDF719FC80BDCC20FDF715FC80BD8C
:10C340000AA0F0F7BFFF80BDC17802A0F0F7BAFFE6
:10C3500080BD00BF4572726F72207061636B65743F
:10C360003A20307825303258000000004572726F54
:10C3700072206865616465723A20307825303258E1
:10C380000000000047F2BC31C2F2000108607047B3
:10C3900010B544F64804C2F200046278D2B10246F5
:10C3A000A07800281CBF022010BD4FF00300D2B1BE
:10C3B0004B1E1F2B88BF10BD0120A070104600F03F
:10C3C000BBF8022808D0082808D0042814BF06208B
:10C3D000052004E0012010BD002000E0042000281A
:10C3E0001CBF0021A17010BD10B586B04FF4000035
:10C3F000FDF70AF9FDF77CFA49F68171C1F25E6139
:10C40000A0FB0101880DFDF72BFB4AF2A171C0F2E0
:10C4100002211A2000220024F0F7F8FF1020112139
:10C42000FCF7C8FC01200121FDF74CFB40F60000A1
:10C43000C8F200000494CDE9024401904BF6F130BB
:10C44000C0F20220059001A8FEF792F949F20940D6
:10C45000C0F20220FDF742F806B010BD10B546F656
:10C460007754C2F20004A07000204AF2BB01C4F865
:10C470000300C4F80700C4F80B00C4F80F00C4F8A8
:10C480001300C4F81700C4F81B002046218000F0F8
:10C4900079F8E07720462021FFF77AFF10BD0000F1
:10C4A00010B544F29C44C2F2000420464021FBF740
:10C4B00009FB0520214640220223FEF79BFB10BD0D
:10C4C000B0B544F2DC45C2F2000514462A4602F833
:10C4D000010B10462246FBF7CEFA601CC2B2842044
:10C4E00029460023402A28BF4022FEF701FCB0BDA8
:10C4F00010B544F2DC44C2F200040A4601463F2370
:10C50000204600F8013BFBF7B6FA84202146402282
:10C510000023FEF7EDFB10BD10B544F29C44C2F2BF
:10C52000000420464021FBF7CDFA032021462022BB
:10C530000023FEF75FFB10BD10B544F2DC44C2F2ED
:10C5400000040A4601462046FBF795FA8220214660
:10C5500020220023FEF7CCFB10BD0000807870473E
:10C5600040F6FC7200206FF09101C0F2002200BF83
:10C5700052F8043F01311844FAD3704780B5FFF7F1
:10C58000EFFF80BD411E0020202200BF11F8013FB7
:10C59000013A012A1844F9D8C0B27047D0E9001214
:10C5A00003A0F0F78FFEF0F7CBFE00BFFEE700BF61
:10C5B0005B415353455254494F4E5D2040202573F3
:10C5C0003A25640A0000000086B000F10806D0E9B0
:10C5D00000CE70CED0E90521C3694FF2AB00C0F2A6
:10C5E0000220CDE900CECDE902450496F0F76AFEBF
:10C5F000F0F7A6FEFEE70000014602A0F0F762FE9B
:10C60000FEE700BF5B4F4F4D5D20402025640A00D0
:10C61000B0B541F200040546C4F201042046FEF71D
:10C62000C3FF0128FAD029782046FDF7B7FA002089
:10C63000B0BD0000B0B54EF60451CEF200010D6859
:10C6400004466FF35F251DB9F0F70AFE406B804783
:10C650000020FCF74DFF228961891144814202DBF1
:10C6600065B10020B0BD21680020FCF753FF616870
:10C6700062890020FCF74EFF002DF2D1F0F7F0FDAB
:10C68000806B80470020B0BD80B5FFF7C3F980BD47
:10C6900080B5FEF755FC80BD80B5FFF7A7F9FFF721
:10C6A0005DF980BD80B546F63200CAF61540FFF749
:10C6B00069F980BD0A2000BF0138FDD17047000034
:10C6C00080B582B00DF1070000F08CFC02B080BD97
:10C6D00080B582B00DF1070000F072FC02B080BDA1
:10C6E00080B54EF68D20C0F202204FF4257101F086
:10C6F00019FB80BD80B5012000F0D4FC44F2CD319F
:10C70000C2F200010A2000F08BFD80BD80B501203F
:10C7100000F0C8FCF0F7BCFD44F2CD31C2F20001DC
:10C720000A2000F07DFDF0F7B3FD80BD80B501204B
:10C73000FBF762FA002000210022F0F78FFE80BD97
:10C7400080B5FBF7CFF880BD82B04FF217180DF11E
:10C75000060401ADC0F202280FF2700925A62FA72A
:10C7600040F6621021462A46FCF7D0FBBDF80610C1
:10C77000BDF80420404601F0F9FB40F66A1021465E
:10C780002A46FCF7C3FBBDF80610BDF80420484656
:10C7900001F0ECFB40F6881021462A46FCF7B6FB78
:10C7A000BDF80610BDF80420304601F0DFFB4FF461
:10C7B0001B6021462A46FCF7A9FBBDF80610BDF810
:10C7C0000420384601F0D2FBCAE700BF467265710B
:10C7D0002032343130203A2052535349203D202515
:10C7E000642C2052585F4741494E203D2025640D5E
:10C7F0000A000000467265712032343430203A203D
:10C8000052535349203D2025642C2052585F474104
:10C81000494E203D2025640D0A00000046726571D6
:10C820002032343830203A2052535349203D2025BD
:10C83000642C2052585F4741494E203D2025640D0D
:10C840000A00000080B50020C4F21100016847F220
:10C850001032C2F200021160016D47F21432C2F2CE
:10C8600000021160D0F8001447F21832C2F2000240
:10C87000116040F20441C4F211010A6847F21C330E
:10C88000C2F200031A604A6847F22033C2F2000382
:10C890001A60896847F22432C2F200021160406EC9
:10C8A00047F22831C2F200010860FAF7F5FF00F004
:10C8B000C7FBFCF779F9FAF7EFFE80BD80B586B0CB
:10C8C0000322C0F20102019240F20112C0F2010201
:10C8D00002924FF48072ADF80C2001228DF80E20E8
:10C8E000CDE9040141F20000C4F2010001A90022D7
:10C8F000FEF760FE06B080BD10B546F6BC74C2F20D
:10C900000004227802B110BD62889AB991B14A1E22
:10C9100050FA82F2531C00BF02780D2A18BF0A2A6F
:10C9200008D101390A0600F10100F5D100210806FD
:10C9300003D1E8E703460806E5D0CAB22046194607
:10C94000FFF788F861880029DDD00819C0780D2824
:10C9500002D00A2818BF10BD881E00B201280EDBC5
:10C9600003390AB289B2511A221812790D2A18BF56
:10C970000A2A04D1013800B20028F5DC0846204418
:10C980000021417147F294110120C2F20001207090
:10C99000087010BD2DE9F04790B0012A25DB9246C2
:10C9A0000C468046E9460AE00026B2004046494669
:10C9B00001F06AFABAF1000F08EB860815DDBAF14A
:10C9C000010FF1DB002500BF2046574600F03CFF79
:10C9D0006E1CAAF1010A022F04F1040449F8250093
:10C9E000E3DB0F2D3546EFD3DFE710B0BDE8F0876E
:10C9F00080B5FEF7B7FEFEF719FF00F04BFE4FF0D3
:10CA0000FF3080BD46F62071C2F200010868013097
:10CA100008607047704700000020704746F6F870C5
:10CA200072B6C2F200000168013101607047000077
:10CA300080B582B04FF0FF31019101A9042200F0CE
:10CA400081FE02B080BD000070B5EFF3108672B6B3
:10CA5000054640F2C9700C46804740F64D008047BD
:10CA600001464BF68370A203084042EA8502104358
:10CA700080B2814202D040F60131884740F25160D5
:10CA8000804740F60D008047002E18BF70BD62B68B
:10CA900070BD000080B500F009F80021002804BF37
:10CAA00041F27801C0F20021084680BDB0B582B0E5
:10CAB00000F03AFC08B1002445E04FF4805000F04B
:10CAC000C3FE44F24371C4F64E11884238D141F29C
:10CAD000040000F0B9FE45F25301C4F64901884252
