:020000040202F6
:10700000109400201D700202DFF80CD000F01AF876
:10701000004800472D7002021094002002B5EFF3E3
:10702000088181F30988054800470000044880472B
:10703000EFF3098181F3088802BD00004570020268
:10704000A5CC0202064C074D06E0E06840F00103C3
:1070500094E8070098471034AC42F6D3FFF7D8FF06
:1070600014360302343603022DE9F05F0546002092
:1070700092469B4688460646814640241BE02846A9
:1070800041464746224600F0AAF953465A46C01ADE
:10709000914110D311461846224600F091F92D1A5D
:1070A00067EB01084F4622460120002100F088F9D5
:1070B00017EB00094E41201EA4F10104DFDC484615
:1070C00031462A464346BDE8F09F10B5431A934225
:1070D00009D28318881803E010F8011D03F8011D78
:1070E000521EF9D210BD40EA01039B0703D009E00C
:1070F00008C9121F08C0042AFAD203E011F8013BA4
:1071000000F8013B521EF9D210BDD2B201E000F8E6
:10711000012B491EFBD270470022F6E710B513463B
:107120000A4604461946FFF7F0FF204610BD421CF0
:1071300010F8011B0029FBD1801A704730B50446B6
:107140000020034600E05B1C934203D2E05CCD5C70
:10715000401BF8D030BD034611F8012B00F8012B7D
:10716000002AF9D1184670472DE9FE4F804681EA82
:107170000300C00F0C46009021F0004123F00045B1
:10718000B8EB0200A94105D24046214690461C4674
:107190000B46024623F00040104347D0270DC7F3AB
:1071A0000A00C3F30A510290401A019040286BDA9A
:1071B000C3F3130040F4801B0098924620B10023D3
:1071C000D2EB030A63EB0B0B01985946C0F1400266
:1071D000504600F0F5F806460D4650465946019ACD
:1071E00000F00DF910EB08006141002487EA11520C
:1071F00084EAE7731A4340D0009A62B3019A012AE5
:107200004FEA075215DC001B61EB02014FF0004210
:1072100002EA0752CDE90042001C41F580113246D6
:107220002B4600F00DF903B0BDE8F08F4046214633
:10723000F9E7001B61EB0201001C41F58013001807
:107240005B412018A2F5001747EB030140EAD57017
:10725000B6196D4111E06D084FEA360645EAC07572
:107260004FEA0752001B61EB0201001C41F580113F
:1072700049084FEA30000019514132462B4603B00D
:10728000BDE8F04F00F0CDB8009801224000002387
:10729000D0EB020263EBE073009821464FEAE07402
:1072A000B8EB000061EB0401E9E783F000435BE722
:1072B00081F0004158E72DE9F04D81EA030404F024
:1072C000004B21F0004514464FF0000A23F0004126
:1072D00050EA050220D054EA01021DD0C5F30A5736
:1072E0000246C5F31303C1F31300C1F30A5640F479
:1072F000801543F48013A7EB0608101BD64608F24E
:10730000FD3873EB050002D308F1010801E0921883
:107310005B41B8F1000F03DA00200146BDE8F08DB3
:1073200000204FF48011064684460EE0171B73EBD5
:10733000050705D3121B63EB050306434CEA010C5A
:1073400049084FEA300092185B4150EA0107EDD13D
:1073500052EA030012D082EA040083EA05010843DE
:1073600005D0101BAB4106D20122002306E000220B
:107370004FF0004302E06FF0010253101AEB0600D9
:107380004CEB085110EB0A0041EB0B01BDE8F04D4E
:1073900000F047B830B50B460146002020220124FA
:1073A00009E021FA02F59D4205D303FA02F5491BD3
:1073B00004FA02F52844151EA2F10102F1DC30BDE9
:1073C000202A04DB203A00FA02F1002070479140A5
:1073D000C2F1200320FA03F3194390407047202A9A
:1073E00004DB203A21FA02F00021704721FA02F36F
:1073F000D040C2F120029140084319467047202A2C
:1074000006DBCB17203A41FA02F043EAE07306E0CC
:1074100041FA02F3D040C2F12002914008431946DC
:10742000704710B5141E73F1000408DA401C41F1D6
:10743000000192185B411A4301D120F0010010BDF8
:107440002DE9F04D92469B4611B1B1FA81F202E06E
:10745000B0FA80F220329046FFF7B2FF04460F46A2
:1074600040EA0A0041EA0B0153465A46084313D04A
:10747000114653EA010019D0C8F140025046FFF707
:10748000AEFF05460E46504659464246FFF798FF66
:10749000084305D0012004E020463946BDE8F08DC0
:1074A0000020054346EAE0762C4337430A986305FB
:1074B000E40AA0EB08000022FD0A44EA47540A301F
:1074C00002D500200146E9E7010510196941DDE90F
:1074D000084500196941BDE8F04DA2E72DE9FE4FCE
:1074E00081EA030404F0004421F0004100944FF0CD
:1074F000000B23F0004350EA01045ED052EA03047B
:107500005BD0C3F30A54C1F30A552C44A4F2F334FC
:107510000194A0FB0254C1F3130141F48011C3F3A1
:10752000130343F4801301FB024400FB034E840A5F
:10753000970A44EA815447EA8357A4FB07680295F7
:107540008D0A05FB07854FEA932C04FB0C54270595
:10755000029D4FEA065847EA1637B5EB08056EEB71
:10756000070C870E920E47EA811742EA8312A7FBA7
:107570000201B6EB0B0164EB00042B0D43EA0C3364
:107580005E1844EB1C50DA465146E7FB0201C5F396
:1075900013044FEA0B3343EA14534FEA0432019CBD
:1075A00043EA0603A4F10C040294009CCDE900B464
:1075B000FFF746FF03B0BDE8F08F00200146F9E772
:1075C000C1F30A52C1F3130140F2FF3341F48011B9
:1075D0009A4202DA00200146704740F233439A4251
:1075E000A2F2334202DC5242FFF7F9BEFFF7E8BED7
:1075F00030B5041E71F1000404DB4FF0004440423A
:1076000064EB0101141E73F1000405DB1C464FF00E
:107610000043524263EB0403994208BF904230BDDD
:1076200080B5B2B00A463190ADF8C21042F669306A
:10763000C0F203200992F5F78DFD00202F90FFE79F
:107640002F98BDF8C21088420ED2FFE731982F99CB
:10765000415C42F67030C0F20320F5F77BFDFFE796
:107660002F9801302F90EBE742F66730C0F20320ED
:10767000F5F770FD3198C07F8DF8BB003198017B24
:1076800046F60512C2F20002117301684368806871
:107690009060536011609078002800F07882FFE7D6
:1076A00046F60510C2F20000C07800281ED0FFE7A1
:1076B00042F64120C0F20320F5F74CFD46F60510D6
:1076C000C2F20000017B8DF8B41001684268806846
:1076D0002C902B922A912A992B9A2C9B2D98EC4630
:1076E000CCF80000B82007F033FF4FE246F6051053
:1076F000C2F200008079002840F08C80FFE746F657
:107700000510C2F200000079002839D1FFE742F6E7
:10771000C910C0F20320F5F71DFD46F60510C2F2B0
:107720000000C17942F67222C0F20322089010468E
:10773000F5F710FD0898C17A42F68820C0F20320C0
:10774000F5F708FD0898017B42F65C20C0F20320A3
:10775000F5F700FD0898017B8DF8A41001684268D8
:1077600083682893279226912699279A289BDDF8EB
:10777000A4C0EE46CEF800C0B02007F0E9FE48E015
:1077800042F65110C0F20320F5F7E4FC46F605106E
:10779000C2F20000C17942F67222C0F203220790C1
:1077A0001046F5F7D7FC0798017942F6F620C0F2AB
:1077B0000320F5F7CFFC0798417942F6B420C0F2D8
:1077C0000320F5F7C7FC0798C17A42F68820C0F27B
:1077D0000320F5F7BFFC0798017B42F65C20C0F25E
:1077E0000320F5F7B7FC0798017B8DF8941001682A
:1077F000426883682493239222912299239A249B9E
:10780000DDF894C0EE46CEF800C0B12007F0A0FE2F
:10781000FFE7BAE146F60510C2F2000080790128C0
:1078200040F0AC80FFE746F60510C2F20000007998
:10783000002849D1FFE742F61D20C0F20320F5F7EA
:1078400089FC46F60510C2F20000C17942F6CA2250
:10785000C0F2032206901046F5F77CFC0698017AE8
:1078600042F6E020C0F20320F5F774FC0698817A16
:1078700042F69E20C0F20320F5F76CFC0698C17A10
:1078800042F68820C0F20320F5F764FC0698017BDD
:1078900042F65C20C0F20320F5F75CFC0698017B01
:1078A0008DF8841001684268836820931F921E91AE
:1078B0001E991F9A209BDDF884C0EE46CEF800C0CA
:1078C000B22007F045FE58E042F6A510C0F20320B2
:1078D000F5F740FC46F60510C2F20000C17942F609
:1078E000CA22C0F2032205901046F5F733FC059832
:1078F000017A42F6E020C0F20320F5F72BFC059850
:10790000817A42F69E20C0F20320F5F723FC059809
:10791000017942F6F620C0F20320F5F71BFC05982A
:10792000417942F6B420C0F20320F5F713FC059824
:10793000C17A42F68820C0F20320F5F70BFC0598C7
:10794000017B42F65C20C0F20320F5F703FC0598AA
:10795000017B8DF874100168426883681C931B9248
:107960001A911A991B9A1C9BDDF874C0EE46CEF84A
:1079700000C0B32007F0ECFDFFE705E146F6051077
:10798000C2F200008079022840F0FD80FFE746F651
:107990000510C2F20000C079002858D1FFE746F672
:1079A0000510C2F200000079002807D1FFE746F673
:1079B0000510C2F2000001210171FFE742F622101A
:1079C000C0F20320F5F7C6FB46F60510C2F2000030
:1079D000817A42F69E22C0F2032204901046F5F707
:1079E000B9FB0498017942F6F620C0F20320F5F7BE
:1079F000B1FB0498417942F6B420C0F20320F5F7B8
:107A0000A9FB0498C17A42F68820C0F20320F5F75A
:107A1000A1FB0498017B42F65C20C0F20320F5F73D
:107A200099FB0498017B8DF86410016842688368B3
:107A30001893179216911699179A189BDDF864C03F
:107A4000EE46CEF800C0B42007F082FD9AE046F67C
:107A50000510C2F200000079002849D1FFE742F684
:107A6000EE10C0F20320F5F775FB46F60510C2F2E2
:107A70000000817A42F69E22C0F203220390104653
:107A8000F5F768FB0398017942F6F620C0F203206F
:107A9000F5F760FB0398417942F6B420C0F2032069
:107AA000F5F758FB0398C17A42F68820C0F203200C
:107AB000F5F750FB0398017B42F65C20C0F20320EF
:107AC000F5F748FB0398017B8DF854100168426874
:107AD00083681493139212911299139A149BDDF8F0
:107AE00054C0EE46CEF800C0B62007F031FD48E0A5
:107AF00042F67610C0F20320F5F72CFB46F605108F
:107B0000C2F20000817A42F69E22C0F20322029065
:107B10001046F5F71FFB0298017942F6F620C0F2F5
:107B20000320F5F717FB0298417942F6B420C0F222
:107B30000320F5F70FFB0298C17A42F68820C0F2C5
:107B40000320F5F707FB0298017B42F65C20C0F2A8
:107B50000320F5F7FFFA0298017B8DF844100168C5
:107B60004268836810930F920E910E990F9A109BA2
:107B7000DDF844C0EE46CEF800C0B52007F0E8FCC2
:107B8000FFE7FFE7FFE7FFE7FFE7FFE71DE042F65C
:107B90004D20C0F20320F5F7DDFA46F60510C2F2DB
:107BA0000000017B8DF834100168426880680C90F9
:107BB0000B920A910A990B9A0C9B0D98EC46CCF803
:107BC0000000B82007F0C4FCFFE7002032B080BD01
:107BD00080B584B04AF6A501C0F20221042000223B
:107BE0000392F5F75BFB082002F034F9684603992D
:107BF000016043F20000C4F2000001220290039BE6
:107C000002F034FF0F220298039902F0D7FE04B06D
:107C100080BD000080B586B002468DF81700049143
:107C20000498002801D1FFE721E0049846F278711A
:107C3000C2F20001086043F20000C4F2000000211B
:107C40000290019102F06EFE9DF8171048430390D8
:107C5000039A0298019902F02DFF0298019902F00F
:107C6000CFFE0F220298019902F03AFEFFE706B01C
:107C700080BD000080B543F20000C4F20000012185
:107C800002F0BEFE80BD000083B013468446ADF80E
:107C90000A000191ADF8022046F26470C2F20000C1
:107CA0000121017003B0704780B584B0134684464B
:107CB000ADF80E000291ADF8062046F66C30C2F227
:107CC00000000078022817D1FFE7029807F03CFB7C
:107CD0000090009801784278837842F60C30C0F228
:107CE0000320F5F737FA0098B0F8010046F6703136
:107CF000C2F200010860FFE746F26470C2F20000C1
:107D00000121017004B080BD80B584B00A460290A4
:107D1000ADF80610BDF8060000280ED1FFE7029866
:107D200000280AD1FFE742F60870C0F20320F5F7F9
:107D300011FA01208DF80F003AE0BDF8060044F278
:107D40000C31C2F20001B1F807100844073041F6C7
:107D5000A57188420ADBFFE742F64760C0F20320C4
:107D6000F5F7F8F901208DF80F0021E044F20C300E
:107D7000C2F20000D0F80910029ABDF80630009057
:107D8000084611461A46FFF7A0F9BDF80610009AFA
:107D9000D2F809301944C2F80910BDF80610B2F83B
:107DA00007301944A2F8071000218DF80F10FFE7E3
:107DB0009DF80F0004B080BD80B500F013FE0530C3
:107DC00044F20C31C2F20001C1F809000020A1F810
:107DD000070080BD80B586B001468DF8170044F2DB
:107DE0000C30C2F20000D0F801200492049AB023B3
:107DF00013709DF81720049B5A700278049B9A70A8
:107E0000B0F80720049BA3F80320B0F8072007323E
:107E1000A0F80520D0F80120B0F805301A44023A45
:107E20000392D0F80120B0F8050002380290104605
:107E3000029A0191114607F08DF903990880049880
:107E4000B0F80300002801D0FFE70DE044F20C3049
:107E5000C2F20000D0F80120B0F8053001200090F7
:107E6000009901F0BBF9FFE706B080BD82B0009039
:107E700000980078562804D0FFE700208DF807000E
:107E80003FE000984078302805DBFFE70098407815
:107E90003A2804DBFFE700208DF8070031E0009866
:107EA00080782E2804D0FFE700208DF8070028E016
:107EB0000098C078302805DBFFE70098C0783A28A2
:107EC00004DBFFE700208DF807001AE00098007936
:107ED0002E2804D0FFE700208DF8070011E000985D
:107EE0004079302805DBFFE7009840793A2804DB29
:107EF000FFE700208DF8070003E001208DF8070060
:107F0000FFE79DF8070002B07047000080B58CB015
:107F10000A460A90ADF8261000208DF825000A9830
:107F2000002805D0FFE7BDF8260004280ADCFFE79B
:107F300042F6A560C0F20320F5F70CF9E7208DF8B2
:107F40002F00A1E00A9808900898007844F20C31BC
:107F5000C2F2000108700A98BDF8261001F0A8F9D5
:107F600000280AD1FFE742F69E50C0F20320F5F741
:107F7000F1F8E2208DF82F0086E00898B0F80100B3
:107F8000BDF826100539884210D0FFE70898B0F8F0
:107F90000110BDF82600421F43F20630C0F2032054
:107FA000F5F7D8F8E1208DF82F006DE0FFF704FF1A
:107FB00008980078A03801460428059153D80599FF
:107FC000DFE801F0030F1B3945000898C11CB0F829
:107FD000010004900846049900F0B0FA8DF82500DD
:107FE0004DE00898C11CB0F80100039008460399C1
:107FF00000F0BEF88DF8250041E000200790ADF8B4
:108000001A000898C11CB0F80100079A0DF11A0374
:1080100002900846029900F065F88DF825009DF859
:108020002500002806D1FFE70798BDF81A10FFF7D2
:108030006BFEFFE723E00898C11CB0F80100019037
:108040000846019900F02EFA8DF8250017E00898EF
:10805000C11CB0F8010000900846009900F0D6FA63
:108060008DF825000BE00898017843F22B30C0F220
:108070000320F5F76FF8E0208DF82F0004E09DF85D
:1080800025008DF82F00FFE79DF82F000CB080BD74
:1080900080B584B00A460390ADF80A100398BDF885
:1080A0000A100192FFF732FF8DF809009DF80900D0
:1080B000002809D0FFE79DF8091042F6BE70C0F213
:1080C0000320F5F747F8FFE79DF80900FFF782FE68
:1080D00004B080BD80B548F29100C0F2022001F0EA
:1080E00073F880BD80B588B08C460690ADF8161048
:1080F0000492039300208DF80B0044F20C30C2F27E
:108100000000407B00280AD1FFE742F6EB50C0F2A6
:108110000320F5F71FF8E9208DF81F0024E00698EA
:10812000019001980168808800900846009900F04D
:1081300031FC00280AD1FFE742F6BA60C0F2032002
:10814000F5F708F8E7208DF81F000DE001980068AA
:1081500000F0BEFB049001988088039908809DF888
:108160000B008DF81F00FFE79DF81F0008B080BDD1
:1081700080B58CB00A460A90ADF8261000208DF824
:10818000250044F20C30C2F20000407B01280AD0E6
:10819000FFE742F61960C0F20320F4F7DBFFE920A5
:1081A0008DF82F0079E10A980890BDF8260006386E
:1081B000ADF81E0044F20C30C2F20000C18901315A
:1081C000B0F81900814214D1FFE7089800884FF6F3
:1081D000FF7188420CD0FFE70898018843F25520D0
:1081E000C0F20320F4F7B6FFE3208DF82F0054E12E
:1081F00032E044F20C30C2F20000C1890131B0F823
:108200001900814217DAFFE7089800884FF6FF71DE
:1082100088420FD1FFE744F20C30C2F20000C1895E
:1082200043F2D410C0F20320F4F794FFE3208DF85A
:108230002F0032E10FE044F20C30C2F20000B0F83F
:10824000191043F2A810C0F20320F4F783FFE320D3
:108250008DF82F0021E1FFE7089800884FF6FF71A5
:10826000884240F09680FFE70898D0F8020044F278
:108270000C31C2F200010969884212D0FFE744F2D2
:108280000C30C2F2000001690898D0F8022043F2D5
:10829000CD20C0F20320F4F75DFFE5208DF82F001C
:1082A000FBE0BDF81E0044F20C31C2F20001B1F84F
:1082B0001710884212DDFFE7BDF81E1044F20C30A3
:1082C000C2F20000B0F8172043F24500C0F20320CC
:1082D000F4F740FFE4208DF82F00DEE00898D0F896
:1082E00002100630BDF81E2003900846039900F0E6
:1082F00025FB00280FD0FFE70898D0F80210BDF842
:108300001E2043F2EF00C0F20320F4F723FFE82021
:108310008DF82F00C1E044F20C30C2F20000016978
:10832000BDF81E201144069100210290084600F07D
:10833000CFFA05900598069906F00CFFADF81200EB
:10834000BDF812000299B1F81520904219D0FFE74C
:10835000069942F68970C0F20320F4F7FBFEBDF8DF
:10836000121044F20C30C2F20000B0F8152043F2B3
:108370001C20C0F20320F4F7EDFEE2208DF82F0060
:108380008BE0FFE744F20C30C2F20000022141739F
:108390007EE00898008844F20C31C2F20001C989DD
:1083A000884211D0FFE744F20C30C2F20000C189CC
:1083B0000898028843F27E10C0F20320F4F7CAFE48
:1083C000E3208DF82F0068E00898D0F8020044F20E
:1083D0000C31C2F200010969884212D0FFE744F271
:1083E0000C30C2F2000001690898D0F8022043F274
:1083F0009920C0F20320F4F7ADFEE5208DF82F00A0
:108400004BE0BDF81E0044F20C31C2F20001B1F89D
:108410001710884212D0FFE744F20C30C2F200007D
:10842000B0F81710BDF81E2043F25310C0F203201D
:10843000F4F790FEE4208DF82F002EE00898D0F895
:1084400002100630BDF81E2001900846019900F088
:1084500075FA00280FD0FFE70898D0F80210BDF891
:108460001E2043F2B800C0F20320F4F773FEE820A8
:108470008DF82F0011E044F20C30C2F20000C189E7
:108480000131C181BDF81E10026911440161FFE78D
:108490009DF825008DF82F00FFE79DF82F000CB008
:1084A00080BD000080B584B00A460290ADF8061089
:1084B00000208DF80500BDF8060002280CD0FFE76B
:1084C000BDF8061043F29D30C0F20320F4F742FEDF
:1084D000E1208DF80F002CE00298009000980088B1
:1084E000B0F57A7F0EDDFFE70098018843F26B302C
:1084F000C0F203204FF47A72F4F72CFEE7208DF8D7
:108500000F0016E0F4F70CFE009A12884FF47A730D
:108510005A43801841F1000148F68942C0F2022214
:108520004FF00003F4F7ACFD9DF805108DF80F1027
:10853000FFE79DF80F0004B080BD000080B586B055
:108540000A460490ADF80E1044F20C30C2F200005E
:10855000407B03280AD1FFE742F61960C0F20320EE
:10856000F4F7F8FDE9208DF817004AE000208DF8B7
:108570000D00BDF80E0080280DD0FFE7BDF80E20DD
:1085800043F22B10C0F203208021F4F7E3FDE12039
:108590008DF8170035E004980290029801F02EFB48
:1085A000029800F025FA8DF80D009DF80D000028C6
:1085B0000DD0FFE79DF80D1042F69B70C0F203202E
:1085C000F4F7C8FD9DF80D008DF8170019E000F0D4
:1085D0006FF80298B0F84210B0F84400484300F039
:1085E00015F902990190084600F0BEF844F20C30EB
:1085F000C2F20000012141739DF80D008DF81700B3
:10860000FFE79DF8170006B080BD000080B584B07C
:108610000A460290ADF8061000208DF80500BDF85E
:10862000060002280CD0FFE7BDF8061043F289309F
:10863000C0F20320F4F78EFDE1208DF80F0032E048
:108640000298009000980088B0F57A7F0EDDFFE771
:108650000098018843F24D30C0F203204FF47A7243
:10866000F4F778FDE7208DF80F001CE044F20C30A1
:10867000C2F2000003214173F4F752FD009A128800
:108680004FF47A735A43801841F1000148F2D962DD
:10869000C0F202224FF00003F4F7F2FC9DF805103F
:1086A0008DF80F10FFE79DF80F0004B080BD0000AB
:1086B00080B582B044F20C30C2F200004621019035
:1086C000FEF72AFD44F27C70C2F200000199C1F865
:1086D000010002B080BD000080B58EB019469446FE
:1086E000DDF840E00D900B930A9244F20C30C2F298
:1086F0000000D0F83E0043F20102C0F203220590D0
:108700001046059A04911146CDF80CC0CDF808E04A
:10871000F4F720FD04F00EFB00200990FFE7099814
:1087200045F6BF51884206D8FFE700BFFFE709982A
:1087300001300990F3E74BF20000C0F203200690ED
:1087400044F20C30C2F20000D0F83E100791D0F88D
:1087500042000890012006A907F01CF90190F4F7E7
:1087600037FD00200EB080BD81B00090009890F8D9
:108770003C0044F20C31C2F2000108750098C08F31
:10878000A1F815000098B0F84200A1F81700009871
:10879000B0F84400A1F81900009890F84600C87697
:1087A000009890F847000877009890F848004877BC
:1087B0000098D0F86A00C1F83E000098D0F86E002A
:1087C000C1F842000098D0F84A20D0F84E30D0F8D6
:1087D00052C0D0F85600C1F82A00C1F826C0C1F82E
:1087E0002230C1F81E200098D0F85A20D0F85E3010
:1087F000D0F862C0D0F86600C1F83A00C1F836C0BF
:10880000C1F83230C1F82E2001B0704780B584B075
:1088100002900298B0F5822F0DD9FFE7029943F23A
:108820008900C0F203204FF48222F4F793FC012068
:108830008DF80F0047E0BDF808000005002806D0BD
:10884000FFE70298012101EB1030009003E002984D
:10885000000B0090FFE70098ADF806000020ADF88F
:108860000400FFE7BDF80400BDF80610884226DAD0
:10887000FFE7BDF804004BF20001C0F2032101EB59
:10888000003006F06DFA002812D0FFE7BDF80400B2
:108890004BF20001C0F2032101EB003143F21B0057
:1088A000C0F20320F4F756FC01208DF80F000AE017
:1088B000FFE7BDF804000130ADF80400D2E7002066
:1088C0008DF80F00FFE79DF80F0004B080BD000099
:1088D00081B0009000984BF20001C0F203210844DF
:1088E00001B0704780B584B00DF10F000DF10E019D
:1088F0000290019106F05CFB9DF80F109DF80E2090
:1089000043F2E830C0F20320F4F724FC002006F024
:10891000ADFB0298019906F04BFB9DF80F109DF8F6
:108920000E2043F20B40C0F20320F4F713FC04B016
:1089300080BD000080B5FFF7D5FF80BD80B586B053
:10894000134604900391ADF80A2004984BF20001FD
:10895000C0F2032108440399BDF80A20009308F0EF
:1089600093F90190019800280BD0FFE7019943F299
:108970006E00C0F20320F4F7EDFB01208DF8170024
:1089800003E000208DF81700FFE79DF8170006B000
:1089900080BD000083B00A460190ADF80210019836
:1089A0004AF6FF71C0F20321884204D8FFE7002095
:1089B0008DF80B0012E00198BDF8021008444CF24B
:1089C0000101C0F20721884204D3FFE700208DF89F
:1089D0000B0003E001208DF80B00FFE79DF80B0072
:1089E00003B0704744F27C70C2F200007047000090
:1089F00080B58CB00A900A9841F69231C0F20321FA
:108A0000099008460891FEF792FB099907900846DD
:108A10000899079AFEF792FB00280AD0FFE743F275
:108A2000B130C0F20320F4F795FBF0208DF82F0051
:108A300015E10A9806F0DEFD00280AD1FFE742F6AC
:108A40005670C0F20320F4F785FBF9208DF82F0053
:108A500005E141F67830C0F20320FEF768FB0A9981
:108A6000097A884215D1FFE70A98093041F6783132
:108A7000C0F20321069008460591FEF758FB0699BF
:108A8000049008460599049AFEF758FB00280AD07E
:108A9000FFE742F67170C0F20320F4F75BFBF120B0
:108AA0008DF82F00DBE041F68530C0F20320FEF7A1
:108AB0003EFB0A99097E884215D1FFE70A981930D2
:108AC00041F68531C0F20321039008460291FEF77A
:108AD0002EFB0399019008460299019AFEF72EFB9E
:108AE00000280AD0FFE743F2CE30C0F20320F4F7AB
:108AF00031FBF2208DF82F00B1E00A983030FFF7FB
:108B0000B5F900280AD1FFE742F6CE60C0F2032093
:108B1000F4F720FBF3208DF82F00A0E00A98363000
:108B2000FFF7A4F900280AD1FFE742F6EB60C0F294
:108B30000320F4F70FFBF4208DF82F008FE00A9844
:108B40003C3000F025FC00280AD1FFE742F6B15086
:108B5000C0F20320F4F7FEFAF5208DF82F007EE036
:108B60000A9890F8460000F051FC00280AD1FFE76F
:108B700042F66C60C0F20320F4F7ECFAF7208DF8AF
:108B80002F006CE00A9800F1420190F84600009036
:108B90000846009900F0C6FB00280AD1FFE742F61C
:108BA000CE50C0F20320F4F7D5FAF6208DF82F004E
:108BB00055E00A98473000F003FC00280AD1FFE78F
:108BC00042F63C70C0F20320F4F7C4FAF8208DF8A6
:108BD0002F0044E00A98D0F86A0043F20001C0F286
:108BE0000021884207D3FFE70A98D0F86A00B0F165
:108BF000027F19D9FFE70A98D0F86A2042F671502F
:108C0000C0F2032043F20001C0F200214FF00273D2
:108C1000F4F7A0FA42F61E70C0F20320F4F79AFAB5
:108C2000FA208DF82F001AE00A98D0F86E00B0F5FF
:108C3000822F10D9FFE742F62250C0F20320F4F74A
:108C400089FA42F68B60C0F20320F4F783FAFB2026
:108C50008DF82F0003E000208DF82F00FFE79DF82E
:108C60002F000CB080BD000080B542F61350C0F25A
:108C70000320F4F76FFAFFF75DFEFFF72BFA00F021
:108C80005BFA04F047FE80BD80B588B01946944673
:108C9000DDF828E00790059304920391CDF808C011
:108CA000CDF804E0F4F794FA002008B080BD00008D
:108CB00080B584B00A460290ADF8061044F21F5009
:108CC000C2F200000088BDF80610084441F6A57104
:108CD000884204DBFFE701208DF80F001AE044F220
:108CE0001F50C2F20000D0F8021002881144029A0C
:108CF000BDF806300090084611461A46FEF7E5F921
:108D0000BDF80610009A13881944118000218DF8CF
:108D10000F10FFE79DF80F0004B080BD80B584B050
:108D20000A460290ADF806100298BDF80610013907
:108D300089B2009200F034F88DF805009DF8050026
:108D40000299BDF80620114411F8011C884212D086
:108D5000FFE79DF805100298BDF80620104410F8B2
:108D6000012C43F2E740C0F20320F4F7F3F90120AD
:108D70008DF80F0003E000208DF80F00FFE79DF84D
:108D80000F0004B080BD000080B5FFF72BFE44F259
:108D90001F51C2F20001C1F802000020088080BD0E
:108DA00083B00A460290ADF80610029800788DF85C
:108DB00005000120ADF80200FFE7BDF80200BDF894
:108DC0000610884210DAFFE70298BDF80210405CF6
:108DD0009DF8051048408DF80500FFE7BDF802003A
:108DE0000130ADF80200E8E79DF8050003B07047D8
:108DF00080B544F21C50C2F2000000218170018055
:108E00000170FFF7C1FF80BD80B58CB00A460A90A3
:108E1000ADF826100A980890BDF8260006280CDC4C
:108E2000FFE743F28950C0F20320F4F793F9FFF70C
:108E3000DFFF05208DF82F0079E108980078AA2837
:108E40000CD0FFE743F2C950C0F20320F4F782F9D7
:108E5000FFF7CEFF01208DF82F0068E108984078D9
:108E60000006002804D5FFE70020002810D103E009
:108E7000012000280CD1FFE743F2AB50C0F20320E1
:108E8000F4F768F9FFF7B4FF02208DF82F004EE1E8
:108E9000089840784006002804D5FFE70020002805
:108EA00010D103E0012000280CD1FFE743F2485025
:108EB000C0F20320F4F74EF9FFF79AFF03208DF874
:108EC0002F0034E108988088BDF8261007398842C1
:108ED00011DDFFE708988188BDF82600C21F43F224
:108EE0001C50C0F20320F4F735F9FFF781FF03208F
:108EF0008DF82F001BE10898411C8088063080B255
:108F0000079008460799FFF709FF00280CD0FFE7F4
:108F100043F2CF40C0F20320F4F71CF9FFF768FFDB
:108F200006208DF82F0002E144F21C50C2F200002E
:108F3000007801460028069104D0FFE70698012832
:108F400065D0F0E0089840880004002804D5FFE7C9
:108F50000120002804D14DE0012000284AD1FFE77C
:108F60000898811D8088059008460599FFF7A0FEA6
:108F700000280CD0FFE743F28540C0F20320F4F74D
:108F8000E9F8FFF735FF07208DF82F00CFE00898AC
:108F90004088400400281FD1FFE746F68810C2F23F
:108FA00000000068002811D0FFE746F68810C2F2E2
:108FB0000000006844F21F51C2F20001D1F8022003
:108FC000098804901046049A9047FFE7FFF710FFC6
:108FD00008208DF82F00AAE00898408844F21C5120
:108FE000C2F200014870487801388870012008708A
:108FF000FFE70BE043F26650C0F20320F4F7AAF853
:10900000FFF7F6FE04208DF82F0090E08BE0089823
:1090100040880004002804D5FFE70120002804D17F
:109020000FE0012000280CD1FFE743F25E40C0F2C0
:109030000320F4F78FF8FFF7DBFE04208DF82F00F4
:1090400075E044F21C50C2F200008078089949880B
:109050006FF3DF31884218D0FFE7089840886FF33C
:10906000DF3044F21C51C2F200018A7843F22E41F3
:10907000C0F20321039008460399F4F76BF8FFF759
:10908000B7FE04208DF82F0051E00898811D8088DC
:10909000029008460299FFF70BFE00280CD0FFE76C
:1090A00043F2AA40C0F20320F4F754F8FFF7A0FE01
:1090B00007208DF82F003AE00898408840040028E7
:1090C0001FD1FFE746F68810C2F2000000680028B2
:1090D00011D0FFE746F68810C2F20000006844F2A3
:1090E0001F51C2F20001D1F80220098801901046F8
:1090F000019A9047FFE7FFF77BFE08208DF82F00CD
:1091000015E044F21C50C2F200008078002808D01C
:10911000FFE744F21C50C2F20000817801398170EF
:10912000FFE7FFE7FFE700208DF82F00FFE79DF83E
:109130002F000CB080BD000080B5FFF759FEFFF78F
:1091400023FE4DF26160C0F2022004F0ADFA80BD52
:1091500080B586B001468DF81700AA208DF80C0066
:1091600003A8421CC0238DF80D304FF40043ADF826
:109170000E300123ADF810309DF817308DF8123005
:1091800006230290104601911946FFF709FE8DF85B
:1091900013000821029804F091FA06B080BD000087
:1091A00080B582B046F67430C2F2000040210190D2
:1091B000FDF7B2FFAA20019908703F21019804F041
:1091C0007DFA02B080BD000081B00090009846F6A4
:1091D0008811C2F20001086001B0704710B586B076
:1091E0009C468E4604468DF81600ADF81410049285
:1091F000ADF80E30BDF80E00392804DBFFE707207C
:109200008DF817004FE046F67430C2F2000002906D
:109210000298AA2101700298802141709DF81600E1
:10922000002805D0FFE702984FF40041418003E099
:10923000029800214180FFE7BDF814006FF3DF3092
:1092400002994A8810434880BDF80E000299888030
:10925000029806300499BDF80E20FDF736FF0299FA
:109260000131BDF80E20053292B201900846114638
:10927000FFF796FD0299BDF80E2011448871BDF8E4
:109280000E00073046F67431C2F20001A1F840002A
:10929000B1F8400000900846009904F00FFA002150
:1092A0008DF81710FFE79DF8170006B010BD0000FD
:1092B00080B588B00A460690ADF816100698BDF83D
:1092C0001610084402380490049800880699BDF8E6
:1092D0001630023B039008461946029205F03AFF09
:1092E0000399814215D0FFE70698BDF816100239A0
:1092F00005F030FF04990A8842F6D371C0F20321C9
:10930000019008460199F3F725FF00208DF81F0012
:1093100004E0FFE701208DF81F00FFE79DF81F0024
:1093200008B080BD80B584B00A4602908DF8071061
:10933000029800880C2806DBFFE702980088B0F549
:10934000005F0ADDFFE742F64C50C0F20320F3F75E
:1093500001FF00208DF80F0015E002980188408879
:109360004843B0F5822F0AD9FFE742F62250C0F2F7
:109370000320F3F7EFFE00208DF80F0003E001203B
:109380008DF80F00FFE79DF80F0004B080BD0000CE
:1093900082B0009000980078002809D1FFE700987B
:1093A0004078022804D1FFE701208DF8070003E090
:1093B00000208DF80700FFE79DF8070002B0704716
:1093C00082B0009000980078002804D1FFE70120C7
:1093D0008DF8070015E000984078002804D1FFE7D9
:1093E00000208DF807000CE000984078012804D197
:1093F000FFE700208DF8070003E000208DF807004C
:10940000FFE79DF8070002B07047000081B00146F9
:109410008DF802009DF80200002804D1FFE701202A
:109420008DF803000CE09DF80200012804D1FFE74D
:1094300001208DF8030003E000208DF80300FFE712
:109440009DF8030001B0704782B08DF807009DF8C9
:109450000700C8B9FFE700200090FFE700987F28C9
:1094600011D8FFE7009A41F67870C0F2032050F857
:1094700022000021C4F2120141F82200FFE7009807
:1094800001300090EAE71EE09DF80700012819D19D
:10949000FFE700200090FFE700987F2811D8FFE742
:1094A000009A42F27810C0F2032050F82200002106
:1094B000C4F2120141F82200FFE700980130009049
:1094C000EAE7FFE7FFE70021C4F21101086840F076
:1094D0000100086040F20041C4F21101086817223F
:1094E00062F31740086040F20442C4F211021068AF
:1094F000012363F302001060086840F00200086076
:10950000FFE75820C4F211000068000BC00708B93B
:10951000FFE7F6E75C21C4F21101086840F48050CF
:10952000086002B07047000080B582B0ADF8060058
:10953000ADF80410BDF8042040F20C41C4F2110152
:109540000868C0EA02400860BDF8062040F2084101
:10955000C4F21101086862F307000860086840F46B
:10956000007008600A2006F0E7F9FFE740F20840C3
:10957000C4F211000068400AC00708B1FFE7F5E730
:1095800002B080BD80B584B0844606988DF80FC0C7
:109590008DF80E108DF80D208DF80C308DF80B0025
:1095A0000021C4F21101086840F001000860086859
:1095B00020F01000086008680E2262F3194008606D
:1095C0004021C4F2110141F23420CFF6FF7008604F
:1095D0004421C4F2110108684FF6FF72104308607D
:1095E0005021C4F21101086820F4807008600868F6
:1095F00020F00200086040F20441C4F21101086842
:10960000012262F30200086040F22041C4F211011D
:109610000191086840F001000860086820F002002D
:109620000860086840F0100008609DF80E20086887
:1096300020F47F4040EA022008602C21C4F211018E
:1096400008684FF47A7262F30F0008609DF80F000B
:1096500000F001008DF80A009DF80F00032804D1E6
:10966000FFE702208DF80F00FFE79DF80F0000F1E3
:10967000005040F20041C4F21201086040F2044080
:10968000C4F2120041F20001C4F21201016040F282
:109690000842C4F2120242F20000CCF21200106042
:1096A00040F20C42C4F2120244F22910C7F27610C2
:1096B000106040F21042C4F2120245F25550C0F25E
:1096C000550010609DF80C00000240F21442C4F2F4
:1096D0001202106040F21842C4F212020020009000
:1096E00010609DF80B20120640F21C43C4F21203D6
:1096F0001A6040F22042C4F21202106040F224428A
:10970000C4F21202106040F22843C4F21203002295
:10971000CFF6FF721A6040F22C42C4F212021060BF
:1097200040F23042C4F21202106040F23442C4F2FD
:109730001202106040F23842C4F21202106040F28D
:109740003C42C4F21202106040F24042C4F21202E3
:10975000106040F24442C4F21202106040F24842EB
:10976000C4F21202106040F24C42C4F212021060C5
:1097700040F25042C4F21202106040F25442C4F26D
:109780001202106040F25842C4F21202106040F21D
:109790005C42C4F21202106040F26042C4F2120253
:1097A000106040F26442C4F21202106009609DF839
:1097B0000A1009069DF80E2041EA02119DF80D20BD
:1097C000114341F20402C4F21202116041F2080195
:1097D000C4F21201086040F23831C4F21101086885
:1097E00040F001000860FFE740F23830C4F2110099
:1097F0000068C00708B1FFE7F6E740F22C30C4F27A
:1098000011000068023040F20411C4F21101086036
:1098100040F23430C4F2110001686FF39F2140F22E
:109820007120401A000440F22441C4F21201086081
:1098300040F20C11C4F2110108684FF4013262F3D6
:109840001100086040F20011C4F21101086840F0F4
:109850000100086004B080BD80B50421C4F211018C
:10986000086840F400200860FFE75820C4F21100A7
:109870000068000AC00708B9FFE7F6E75C21C4F2F8
:109880001101086840F4807008600421C4F21101DD
:10989000086820F40020086005F024FE80BD000068
:1098A00080B588B001468DF81F009DF81F0000228A
:1098B00003911146029200F0C5F89DF81F10019027
:1098C0000846029900F038F815218DF81E109DF811
:1098D0001F109DF81E2045F20003C4F201039142BF
:1098E000A4BF46F20003C4F2010306939DF81F10C3
:1098F0009DF81E20914207DBFFE79DF81F009DF8B1
:109900001E10401A009003E09DF81F000090FFE732
:10991000009805900598012101FA00F0C0430490D9
:10992000049806998A6A10408862049806994A6BDE
:109930001040486308B080BD86B00A4603468DF8E3
:1099400017008DF816109DF8170004900498002158
:109950001F28C8BF01210391049800F01F004FF099
:10996000010101FA00F00290039846F28001C4F26E
:10997000000101EB80000190039846F28801C4F2D7
:10998000000101EB800000909DF81600002807D12F
:10999000FFE7029801990A6822EA0000086017E0D0
:1099A0009DF81600012806D1FFE7029800990A6881
:1099B0001043086006E0029800990A6822EA000055
:1099C0000860FFE7029801990A6810430860FFE702
:1099D000002006B07047000080B584B00A460346F8
:1099E0008DF80B008DF80A109DF80B00102805D19A
:1099F000FFE79DF80A00112804D0FFE74FF0FF3081
:109A000003901BE046F26400C4F20000012103232E
:109A100001900091009A06F08DF9042301980099B5
:109A2000009A06F087F99DF80B00FFF739FF9DF8C3
:109A30000A00FFF735FF00200390FFE7039804B00A
:109A400080BD000080B586B00A4603468DF813003D
:109A50008DF812109DF813009DF8121002920193D8
:109A600006F0E8F903900398B0F1FF3F03DCFFE74D
:109A700003980590BEE09DF81300112816DCFFE75F
:109A80009DF8130046F20001C4F20001014321F0E9
:109A90000301039A00F00300C0EBC003072000900D
:109AA00008461146009A06F045F9A0E09DF813001B
:109AB000142810DCFFE703999DF813006FF01502DE
:109AC00002EB4000C3B246F21000C4F200000222D2
:109AD00006F030F98AE09DF8130015280AD1FFE757
:109AE000039946F21000C4F200000722142306F086
:109AF00021F97AE09DF8130016280AD1FFE70399AF
:109B000046F21400C4F200000722002306F012F906
:109B10006AE09DF813001E2810DCFFE703999DF80A
:109B200013006FF0260202EB4000C3B246F21400AD
:109B3000C4F20000022206F0FDF854E09DF8130084
:109B40001F280AD1FFE7039946F21400C4F200006F
:109B50000722172306F0EEF844E09DF813002028B2
:109B60000AD1FFE7039946F21400C4F20000022272
:109B70001E2306F0DFF834E09DF8130021280AD1F7
:109B8000FFE7039946F21800C4F200000222002306
:109B900006F0D0F824E09DF8130023280FDCFFE73F
:109BA00003999DF81300C0EBC000EC38C3B246F235
:109BB0001800C4F20000072206F0BCF80FE0039979
:109BC0009DF813006FF0370202EB4000C3B246F27B
:109BD0001800C4F20000022206F0ACF8FFE7FFE72D
:109BE000FFE7FFE7FFE7FFE7FFE7FFE7FFE700200B
:109BF0000590FFE7059806B080BD000081B0009099
:109C000001B0704780B584B0844606988DF80FC0C7
:109C10008DF80E108DF80D208DF80C308DF80B009E
:109C20009DF80F00512804DBFFE750208DF80F004E
:109C3000FFE79DF80D00B0F5807F04DBFFE7FF2014
:109C40008DF80F00FFE79DF80C00082804DBFFE704
:109C500007208DF80F00FFE705F044FC4FF4FA6091
:109C600005F06AFE0120FFF7EFFB9DF80F1042F2AE
:109C7000815000EB81012220FFF756FC42F2107068
:109C800005F05AFE9DF80E009DF80D109DF80C2071
:109C90009DF80F309DF80BC0EE46CEF800C0FFF7E0
:109CA00071FC04B080BD000080B582B001900198C5
:109CB00000EB400044F23051C2F2000101EBC00061
:109CC000183002F087FE02B080BD000080B502F0BF
:109CD0002FFE80BD80B586B0059004910392FFE70A
:109CE00044F23050C2F200000078002803D1FFE7B0
:109CF00002F01EFEFFE7FFE7EFF311804FF02001B7
:109D000081F31188019005980499039A00F008F8EE
:109D10000290019880F31188029806B080BD00007F
:109D200080B58AB009900891079208980490099824
:109D300000EB400044F23051C2F2000101EBC000E0
:109D400018300390039840690028029008D0FFE77C
:109D50000298012819D0FFE7029802282CD032E09F
:109D6000039802F037FE059005980799884203D2C0
:109D7000FFE70020069007E00798069003980499F3
:109D8000079A02F0B7FEFFE720E0039802F022FEF8
:109D9000059005980799884203D2FFE7059801903E
:109DA00002E007980190FFE7019806900398049954
:109DB000069A02F09FFE09E003980499079A02F0C0
:109DC00029FE069002E000200690FFE706980AB000
:109DD00080BD000080B584B013468C4603908DF89A
:109DE0000B108DF80A209DF80B00002806D0FFE725
:109DF00003980021012205F081FFFFE79DF80B1079
:109E00009DF80A302820C4F20000012205F0B8FFB6
:109E10009DF80B0000280CD1FFE703980421C8F23D
:109E200000018165039801210191019A05F066FF07
:109E3000FFE704B080BD000080B582B001468DF818
:109E400007009DF8070001220091114600F024F858
:109E500002B080BD80B582B0019000208DF8030073
:109E6000FFE79DF80300182814DCFFE701989DF830
:109E70000310C840C007002805D0FFE79DF8030085
:109E8000FFF7DAFFFFE7FFE79DF8030001308DF8E9
:109E90000300E6E702B080BD80B586B00A460346FF
:109EA0008DF817008DF816109DF817000146182838
:109EB000049100F2B3810499DFE811F019002A003F
:109EC0003B004C005D006E007F009000A100B200DE
:109ED000CA00E300F4000D011E012F0140015101F1
:109EE00062016B0174017D0186019701A7019DF854
:109EF00016100C20C4F20000152205F0FFFE9DF89C
:109F000016101420C4F20000122205F0F7FE86E1BC
:109F10009DF816100C20C4F20000162205F0EEFE8B
:109F20009DF816101420C4F20000122205F0E6FE7F
:109F300075E19DF816100C20C4F20000022205F015
:109F4000DDFE9DF816101420C4F20000002205F07A
:109F5000D5FE64E19DF816100C20C4F20000032227
:109F600005F0CCFE9DF816101420C4F2000001226A
:109F700005F0C4FE53E19DF816100C20C4F2000059
:109F8000042205F0BBFE9DF816101420C4F2000058
:109F9000022205F0B3FE42E19DF816100C20C4F237
:109FA0000000012205F0AAFE9DF816101420C4F24C
:109FB0000000112205F0A2FE31E19DF816100C20E0
:109FC000C4F20000052205F099FE9DF81610142039
:109FD000C4F200000A2205F091FE20E19DF816105F
:109FE0000C20C4F20000082205F088FE9DF816102F
:109FF0001420C4F20000092205F080FE0FE19DF854
:10A0000016100C20C4F20000092205F077FE9DF81E
:10A0100016105420C4F200000C2205F06FFEFEE082
:10A020009DF816100C20C4F200000A2205F066FE0E
:10A030009DF816101420C4F200001322039005F0BE
:10A040005DFE9DF816101422039805F057FEE6E019
:10A050009DF816100C20C4F200000B22029205F0AD
:10A060004DFE9DF816101420C4F200000190029AD3
:10A0700005F044FE9DF816101022019805F03EFEF2
:10A08000CDE09DF816100C20C4F200000C2205F063
:10A0900035FE9DF816100820C4F20000002205F0DD
:10A0A0002DFEBCE09DF816100820C4F200000C2222
:10A0B00005F024FE9DF816100C20C4F200000D22BD
:10A0C00005F01CFE9DF816101420C4F200000622B4
:10A0D00005F014FEA3E09DF816100C20C4F2000059
:10A0E0000E2205F00BFE9DF816101420C4F200009D
:10A0F000072205F003FE92E09DF816100C20C4F232
:10A1000000000F2205F0FAFD9DF816101420C4F28D
:10A1100000000C2205F0F2FD81E09DF816100C20E5
:10A12000C4F20000102205F0E9FD9DF8161014207D
:10A13000C4F20000082205F0E1FD70E09DF8161061
:10A140000C20C4F20000112205F0D8FD9DF8161075
:10A150001420C4F20000042205F0D0FD5FE09DF859
:10A1600016100C20C4F20000122205F0C7FD9DF865
:10A1700016101420C4F20000052205F0BFFD4EE0C9
:10A180009DF816100C20C4F20000132205F0B6FD55
:10A1900045E09DF816100C20C4F20000142205F0D2
:10A1A000ADFD3CE09DF816100C20C4F2000000222A
:10A1B00005F0A4FD33E09DF816100C20C4F2000059
:10A1C000062205F09BFD2AE09DF816100C20C4F233
:10A1D0000000172205F092FD9DF816101420C4F21D
:10A1E00000000E2205F08AFD19E09DF8161080206F
:10A1F000C4F200000522009005F080FD9DF81610C5
:10A200000722009805F07AFD09E09DF816100C2051
:10A21000C4F20000192205F071FD00E0FFE706B06E
:10A2200080BD000080B582B02C20C4F2000001681F
:10A2300001F03F01ADF806100068C0F38510ADF8DD
:10A24000040000F0D3F9BDF804104843BDF806102F
:10A25000B0FBF1F002B080BD80B582B00420C4F242
:10A2600000000068C004002804D5FFE74FF4004058
:10A2700001900AE000F0BAF91C21C4F2000109685B
:10A28000090DB0FBF1F00190FFE7019802B080BD2D
:10A2900080B58EB001468DF833009DF8330002384A
:10A2A000024615280B9200F240810B99DFE811F06D
:10A2B0001600160016003D014B0034001501650024
:10A2C000D7003D017F009900E700A900C300C3004B
:10A2D000390139013D013D01F70007010420C4F2B5
:10A2E000000000689DF833100D31C840C0070028F9
:10A2F00004D0FFE7FFF7B0FF0D901AE100F076F908
:10A300000B2114220A900846114604F041FF0A99D5
:10A31000B1FBF0F00D900CE100F068F91621062277
:10A32000099008460891114604F066FF09994843D0
:10A330000021089A0790104604F05EFF0799B1FBD0
:10A34000F0F00D90F5E02C20C4F20000006800044D
:10A35000002804D5FFE7FFF77FFF0D90E9E000F04C
:10A3600045F90B211B2206900846114604F010FF08
:10A370000699B1FBF0F00D90DBE00420C4F2000080
:10A3800000688004002804D5FFE7FFF765FF0D9003
:10A39000CFE000F02BF90021182205900846114665
:10A3A00004F0F6FE0599B1FBF0F00D90C1E0042039
:10A3B000C4F200000068800200280ED5FFE700F01C
:10A3C000E9F80021142204900846114604F0E0FE4A
:10A3D0000499B1FBF0F00D90ABE000F007F90D909F
:10A3E000A7E00420C4F2000000684002002804D561
:10A3F000FFE700F0A1F80D909BE000F0F7F80D905A
:10A4000097E00420C4F200000068000200280ED586
:10A41000FFE700F0BFF800210C2203900846114628
:10A4200004F0B6FE0399B1FBF0F00D9081E000F06E
:10A43000DDF80D907DE00420C4F2000000689DF876
:10A4400033100331C840C007002804D0FFE700F0F4
:10A4500073F80D906DE000F0C9F80D9069E02C20C4
:10A46000C4F200000068C003002804D5FFE7FFF72E
:10A47000D9FE0D905DE000F0B9F80D9059E02C2068
:10A48000C4F2000000688003002804D5FFE7FFF74E
:10A49000C9FE0D904DE000F0A9F80D9049E02C2088
:10A4A000C4F2000000680003002804D5FFE7FFF7AE
:10A4B000B9FE0D903DE000F099F80D9039E000F004
:10A4C00069F82021002202900846114604F060FE3F
:10A4D0000299B1FBF0F00D902BE05420C4F2000083
:10A4E0000068000400280ED5FFE700F025F81521CC
:10A4F000012201900846114604F064FE0199B1FB67
:10A50000F0F00D9015E000F071F815210122009097
:10A510000846114604F056FE0099B1FBF0F00D908C
:10A5200007E000F027F80D9003E000F05FF80D90D1
:10A53000FFE70D980EB080BD80B582B00420C4F254
:10A5400000000068400400280CD5FFE700F022F866
:10A5500000210090084604F01BFE0099B1FBF0F0CA
:10A56000019003E000F042F80190FFE7019802B08B
:10A5700080BD000080B582B0FFF7DEFF002104221D
:10A5800001900846114604F003FE0199B1FBF0F07A
:10A5900002B080BD80B584B040F2A810C4F21000B3
:10A5A0000068C00200281AD5FFE74020C4F200006E
:10A5B0000168C1F345010268C2F3C53251430291FB
:10A5C000019000F013F801990A68C2F3C712A0FBCA
:10A5D0000201029A0023FCF747FD039002E00020ED
:10A5E0000390FFE7039804B080BD000083B042F2FF
:10A5F0001000C4F210000068C0F300208DF80700BE
:10A600009DF80700002806D0FFE743F20060C0F283
:10A610006E10029039E040F27C10C4F21000006825
:10A62000C0F3043001460F28009128D80099DFE8D4
:10A6300001F0080E26142626261A26262626262669
:10A64000262041F20020C0F27A0002901DE042F282
:10A650000040C0F2F400029017E043F20060C0F244
:10A660006E10029011E044F60000C0F2E810029073
:10A670000BE046F60040C0F2DC20029005E049F213
:10A680000000C0F2D0300290FFE7029803B070479C
:10A6900080B584B001468DF80F009DF80F000022B0
:10A6A000C4F21402012302901046029A019111464D
:10A6B0001A46FFF78FFB04B080BD000080B584B060
:10A6C00004F010FC01900198002803D1FFE701205D
:10A6D000039056E00198017842F20800C4F210009D
:10A6E0000722042305F04CFB00200290FFE70298AC
:10A6F0000F2819D8FFE70198029900EB41008088E4
:10A7000040F2A64188420ADBFFE7029942F20000CC
:10A71000C4F2100004221C2305F032FB04E0FFE722
:10A72000029801300290E2E70298102803D3FFE775
:10A730000220039025E001200290FFE702980F28F5
:10A7400015D8FFE70198029900EB4100808C40F298
:10A750009D41884206DBFFE702980138C0B200F055
:10A7600063F804E0FFE7029801300290E6E7029800
:10A77000102803D3FFE70320039002E0002003909A
:10A78000FFE7039804B080BD80B586B00146ADF800
:10A790001600BDF816008022C4F2000204234FF018
:10A7A000000C04901046DDF810E00391714602920F
:10A7B0001A460193634605F0E3FA01210298019AD3
:10A7C00005F09CFA06B080BD80B582B001468DF8D8
:10A7D00007009DF80700002200911146FFF75CFB7F
:10A7E00002B080BD80B582B0019000208DF80300DA
:10A7F000FFE79DF80300182814DCFFE701989DF897
:10A800000310C840C007002805D0FFE79DF80300EB
:10A81000FFF7DAFFFFE7FFE79DF8030001308DF84F
:10A820000300E6E702B080BD80B584B001468DF834
:10A830000F009DF80F0000F00F0042F20002C4F27A
:10A84000100204234FF0010C02901046029A01916D
:10A8500011461A46634605F093FA04B080BD000025
:10A8600081B00A4603468DF803008DF802109DF86A
:10A87000030000280DD0FFE79DF80200012101FA36
:10A8800000F040F0410040F27411C4F21001086081
:10A8900006E040F27410C4F2100000210160FFE7EE
:10A8A00001B0704780B582B0019043F20000C4F25D
:10A8B000000000210F2200F06DF846F27870C2F21D
:10A8C00000000068002807D0FFE746F27870C2F267
:10A8D000000000688047FFE7002002B080BD000054
:10A8E00082B013468C4601908DF803108DF802203B
:10A8F0009DF8030080000F2101FA00F00199CA6958
:10A9000022EA0000C8619DF8020000F00F009DF8E7
:10A910000310890088400199CA691043C86102B0D8
:10A920007047000080B584B00A4603908DF80B1084
:10A9300002208DF80A00039843F20001C4F20001DE
:10A94000884204D1FFE703208DF80A000AE003984B
:10A95000B0F1402F04D1FFE704208DF80A0000E099
:10A96000FFE7FFE703989DF80B1000EB0110006A6A
:10A970000007002804D5FFE7FFF7FCFD019005E084
:10A980009DF80A00FFF784FC0190FFE7019804B0EE
:10A9900080BD000082B013468C4601908DF80310F4
:10A9A0008DF802209DF8020000F00F009DF80310C2
:10A9B000890088400199886102B0704782B01346CF
:10A9C0008C4601908DF803108DF802209DF803004D
:10A9D00080000F2101FA00F001994A6922EA000083
:10A9E00048619DF8020000F00F009DF803108900F7
:10A9F000884001994A691043486102B070470000DD
:10AA000085B00A4604908DF80F10049842F20001B8
:10AA1000C4F20001884203D1FFE7032000900AE05E
:10AA2000049843F20001C4F200010522884208BFE5
:10AA300004220092FFE700988DF80E002820C4F24F
:10AA4000000002909DF80E00012101FA00F0019033
:10AA500002980068019988439DF80F109DF80E2018
:10AA6000914008430299086005B07047B0B582B0C4
:10AA7000DDF818C09E4614460D4601908DF803106F
:10AA80008DF802208DF801308DF800C09DF802008D
:10AA900000F007009DF8011040EAC1009DF8001089
:10AAA00040EA011001999DF8032001EB02110862B0
:10AAB00002B0B0BD83B00B4602908DF80710009233
:10AAC000009802999DF8072001EB0211486203B03B
:10AAD0007047000082B00A4601908DF803109DF87F
:10AAE00003000199086002B07047000080B582B091
:10AAF00046F69410C2F20000407880280AD1FFE7A1
:10AB000046F69410C2F20000013000F00BF88DF808
:10AB1000070003E004208DF80700FFE79DF8070019
:10AB200002B080BD80B584B0039042F69640C0F27A
:10AB30000320F2F70FFB0398418842F6C340C0F2AE
:10AB40000320F2F707FB0398818842F6B640C0F273
:10AB50000320F2F7FFFA0398817942F6D040C0F261
:10AB60000320F2F7F7FA0398817908440021C171B4
:10AB70000398073042F6E042C0F2032202901046EA
:10AB8000029A01911146F2F7E5FA019805F068F88A
:10AB9000019804B080BD000080B584B00A460390DF
:10ABA000ADF80A1046F69310C2F2000000210170C1
:10ABB0000399BDF80A30019008461946009200F04A
:10ABC00011F88DF8090001980178C907002905D10D
:10ABD000FFE79DF8090002F02BFFFFE79DF8090051
:10ABE00004B080BD80B58EB00A460C90ADF82E1032
:10ABF0000C98C17F1F2308911946079203F000F8B3
:10AC00000899814215D0FFE70C98C17F1F22069159
:10AC1000114602F0F5FF42F6D131C0F20321059052
:10AC200008460699059AF2F795FA01208DF8370043
:10AC3000D3E00C980A9046F69410C2F20000007817
:10AC400001460028049104D0FFE70498012837D07A
:10AC5000A9E00A9840880004002826D5FFE746F6B8
:10AC60009410C2F20000002180F82D1190F82D11EF
:10AC7000014401310C9A05320A9B1B790390084666
:10AC800011461A46FCF721FA0A9949886FF3DF3119
:10AC9000039AA2F82E110A99097992F82D311944D4
:10ACA00082F82D110121117009E042F66540C0F2D1
:10ACB0000320F2F74FFA02208DF837008DE072E0A2
:10ACC0000A984088000400280CD5FFE742F6494066
:10ACD000C0F20320F2F73EFA00F084F802208DF86B
:10ACE00037007AE046F69410C2F20000B0F82E0168
:10ACF0000A9949886FF3DF310131884219D0FFE7A3
:10AD000046F69410C2F20000B0F82E110A9840885E
:10AD10006FF3DF3042F62142C0F203220290104668
:10AD2000029AF2F717FA00F05DF802208DF837006A
:10AD300053E046F69410C2F2000090F82D010A99F3
:10AD400009790844B0F5967F0CDBFFE742F67E40B8
:10AD5000C0F20320F2F7FEF900F044F803208DF86A
:10AD600037003AE046F69410C2F2000090F82D1138
:10AD7000014401310C9A05320A9B1B790190084667
:10AD800011461A46FCF7A1F90A9949886FF3DF3199
:10AD9000019AA2F82E110A99097992F82D311944D5
:10ADA00082F82D11FFE746F69410C2F20000B0F8C9
:10ADB0002E0100280DD1FFE746F69310C2F20000E5
:10ADC00001210170FFF792FE8DF8270000F00AF8CC
:10ADD000FFE700208DF83700FFE79DF837000EB041
:10ADE00080BD000046F69410C2F20000002180F8F9
:10ADF0002D11A0F82E1101707047000081B001469E
:10AE00008DF803009DF8030000F07F008DF802002C
:10AE10009DF80300000600281CD5FFE79DF80200FE
:10AE2000000146F2FC71C2F2000104314FF0FF3222
:10AE30000A509DF8020001EB0010002242609DF8CC
:10AE4000020001EB001082609DF8020001EB00108F
:10AE5000C2601BE09DF80200000146F2FC71C2F2E4
:10AE6000000164314FF0FF320A509DF8020001EBFF
:10AE70000010002242609DF8020001EB0010826089
:10AE80009DF8020001EB0010C260FFE701B07047BF
:10AE900084B001468DF80F000020029000909DF8CC
:10AEA0000F0000F07F008DF80E009DF80F000006E7
:10AEB000002825D5FFE79DF80E0046F2FC71C2F28E
:10AEC000000101EB0010043001909DF80E000028F5
:10AED00009D1FFE740F61010C4F21800006800F036
:10AEE0007F0002900BE09DF80E00400140F610112B
:10AEF000C4F2180108586FF3DF400290FFE724E026
:10AF00009DF80E0046F2FC71C2F2000101EB001048
:10AF1000643001909DF80E00002809D1FFE740F64B
:10AF20001030C4F21800006800F07F0002900BE0BF
:10AF30009DF80E00400140F61031C4F21801085887
:10AF40006FF3DF400290FFE7FFE70198007B800787
:10AF500000280FD5FFE701988168029A891A41609D
:10AF600001984FF0FF3101600198002181600120BC
:10AF70000090FFE7009804B07047000080B500F033
:10AF800015F801F0EDFA1820C4F218000021016054
:10AF900040F61C00C4F21800016046F2FC70C2F2D8
:10AFA0000000C0F80411C0F8F41080BD80B584B072
:10AFB00046F2FC70C2F20000002101704170802056
:10AFC000029101F097FB02988DF80F00FFE79DF8C2
:10AFD0000F00042818DCFFE79DF80F00013040F057
:10AFE0008000C0B2002101F085FB9DF80F00013008
:10AFF00040F08000C0B200F0C5F9FFE79DF80F00F7
:10B0000001308DF80F00E2E700200190019901F076
:10B0100071FB01988DF80F00FFE79DF80F000428E1
:10B0200016DCFFE79DF80F00013000F07F000021E3
:10B0300001F060FB9DF80F00013000F07F0000F090
:10B04000A1F9FFE79DF80F0001308DF80F00E4E74C
:10B0500004B080BD80B584B0039002208DF80A0052
:10B060000398807800F07F008DF80B0003989DF81E
:10B070000B1046F2FC72C2F20002C43202EBC101B4
:10B080004078B1F8013000F0030023F00C0343EAEC
:10B090008000A1F80100039880889DF80B1002EB56
:10B0A000C101B1F801306FF3DF2048F20F0C03EA61
:10B0B0000C0343EA0010A1F80100039880789DF882
:10B0C0000B1002EBC101B1F8013023F0010343EA98
:10B0D000D010A1F8010003988178C078019008464B
:10B0E0000199009200F066FA9DF80B00009901EBBF
:10B0F000C000B0F8012042F00202A0F801209DF843
:10B100000A0004B080BD000080B586B001468DF80D
:10B110001600002002909DF8160000F07F008DF8C8
:10B1200015009DF816000006002825D5FFE79DF8BC
:10B13000150046F2FC71C2F2000101EB0010043070
:10B1400004909DF81500002809D1FFE740F6101083
:10B15000C4F21800006800F07F0002900BE09DF838
:10B160001500400140F61011C4F2180108586FF3A1
:10B17000DF400290FFE724E09DF8150046F2FC71E5
:10B18000C2F2000101EB0010643004909DF815003C
:10B19000002809D1FFE740F61030C4F2180000681B
:10B1A00000F07F0002900BE09DF81500400140F692
:10B1B0001031C4F2180108586FF3DF400290FFE726
:10B1C000FFE7049800680130002804D1FFE7012060
:10B1D0008DF8170030E0049880680299401A0390B7
:10B1E000039804990A68101A0860039804994A6839
:10B1F0001044486004980068002808DCFFE70498C1
:10B200004FF0FF31016001208DF8170014E09DF828
:10B21000160069460DF1060200F064FB00980499DF
:10B2200088609DF816000099BDF8062001F018F816
:10B2300000208DF81700FFE79DF8170006B080BDCD
:10B2400080B5FFE71020C4F218000068C00F002886
:10B2500001D1FFE7F6E71020C4F21800016841F0C1
:10B2600001010160642004F055FBFFE71020C4F2E7
:10B2700018000068C007002801D0FFE7F6E780BD8E
:10B280001820C4F21800016848F2380291430160A6
:10B2900040F60001C4F218010A680323C0F200134B
:10B2A0001A430A600A6822F4FE620A600A6822F4FD
:10B2B00000020A600A6822F004020A6040F60401F3
:10B2C000C4F218010A6822F002020A6046F2FC7118
:10B2D000C2F20001D1F8F4100268114341F4405168
:10B2E0000160704746F2FC70C2F20000B0F8F8004E
:10B2F000002817D0FFE740F63000C4F218000168BC
:10B300006FF35941016046F2FC71C2F20001B1F8DD
:10B31000FE106FF35F21026842EA414141F480313F
:10B320000160FFE746F2FC70C2F20000B0F8FA00DC
:10B33000002809D1FFE746F2FC70C2F20000B0F825
:10B34000FC0000281DD0FFE740F63000C4F21800D2
:10B35000016840F2FC729143016046F2FC71C2F256
:10B360000001B1F8FA20B1F8FC301A435200B1F8EC
:10B3700000116FF35F2142EA81010268114301600D
:10B38000FFE7704780B582B001468DF807009DF851
:10B39000070000F07F008DF806009DF8070000060A
:10B3A000002868D5FFE79DF80600002827D1FFE7B1
:10B3B00040F60010C4F21800016841F0006101601D
:10B3C0000068C00F002809D0FFE740F60010C4F263
:10B3D0001800016841F080410160FFE740F6081065
:10B3E000C4F21800016802681143016040F61C00B5
:10B3F000C4F21800016821F0010101603AE09DF8F3
:10B400000600400140F60011C4F218010A5842F04B
:10B4100000620A509DF8060040010858C00F00283D
:10B420000CD0FFE79DF80600400140F60011C4F281
:10B4300018010A5842F080420A50FFE79DF80600C2
:10B44000400140F60811C4F2180108589DF8062082
:10B4500052018B58184388509DF80600012101FACB
:10B4600000F040F61C01C4F218010A6822EA00004C
:10B470000860FFE768E09DF80600002827D1FFE795
:10B4800040F60030C4F21800016841F0006101602C
:10B490000068C00F002809D0FFE740F60030C4F272
:10B4A0001800016841F080410160FFE740F6083074
:10B4B000C4F21800016802681143016040F61C00E4
:10B4C000C4F21800016821F4803101603BE09DF86E
:10B4D0000600400140F60031C4F218010A5842F05B
:10B4E00000620A509DF8060040010858C00F00286D
:10B4F0000CD0FFE79DF80600400140F60031C4F291
:10B5000018010A5842F090420A50FFE79DF80600E1
:10B51000400140F60831C4F2180108589DF8062091
:10B5200052018B58184388509DF8060010300121B5
:10B5300001FA00F040F61C01C4F218010A6822EA80
:10B5400000000860FFE7FFE79DF8060000F040F903
:10B550009DF80700FFF752FC02B080BD80B582B0B5
:10B5600046F2FC70C2F200000421417046F27C7188
:10B57000C2F2000100200190019A019B01F04AF8FB
:10B58000009000F095F902B080BD000080B582B057
:10B5900046F2FC70C2F200000521417046F2BC7117
:10B5A000C2F2000100200190019A019B00F03EFFD1
:10B5B00002B080BD81B00A4603468DF803008DF8C5
:10B5C00002109DF8030000F07F008DF801009DF847
:10B5D0000300000600286BD5FFE79DF80100002856
:10B5E00027D1FFE79DF8020000F0030080049DF8DA
:10B5F000011001F00F0140EA815040EAC12040F6FD
:10B600000011C4F218010A68104340F400400860B9
:10B6100040F60810C4F21800016802681143016086
:10B6200040F61C00C4F21800016841F001010160FD
:10B630003DE09DF8010046F2FC71C2F2000101EB11
:10B64000C001B1F8C510C1F30A119DF8022002F043
:10B65000030241EA824100F00F0241EA82514001B7
:10B6600040F60012C4F218021358194348F20003BE
:10B67000C1F20003194311509DF80100400140F64A
:10B680000811C4F2180108589DF8012052018B5886
:10B69000184388509DF80100012101FA00F040F69E
:10B6A0001C01C4F218010A6810430860FFE75FE05C
:10B6B0009DF8010000281FD1FFE79DF8020000F06F
:10B6C000030040F60031C4F218010A6842EA8040E3
:10B6D00040F40040086040F60830C4F218000168E9
:10B6E00002681143016040F61C00C4F218000168B2
:10B6F00041F4803101603AE09DF8010046F2FC71AE
:10B70000C2F2000101EBC001B1F8C510C1F30A118A
:10B710009DF8022002F0030241EA8241400140F616
:10B720000032C4F218021358194348F20003C1F260
:10B730000003194311509DF80100400140F6083103
:10B74000C4F2180108589DF8012052018B58184383
:10B7500088509DF801001030012101FA00F040F6F8
:10B760001C01C4F218010A6810430860FFE7FFE7F4
:10B7700001B0704740F60400C4F21800016841F4BB
:10B7800000710160FFE740F60400C4F21800006891
:10B790000007002801D4FFE7F5E71020C4F21800E5
:10B7A000016841F010010160FFE71020C4F21800A9
:10B7B0000068C006002801D5FFE7F6E740F6040060
:10B7C000C4F21800016841F4806101607047000014
:10B7D00081B001468DF803001420C4F218000068FF
:10B7E0004006002809D4FFE740F60400C4F2180020
:10B7F000016841F080010160FFE7FFE71420C4F217
:10B80000180000684006002801D4FFE7F6E7FFE7CC
:10B810001020C4F218000068C00F002801D1FFE713
:10B82000F6E7FFE71020C4F2180000688006002841
:10B8300001D5FFE7F6E79DF8030000F01F00800147
:10B8400020301021C4F218010860FFE71020C4F274
:10B85000180000688006002801D5FFE7F6E740F6EB
:10B860000400C4F21800016841F48071016001B065
:10B870007047000046F2BC70C2F200007047000042
:10B880004C20C4F218000068C0F3021004300121FB
:10B8900001FA00F080B270474C20C4F21800006832
:10B8A00000F00F000B30012101FA00F0704700009A
:10B8B00040F61030C4F218001821C6F208010160E9
:10B8C00046F2BC70C2F2000040F61431C4F2180116
:10B8D000086040F60030C4F21800016841F00441ED
:10B8E0000160704780B592B003468DF84700109113
:10B8F0000F929DF8470000F07F008DF83B009DF807
:10B900003B0046F2FC71C2F2000101EBC000B0F84E
:10B91000C500C0F30A100A909DF8470000060028F1
:10B920005FD5FFE79DF83B0046F2FC71C2F20001D3
:10B9300001EB001004300D909DF83B00002814D15D
:10B94000FFE70D9800680B900B980A99884203D284
:10B95000FFE70B98099002E00A980990FFE7099821
:10B960000B900120ADF832003AE00D9800680B9082
:10B970000B980890FFF790FF0899814203D2FFE7E8
:10B980000B98079003E0FFF787FF0790FFE7079802
:10B990000B900B980A99884203D8FFE70120069084
:10B9A00007E00B980A9908440138B0FBF1F00690C3
:10B9B000FFE70698ADF83200BDF832000590FFF7BA
:10B9C0005FFF059981420ADDFFE7FFF759FFADF8F8
:10B9D0003200BDF832000A9948430B90FFE7FFE7B9
:10B9E00056E09DF83B0046F2FC71C2F2000101EB0B
:10B9F000001064300D909DF83B00002806D1FFE751
:10BA00000A980B900120ADF8320040E00D980068D4
:10BA10000B900B980490FFF73FFF0499814203D2EB
:10BA2000FFE70B98039003E0FFF736FF0390FFE773
:10BA300003980B900B980A99884203D8FFE70120DE
:10BA4000029007E00B980A9908440138B0FBF1F026
:10BA50000290FFE70298ADF83200BDF83200019085
:10BA6000FFF70EFF0199814204DAFFE7BDF83200CB
:10BA7000009003E0FFF704FF0090FFE70098ADF8A7
:10BA80003200BDF832000A9948430B90FFE7FFE708
:10BA90000B9810990860BDF832000F99088012B019
:10BAA00080BD000080B58EB046F2BC70C2F20000CE
:10BAB0000D9046F2FC70C2F2000040780138014659
:10BAC0000428089100F2D1800899DFE801F0037D95
:10BAD0009CBCC5000D980078C00600282ED1FFE759
:10BAE0000D98407801460528079104D0FFE7079894
:10BAF000092819D021E040F60000C4F218000168BE
:10BB000021F4FE6101600D99498801F07F0102680E
:10BB100042EA0111016046F2FC70C2F200000178B5
:10BB200041F01001017008E046F2FC70C2F2000022
:10BB3000017841F020010170FFE7FFE700208DF858
:10BB4000280046F2FC70C2F20000D0F804010AA9F5
:10BB5000069008460699884709900998102807D149
:10BB6000FFE70D98007800F0800000F0ABFDFFE7E4
:10BB70000998022827D1FFE70D98C088002803D133
:10BB8000FFE7FFF7EBFC1DE00D9800780021032292
:10BB9000B1EBD01F18BF022246F2FC70C2F20000C7
:10BBA0004270407803280CD1FFE70D98C28846F216
:10BBB000BC71C2F2000100200590059B00F036FC2C
:10BBC000FFE7FFE7FFE751E08020FFF79DFA00283D
:10BBD00018D0FFE701208DF8280000218DF82C10E7
:10BBE0000C918DF82D0046F2FC70C2F20000D0F8E6
:10BBF00004010AA904900846049988470390FFF7B6
:10BC0000C5FCFFE732E00020FFF77EFA002819D0DC
:10BC1000FFE701208DF8280000208DF82C0046F267
:10BC2000FC71C2F200018A6E0C928DF82D00D1F8E1
:10BC300004010AA902900846029988470190FFF77B
:10BC40008DFCFFE712E046F2FC70C2F20000012119
:10BC50004170FFF72DFE09E046F2FC70C2F20000D1
:10BC600001214170FFF724FE00E0FFE70EB080BD28
:10BC700080B584B0029002208DF807000298002859
:10BC800004D1FFE704208DF80F001FE046F2FC709E
:10BC9000C2F2000000210170417002990A684B68ED
:10BCA000D1F808C0D1F80CE00969C0F80411C0F857
:10BCB00000E1C0F8FCC0C0F8F830C0F8F42000F093
:10BCC0000DFC9DF807008DF80F00FFE79DF80F00B1
:10BCD00004B080BD80B592B011901420C4F2180059
:10BCE0000168109100210E910D9110990268114385
:10BCF00001609DF84100C006002859D5FFE740F6D5
:10BD00000030C4F21800016841F0006101600020B9
:10BD10000F90FFE70F9804280FD8FFE70F98400116
:10BD200040F62031C4F218010A5842F000620A506D
:10BD3000FFE70F9801300F90ECE700F06BFB40F647
:10BD40001C00C4F21800016841F00111016040F6C6
:10BD50001000C4F21800016841F00D01016040F6C6
:10BD60001400C4F21800016841F22D121143016061
:10BD700040F60000C4F21800016821F4FE61016081
:10BD80001820C4F21800016841F44021016002202B
:10BD90008DF8280046F2FC70C2F20000D0F80411C1
:10BDA0000AAA0790104688470621079A1170FFE7F4
:10BDB0009DF84100800600282ED5FFE746F2FC7072
:10BDC000C2F200000121417040F60011C4F21801D6
:10BDD0000A6822F003020A6040F60031C4F218013A
:10BDE0000A6842F000420A600690FFF761FD06987B
:10BDF000B0F8C51041F00201A0F8C510B0F8C510A8
:10BE000048F20F02114001F58061A0F8C5100178D9
:10BE100041F008010170FFE79DF84200400700284B
:10BE200040F19780FFE746F2FC70C2F20000007814
:10BE30000007002840F18D80FFE740F61800C4F2AB
:10BE40001800006840F61C01C4F218010968084097
:10BE50000D9000200990BDF834100D910990FFE776
:10BE60000998052874D8FFE70D980999C840C007BC
:10BE7000002868D0FFE70998002830D1FFE740F696
:10BE80000810C4F2180000680E909DF83800C00732
:10BE900000281DD0FFE746F2FC70C2F20000407897
:10BEA000012814D0FFE746F2FC70C2F2000040788F
:10BEB000022809D1FFE79DF8240040F08000FFF739
:10BEC00023F9002803D0FFE7FFF7ECFDFFE7FFE7CA
:10BED0000E9840F60811C4F21801086032E0099883
:10BEE000400140F60811C4F2180108580E900E984F
:10BEF000099A520188509DF83800C007002820D0C8
:10BF0000FFE79DF8240040F08000FFF7FDF80028CF
:10BF100016D0FFE701208DF8280009998DF82C1024
:10BF200000210C918DF82D0046F2FC70C2F2000049
:10BF3000D0F804010AA90590084605998847FFE74B
:10BF4000FFE7FFE7FFE7FFE709980130099087E780
:10BF5000FFE79DF842000007002840F1BA80FFE7A4
:10BF600046F2FC70C2F2000000780007002840F1A1
:10BF7000B080FFE740F61800C4F21800006840F6F1
:10BF80001C01C4F21801096808400D9000200890B7
:10BF9000BDF836100D910890FFE70898052800F2CB
:10BFA0009780FFE70D980899C840C007002800F067
:10BFB0008A80FFE70898002846D1FFE740F608305E
:10BFC000C4F2180001680E910E9901609DF83800C6
:10BFD000C00700281CD0FFE79DF8390000060028A4
:10BFE00009D5FFE746F2FC70C2F200000121417062
:10BFF000FFF758FD0BE046F2FC70C2F200004078FB
:10C00000012803D0FFE7FFF74DFDFFE7FFE71AE048
:10C010009DF83800800600280BD5FFE746F2FC703B
:10C02000C2F200004078032803D1FFE7FFF796FA39
:10C03000FFE79DF838000007002803D5FFE7FFF76A
:10C0400037FCFFE7FFE73DE00898400140F6083184
:10C05000C4F2180108580E900E98089A52018850A0
:10C060009DF83800C00700282BD0FFE7089800F0A3
:10C070007F00FEF70DFF002808D1FFE7089800F0C9
:10C080007F00FFF741F800281AD0FFE701208DF864
:10C09000280008988DF82C00089846F2FC71C2F22E
:10C0A000000101EB0010806E0C9000208DF82D0037
:10C0B000D1F804010AA90490084604998847FFE7CB
:10C0C000FFE7FFE7FFE7FFE708980130089064E724
:10C0D000FFE79DF840000007002822D5FFE746F261
:10C0E000FC70C2F2000090F8F4000007002818D598
:10C0F000FFE746F2FC70C2F200000078000700285B
:10C100000FD5FFE703208DF8280046F2FC70C2F23D
:10C110000000D0F804010AA9039008460399884753
:10C12000FFE79DF84100000700281FD5FFE746F212
:10C13000FC70C2F2000000780007002816D5FFE767
:10C1400046F2FC70C2F20000017841F00601017075
:10C1500001210290084600F03BF904208DF82800E8
:10C160000298D0F804110AA88847FFE79DF8430019
:10C17000000600281FD5FFE746F2FC70C2F200005F
:10C1800000780007002816D5FFE746F2FC70C2F2DF
:10C190000000017801F0F9010170002101900846CA
:10C1A00000F016F905208DF828000198D0F8041148
:10C1B0000AA88847FFE7002012B080BD83B001467F
:10C1C0008DF80A009DF80A0000F07F008DF8090044
:10C1D0009DF8090000280BD1FFE740F60010C4F2DB
:10C1E0001800019040F60030C4F21800009012E0F0
:10C1F0009DF8090040F60011C4F2180101EB40104F
:10C2000001909DF8090040F60031C4F2180101EBDD
:10C2100040100090FFE79DF80A00000600280BD5AB
:10C22000FFE7019800688002002804D5FFE701209D
:10C230008DF80B000FE00AE00098006880020028EB
:10C2400004D5FFE701208DF80B0004E0FFE7002094
:10C250008DF80B00FFE79DF80B0003B0704700005E
:10C2600083B0134684468DF80B000191ADF802208F
:10C270009DF80B0000F07F008DF801009DF80B0089
:10C280000006002865D5FFE79DF80100002817D1BA
:10C29000FFE7019800F07F00BDF8021001F00301F4
:10C2A00040EAC14040F61011C4F21801086040F69F
:10C2B0000010C4F21800016841F00441016047E039
:10C2C00001986FF3DF40BDF802106FF39F2140EA41
:10C2D000C14000F100509DF80110490140F61012D4
:10C2E000C4F2180250509DF80100400140F60011C0
:10C2F000C4F218010858C0F3814001281BD1FFE7A0
:10C3000040F60800C4F218000068C0054FF0005164
:10C31000002848BF4FF080519DF801004FEA4010BF
:10C3200040F60012C4F21802135841EA030141F02A
:10C33000044111500BE09DF80100400140F600114E
:10C34000C4F218010A5842F004420A50FFE7FFE71E
:10C350003CE09DF8010000281AD1FFE7019800F0A9
:10C360007F0000F50021BDF80220002A18BF084612
:10C3700000F1C04040F61031C4F21801086040F6E8
:10C380000030C4F21800016841F0044101601CE073
:10C3900001986FF3DF40BDF802106FF39F2140EA70
:10C3A000C1409DF80110490140F61032C4F2180254
:10C3B00050509DF80100400140F60031C4F21801D0
:10C3C0000A5842F004420A50FFE7FFE703B0704703
:10C3D00080B582B001468DF807009DF8070001285E
:10C3E00009D1FFE740F60060C4F21800016841F08F
:10C3F0000101016008E040F60400C4F21800016881
:10C4000021F001010160FFE7142003F083FA02B07C
:10C4100080BD000080B51020FFF7DAF9FFF7AAF918
:10C42000FEF7C4FD00F09CF880BD000080B588B028
:10C43000944686468DF81E000691ADF816200493AA
:10C4400002208DF807009DF81E0000F07F008DF897
:10C450000F009DF80F00052806DCFFE79DF8180087
:10C460008007002804D0FFE704208DF81F0030E08B
:10C470009DF80F00002809D1FFE740F60030C4F214
:10C480001800006800F4004002900BE09DF80F00D7
:10C49000400140F60031C4F21801085800F4004091
:10C4A0000290FFE70298002804D1FFE708208DF8EA
:10C4B0001F000EE09DF81E0000F07F000699BDF8F9
:10C4C0001620049B00F0B4F99DF807108DF81F109A
:10C4D000FFE79DF81F0008B080BD000080B582B066
:10C4E0000C20C4F21800016841F040010160019085
:10C4F000FEF7A6FE0820C4F21800016841F02701EB
:10C5000001600198016843F60842914302681143B3
:10C5100042F20842114301601821C4F218010A686E
:10C5200042F006020A6000F059F91020FFF750F9B6
:10C53000FFF720F9FEF7A4FE1420C4F218000168EA
:10C540000268114301600420C4F218000168026807
:10C550001143016000F004F8FEF7C4FE02B080BD94
:10C5600081B000208DF80300FFE79DF80300052847
:10C5700022DCFFE79DF80300000146F2FC71C2F2E5
:10C58000000104314FF0FF320A509DF8030001EB27
:10C590000010002242609DF8030001EB0010826051
:10C5A0009DF8030001EB0010C260FFE79DF8030057
:10C5B00001308DF80300D8E700208DF80300FFE775
:10C5C0009DF80300052822DCFFE79DF80300000129
:10C5D00046F2FC71C2F2000164314FF0FF320A50A2
:10C5E0009DF8030001EB0010002242609DF803005B
:10C5F00001EB001082609DF8030001EB0010C260A7
:10C60000FFE79DF8030001308DF80300D8E701B083
:10C610007047000080B588B0944686468DF81E00AD
:10C620000691ADF81620049302208DF807009DF8BE
:10C630001E0000F07F008DF80F009DF80F00052808
:10C6400006DCFFE79DF818008007002804D0FFE70C
:10C6500004208DF81F0030E09DF80F00002809D15C
:10C66000FFE740F60010C4F21800006800F4004034
:10C6700002900BE09DF80F00400140F60011C4F25B
:10C680001801085800F400400290FFE702980028C3
:10C6900004D1FFE708208DF81F000EE09DF81E0072
:10C6A00040F080000699BDF81620049B00F0C0F809
:10C6B0009DF807108DF81F10FFE79DF81F0008B0C8
:10C6C00080BD000080B584B001468DF80F009DF854
:10C6D0000F00012202911146019200F00BF846F280
:10C6E000FC70C2F2000001994170FFF7E1F804B05C
:10C6F00080BD000080B584B00A4603468DF80F0067
:10C700008DF80E109DF80F0000F07F008DF80D00E1
:10C710009DF80D0000280BD1FFE740F60010C4F291
:10C720001800029040F60030C4F21800019012E0A8
:10C730009DF80D0040F60011C4F2180101EB401005
:10C7400002909DF80D0040F60031C4F2180101EB93
:10C7500040100190FFE79DF80F000006002829D542
:10C76000FFE79DF80E00012818D1FFE70298006846
:10C77000C00F002808D0FFE7029801680022C4F229
:10C7800020021143016005E00298016841F40011A4
:10C790000160FFE71020FFF71BF80AE0029801682C
:10C7A00021F4001101600298016841F0805101609C
:10C7B000FFE711E09DF80E00012806D1FFE7019880
:10C7C000016841F40011016005E00198016821F45D
:10C7D00000110160FFE7FFE704B080BD82B02420B4
:10C7E000C4F21800402101600191019840F400104A
:10C7F0002821C4F21801086000200090FFE700988B
:10C80000042812D8FFE7019820300190019840F4E5
:10C810000010009940F20412C4F2180242F82100FC
:10C82000FFE7009801300090E9E702B07047000090
:10C8300080B58AB0944686468DF827000891ADF8F9
:10C840001E2006939DF8270000F07F008DF817004A
:10C850009DF827000006002821D5FFE79DF8170066
:10C8600046F2FC71C2F2000101EB001004300490AA
:10C870009DF81700002807D1FFE7089840F614112B
:10C88000C4F21801086009E008989DF817104901E2
:10C8900040F61412C4F218025050FFE720E09DF851
:10C8A000170046F2FC71C2F2000101EB0010643087
:10C8B00004909DF81700002807D1FFE7089840F67C
:10C8C0001431C4F21801086009E008989DF81710A7
:10C8D000490140F61432C4F218025050FFE7FFE756
:10C8E000049800680130002801D0FFE7FFE7BDF899
:10C8F0001E00049908600498002141600698049A7B
:10C90000D0609DF8270002AA0DF10E030191114697
:10C910001A46FEF7E7FF0298049988609DF8270001
:10C920000299BDF80E20FFF79BFC01980AB080BD6C
:10C9300080B582B044F23050C2F2000001900198FC
:10C940000121016101984161019842F27341C0F2F5
:10C9500003218161019844F28852C2F20002C2614F
:10C9600001984FF4FA7202620198002282620198E3
:10C9700042620198C26201980163019844F27851C1
:10C98000C2F20001416301981021816301980264A1
:10C990000198C263019842640198073042F26F41E6
:10C9A000C0F20321FAF7D7FBBFF35F8F019942F280
:10C9B0006842C0F20322009008461146FAF7CBFB0A
:10C9C000BFF35F8F019920228A71BFF35F8F02B09E
:10C9D00080BD000084B00390039800690290039822
:10C9E000C068019002980199884209D8FFE703982E
:10C9F00080680199401A029908440138009005E0C6
:10CA000002980199C94308440090FFE7009804B0D8
:10CA10007047000080B58AB0099008910792002005
:10CA200005900998C0680390FFE709980069049091
:10CA300004980399884206D9FFE704980399C943EB
:10CA40000844069008E0099880680399049A891AB6
:10CA5000C94308440690FFE7069809998968039A34
:10CA6000891A884203D2FFE70698029005E00998E8
:10CA700080680399401A0290FFE702980690069892
:10CA80000799884203D2FFE70698019002E00798D1
:10CA90000190FFE7019806900998406803990844BF
:10CAA0000899069AFAF711FB0699059A114405911F
:10CAB0000699089A114408910699079A511A079104
:10CAC0000699039A114403910399099A9268914235
:10CAD00003D1FFE700200390FFE7BFF35F8F0398C8
